{
  "abi": [
    {
      "inputs": [
        {
          "internalType": "string",
          "name": "_name",
          "type": "string"
        },
        {
          "internalType": "string",
          "name": "_symbol",
          "type": "string"
        },
        {
          "internalType": "uint256",
          "name": "_decimals",
          "type": "uint256"
        },
        {
          "internalType": "uint256",
          "name": "_totalSupply",
          "type": "uint256"
        }
      ],
      "stateMutability": "nonpayable",
      "type": "constructor"
    },
    {
      "inputs": [],
      "name": "AddressCantBeBunrnedByThis",
      "type": "error"
    },
    {
      "inputs": [],
      "name": "AddressNotFrozen",
      "type": "error"
    },
    {
      "inputs": [],
      "name": "AlreadyPaused",
      "type": "error"
    },
    {
      "inputs": [],
      "name": "AlreadyUnPaused",
      "type": "error"
    },
    {
      "inputs": [],
      "name": "BridgeNotFound",
      "type": "error"
    },
    {
      "inputs": [],
      "name": "ContractPaused",
      "type": "error"
    },
    {
      "inputs": [],
      "name": "InsufficientFunds",
      "type": "error"
    },
    {
      "anonymous": false,
      "inputs": [
        {
          "indexed": true,
          "internalType": "address",
          "name": "owner",
          "type": "address"
        },
        {
          "indexed": true,
          "internalType": "address",
          "name": "spender",
          "type": "address"
        },
        {
          "indexed": false,
          "internalType": "uint256",
          "name": "value",
          "type": "uint256"
        }
      ],
      "name": "Approval",
      "type": "event"
    },
    {
      "anonymous": false,
      "inputs": [
        {
          "indexed": false,
          "internalType": "bytes32",
          "name": "bridgeName",
          "type": "bytes32"
        }
      ],
      "name": "BridgeDeleted",
      "type": "event"
    },
    {
      "anonymous": false,
      "inputs": [
        {
          "indexed": false,
          "internalType": "bytes32",
          "name": "bridgeFrom",
          "type": "bytes32"
        },
        {
          "indexed": true,
          "internalType": "address",
          "name": "receiver",
          "type": "address"
        },
        {
          "indexed": false,
          "internalType": "uint256",
          "name": "value",
          "type": "uint256"
        }
      ],
      "name": "BridgeIn",
      "type": "event"
    },
    {
      "anonymous": false,
      "inputs": [
        {
          "indexed": false,
          "internalType": "bytes32",
          "name": "bridgeName",
          "type": "bytes32"
        }
      ],
      "name": "BridgeStored",
      "type": "event"
    },
    {
      "anonymous": false,
      "inputs": [
        {
          "indexed": false,
          "internalType": "bytes32",
          "name": "bridgeTo",
          "type": "bytes32"
        },
        {
          "indexed": true,
          "internalType": "address",
          "name": "receiver",
          "type": "address"
        },
        {
          "indexed": false,
          "internalType": "uint256",
          "name": "value",
          "type": "uint256"
        }
      ],
      "name": "BridgeTo",
      "type": "event"
    },
    {
      "anonymous": false,
      "inputs": [
        {
          "indexed": true,
          "internalType": "address",
          "name": "addr",
          "type": "address"
        }
      ],
      "name": "FreezeAddress",
      "type": "event"
    },
    {
      "anonymous": false,
      "inputs": [
        {
          "indexed": true,
          "internalType": "address",
          "name": "addr",
          "type": "address"
        }
      ],
      "name": "FrozenAddressWiped",
      "type": "event"
    },
    {
      "anonymous": false,
      "inputs": [
        {
          "indexed": true,
          "internalType": "address",
          "name": "oldOwner",
          "type": "address"
        },
        {
          "indexed": true,
          "internalType": "address",
          "name": "newOwner",
          "type": "address"
        }
      ],
      "name": "OwnerSet",
      "type": "event"
    },
    {
      "anonymous": false,
      "inputs": [],
      "name": "Pause",
      "type": "event"
    },
    {
      "anonymous": false,
      "inputs": [
        {
          "indexed": true,
          "internalType": "address",
          "name": "from",
          "type": "address"
        },
        {
          "indexed": false,
          "internalType": "uint256",
          "name": "value",
          "type": "uint256"
        }
      ],
      "name": "SupplyDecreased",
      "type": "event"
    },
    {
      "anonymous": false,
      "inputs": [
        {
          "indexed": true,
          "internalType": "address",
          "name": "to",
          "type": "address"
        },
        {
          "indexed": false,
          "internalType": "uint256",
          "name": "value",
          "type": "uint256"
        }
      ],
      "name": "SupplyIncreased",
      "type": "event"
    },
    {
      "anonymous": false,
      "inputs": [
        {
          "indexed": true,
          "internalType": "address",
          "name": "from",
          "type": "address"
        },
        {
          "indexed": true,
          "internalType": "address",
          "name": "to",
          "type": "address"
        },
        {
          "indexed": false,
          "internalType": "uint256",
          "name": "value",
          "type": "uint256"
        }
      ],
      "name": "Transfer",
      "type": "event"
    },
    {
      "anonymous": false,
      "inputs": [
        {
          "indexed": true,
          "internalType": "address",
          "name": "addr",
          "type": "address"
        }
      ],
      "name": "UnfreezeAddress",
      "type": "event"
    },
    {
      "anonymous": false,
      "inputs": [],
      "name": "Unpause",
      "type": "event"
    },
    {
      "anonymous": false,
      "inputs": [
        {
          "indexed": true,
          "internalType": "address",
          "name": "Account",
          "type": "address"
        },
        {
          "indexed": false,
          "internalType": "uint256",
          "name": "balances",
          "type": "uint256"
        }
      ],
      "name": "accountBalanceUpdate",
      "type": "event"
    },
    {
      "inputs": [
        {
          "internalType": "string",
          "name": "_bridgeName",
          "type": "string"
        }
      ],
      "name": "NewBridge",
      "outputs": [],
      "stateMutability": "nonpayable",
      "type": "function"
    },
    {
      "inputs": [
        {
          "internalType": "address",
          "name": "_owner",
          "type": "address"
        },
        {
          "internalType": "address",
          "name": "_spender",
          "type": "address"
        }
      ],
      "name": "allowance",
      "outputs": [
        {
          "internalType": "uint256",
          "name": "",
          "type": "uint256"
        }
      ],
      "stateMutability": "view",
      "type": "function"
    },
    {
      "inputs": [
        {
          "internalType": "address",
          "name": "_spender",
          "type": "address"
        },
        {
          "internalType": "uint256",
          "name": "_value",
          "type": "uint256"
        }
      ],
      "name": "approve",
      "outputs": [
        {
          "internalType": "bool",
          "name": "",
          "type": "bool"
        }
      ],
      "stateMutability": "nonpayable",
      "type": "function"
    },
    {
      "inputs": [
        {
          "internalType": "address",
          "name": "_owner",
          "type": "address"
        }
      ],
      "name": "balanceOf",
      "outputs": [
        {
          "internalType": "uint256",
          "name": "",
          "type": "uint256"
        }
      ],
      "stateMutability": "view",
      "type": "function"
    },
    {
      "inputs": [
        {
          "internalType": "address",
          "name": "_to",
          "type": "address"
        },
        {
          "internalType": "string",
          "name": "_bridgeFrom",
          "type": "string"
        },
        {
          "internalType": "uint256",
          "name": "_value",
          "type": "uint256"
        }
      ],
      "name": "bridgeIn",
      "outputs": [
        {
          "internalType": "bool",
          "name": "",
          "type": "bool"
        }
      ],
      "stateMutability": "nonpayable",
      "type": "function"
    },
    {
      "inputs": [
        {
          "internalType": "uint256",
          "name": "amount",
          "type": "uint256"
        }
      ],
      "name": "burn",
      "outputs": [],
      "stateMutability": "nonpayable",
      "type": "function"
    },
    {
      "inputs": [
        {
          "internalType": "address",
          "name": "newOwner",
          "type": "address"
        }
      ],
      "name": "changeOwner",
      "outputs": [],
      "stateMutability": "nonpayable",
      "type": "function"
    },
    {
      "inputs": [],
      "name": "decimals",
      "outputs": [
        {
          "internalType": "uint256",
          "name": "",
          "type": "uint256"
        }
      ],
      "stateMutability": "view",
      "type": "function"
    },
    {
      "inputs": [
        {
          "internalType": "uint256",
          "name": "value",
          "type": "uint256"
        }
      ],
      "name": "decreaseSupply",
      "outputs": [
        {
          "internalType": "bool",
          "name": "success",
          "type": "bool"
        }
      ],
      "stateMutability": "nonpayable",
      "type": "function"
    },
    {
      "inputs": [
        {
          "internalType": "uint256",
          "name": "value",
          "type": "uint256"
        },
        {
          "internalType": "address",
          "name": "burnFromAddress",
          "type": "address"
        }
      ],
      "name": "decreaseSupplyFromAddress",
      "outputs": [
        {
          "internalType": "bool",
          "name": "success",
          "type": "bool"
        }
      ],
      "stateMutability": "nonpayable",
      "type": "function"
    },
    {
      "inputs": [
        {
          "internalType": "string",
          "name": "_BridgeName",
          "type": "string"
        }
      ],
      "name": "deleteBridge",
      "outputs": [],
      "stateMutability": "nonpayable",
      "type": "function"
    },
    {
      "inputs": [
        {
          "internalType": "address",
          "name": "addr",
          "type": "address"
        }
      ],
      "name": "freeze",
      "outputs": [],
      "stateMutability": "nonpayable",
      "type": "function"
    },
    {
      "inputs": [
        {
          "internalType": "uint256",
          "name": "value",
          "type": "uint256"
        }
      ],
      "name": "increaseSupply",
      "outputs": [
        {
          "internalType": "bool",
          "name": "success",
          "type": "bool"
        }
      ],
      "stateMutability": "nonpayable",
      "type": "function"
    },
    {
      "inputs": [
        {
          "internalType": "address",
          "name": "addr",
          "type": "address"
        }
      ],
      "name": "isFrozen",
      "outputs": [
        {
          "internalType": "bool",
          "name": "",
          "type": "bool"
        }
      ],
      "stateMutability": "view",
      "type": "function"
    },
    {
      "inputs": [
        {
          "internalType": "address",
          "name": "account",
          "type": "address"
        },
        {
          "internalType": "uint256",
          "name": "amount",
          "type": "uint256"
        }
      ],
      "name": "mint",
      "outputs": [],
      "stateMutability": "nonpayable",
      "type": "function"
    },
    {
      "inputs": [],
      "name": "name",
      "outputs": [
        {
          "internalType": "string",
          "name": "",
          "type": "string"
        }
      ],
      "stateMutability": "view",
      "type": "function"
    },
    {
      "inputs": [],
      "name": "owner",
      "outputs": [
        {
          "internalType": "address",
          "name": "",
          "type": "address"
        }
      ],
      "stateMutability": "view",
      "type": "function"
    },
    {
      "inputs": [],
      "name": "pause",
      "outputs": [],
      "stateMutability": "nonpayable",
      "type": "function"
    },
    {
      "inputs": [],
      "name": "paused",
      "outputs": [
        {
          "internalType": "bool",
          "name": "",
          "type": "bool"
        }
      ],
      "stateMutability": "view",
      "type": "function"
    },
    {
      "inputs": [],
      "name": "symbol",
      "outputs": [
        {
          "internalType": "string",
          "name": "",
          "type": "string"
        }
      ],
      "stateMutability": "view",
      "type": "function"
    },
    {
      "inputs": [],
      "name": "totalSupply",
      "outputs": [
        {
          "internalType": "uint256",
          "name": "",
          "type": "uint256"
        }
      ],
      "stateMutability": "view",
      "type": "function"
    },
    {
      "inputs": [
        {
          "internalType": "address",
          "name": "_to",
          "type": "address"
        },
        {
          "internalType": "uint256",
          "name": "_value",
          "type": "uint256"
        }
      ],
      "name": "transfer",
      "outputs": [
        {
          "internalType": "bool",
          "name": "",
          "type": "bool"
        }
      ],
      "stateMutability": "nonpayable",
      "type": "function"
    },
    {
      "inputs": [
        {
          "internalType": "address",
          "name": "_to",
          "type": "address"
        },
        {
          "internalType": "string",
          "name": "_bridgeTo",
          "type": "string"
        },
        {
          "internalType": "uint256",
          "name": "_value",
          "type": "uint256"
        }
      ],
      "name": "transferBridge",
      "outputs": [
        {
          "internalType": "bool",
          "name": "",
          "type": "bool"
        }
      ],
      "stateMutability": "nonpayable",
      "type": "function"
    },
    {
      "inputs": [
        {
          "internalType": "address",
          "name": "_from",
          "type": "address"
        },
        {
          "internalType": "address",
          "name": "_to",
          "type": "address"
        },
        {
          "internalType": "uint256",
          "name": "_value",
          "type": "uint256"
        }
      ],
      "name": "transferFrom",
      "outputs": [
        {
          "internalType": "bool",
          "name": "",
          "type": "bool"
        }
      ],
      "stateMutability": "nonpayable",
      "type": "function"
    },
    {
      "inputs": [
        {
          "internalType": "address",
          "name": "addr",
          "type": "address"
        }
      ],
      "name": "unfreeze",
      "outputs": [],
      "stateMutability": "nonpayable",
      "type": "function"
    },
    {
      "inputs": [],
      "name": "unpause",
      "outputs": [],
      "stateMutability": "nonpayable",
      "type": "function"
    },
    {
      "inputs": [
        {
          "internalType": "address",
          "name": "addr",
          "type": "address"
        }
      ],
      "name": "wipeFrozenAddress",
      "outputs": [],
      "stateMutability": "nonpayable",
      "type": "function"
    }
  ],
  "bytecode": "608060405234801561001057600080fd5b50604051611a57380380611a5783398101604081905261002f916101da565b600080546001600160a01b0319163390811782556040519091907f342827c97908e5e2f71151c08502a66d44b6f758e3ac2f1de95f02eb95f0a735908290a3600261007a85826102d8565b50600161008784826102d8565b50600382905560048190553360008181526008602052604090819020839055517f6a245a004ad1e70bebe202e61569cda6601ee9390641d85f8aa5d181a01c59ca906100d69084815260200190565b60405180910390a260405181815233907ff5c174d57843e57fea3c649fdde37f015ef08750759cbee88060390566a987979060200160405180910390a250505050610397565b634e487b7160e01b600052604160045260246000fd5b600082601f83011261014357600080fd5b81516001600160401b038082111561015d5761015d61011c565b604051601f8301601f19908116603f011681019082821181831017156101855761018561011c565b81604052838152602092508660208588010111156101a257600080fd5b600091505b838210156101c457858201830151818301840152908201906101a7565b6000602085830101528094505050505092915050565b600080600080608085870312156101f057600080fd5b84516001600160401b038082111561020757600080fd5b61021388838901610132565b9550602087015191508082111561022957600080fd5b5061023687828801610132565b604087015160609097015195989097509350505050565b600181811c9082168061026157607f821691505b60208210810361028157634e487b7160e01b600052602260045260246000fd5b50919050565b601f8211156102d3576000816000526020600020601f850160051c810160208610156102b05750805b601f850160051c820191505b818110156102cf578281556001016102bc565b5050505b505050565b81516001600160401b038111156102f1576102f161011c565b610305816102ff845461024d565b84610287565b602080601f83116001811461033a57600084156103225750858301515b600019600386901b1c1916600185901b1785556102cf565b600085815260208120601f198616915b828110156103695788860151825594840194600190910190840161034a565b50858210156103875787850151600019600388901b60f8161c191681555b5050505050600190811b01905550565b6116b1806103a66000396000f3fe608060405234801561001057600080fd5b50600436106101a95760003560e01c806370a08231116100f9578063a9059cbb11610097578063dd62ed3e11610071578063dd62ed3e1461036c578063e2f72f03146103a5578063e5839836146103b8578063f6cc5c3f146103cb57600080fd5b8063a9059cbb14610333578063b921e16314610346578063c12486f51461035957600080fd5b80638da5cb5b116100d35780638da5cb5b146102ea57806395d89b411461030557806398e52f9a1461030d578063a6f9dae11461032057600080fd5b806370a08231146102a65780638456cb59146102cf5780638d1fdf2f146102d757600080fd5b8063313ce5671161016657806340c10f191161014057806340c10f191461026057806342966c681461027357806345c8b1a6146102865780635c975abb1461029957600080fd5b8063313ce5671461023a5780633dafe12c146102435780633f4ba83a1461025857600080fd5b806306fdde03146101ae578063095ea7b3146101cc57806318160ddd146101ef5780631f17c0831461020157806323b872dd146102145780632d3f9eb214610227575b600080fd5b6101b66103de565b6040516101c391906112ff565b60405180910390f35b6101df6101da366004611365565b61046c565b60405190151581526020016101c3565b6004545b6040519081526020016101c3565b6101df61020f36600461138f565b6104fe565b6101df6102223660046113bb565b610610565b6101df61023536600461149a565b610718565b6101f360035481565b6102566102513660046114f1565b61085a565b005b610256610990565b61025661026e366004611365565b610a12565b61025661028136600461152e565b610a46565b610256610294366004611547565b610a53565b6005546101df9060ff1681565b6101f36102b4366004611547565b6001600160a01b031660009081526008602052604090205490565b610256610a86565b6102566102e5366004611547565b610b0c565b6000546040516001600160a01b0390911681526020016101c3565b6101b6610b3f565b6101df61031b36600461152e565b610b4c565b61025661032e366004611547565b610b58565b6101df610341366004611365565b610bdd565b6101df61035436600461152e565b610ce8565b6102566103673660046114f1565b610d22565b6101f361037a366004611562565b6001600160a01b03918216600090815260076020908152604080832093909416825291909152205490565b6102566103b3366004611547565b610dfe565b6101df6103c6366004611547565b610f41565b6101df6103d936600461149a565b610f62565b600280546103eb9061158c565b80601f01602080910402602001604051908101604052809291908181526020018280546104179061158c565b80156104645780601f1061043957610100808354040283529160200191610464565b820191906000526020600020905b81548152906001019060200180831161044757829003601f168201915b505050505081565b600061047a60055460ff1690565b156104985760405163ab35696f60e01b815260040160405180910390fd5b3360008181526007602090815260408083206001600160a01b03881680855290835292819020869055518581529192917f8c5be1e5ebec7d5bd14f71427d1e84f3dd0314c0f7b2291e5b200ac8c7c3b92591015b60405180910390a35060015b92915050565b600061050a8233610ff4565b6105275760405163cfe5f07960e01b815260040160405180910390fd5b6001600160a01b0382166000908152600860205260409020548311156105605760405163356680b760e01b815260040160405180910390fd5b6001600160a01b038216600090815260086020526040812080548592906105889084906115dc565b9250508190555082600460008282546105a191906115dc565b90915550506040518381526001600160a01b038316907f1b7e18241beced0d7f41fbab1ea8ed468732edbcb74ec4420151654ca71c8a639060200160405180910390a26040518381526000906001600160a01b0384169060008051602061165c833981519152906020016104ec565b600061061e60055460ff1690565b1561063c5760405163ab35696f60e01b815260040160405180910390fd5b6001600160a01b03841660009081526007602090815260408083203384529091529020548211156106ad5760405162461bcd60e51b8152602060048201526016602482015275496e73756666696369656e7420616c6c6f77616e636560501b60448201526064015b60405180910390fd5b6001600160a01b03841660009081526007602090815260408083203384529091529020546106dc9083906115dc565b6001600160a01b038516600090815260076020908152604080832033845290915290205561070b848484611055565b50600190505b9392505050565b600061072660055460ff1690565b156107445760405163ab35696f60e01b815260040160405180910390fd5b8251602084012060005b60065481101561084057816006828154811061076c5761076c6115ef565b9060005260206000200154036108385761078684336104fe565b6107e95760405162461bcd60e51b815260206004820152602e60248201527f7472616e73666572427269646765206465637265617365537570706c7946726f60448201526d36a0b2323932b9b99032b93937b960911b60648201526084016106a4565b60408051838152602081018690526001600160a01b038816917fc4efb29897fa00c50ed53400ee7385df2d32c665f1885235aaed0495e76fea67910160405180910390a2600192505050610711565b60010161074e565b506040516331f0d02960e11b815260040160405180910390fd5b6000546001600160a01b031633146108845760405162461bcd60e51b81526004016106a490611605565b8051602082012060005b60065481101561098a5781600682815481106108ac576108ac6115ef565b906000526020600020015403610982576006546108cb906001906115dc565b81101561091d57600680546108e2906001906115dc565b815481106108f2576108f26115ef565b906000526020600020015460068281548110610910576109106115ef565b6000918252602090912001555b600680548061092e5761092e611632565b600190038181906000526020600020016000905590557fdba49a0a4b562effcb003d01a00e5ca5805cd756d487003a2b7e46b578d2a5208260405161097591815260200190565b60405180910390a1505050565b60010161088e565b50505b50565b6000546001600160a01b031633146109ba5760405162461bcd60e51b81526004016106a490611605565b60055460ff166109dd57604051630a976e8b60e01b815260040160405180910390fd5b6005805460ff191690556040517f7805862f689e2f13df9f062ff482ad3ad112aca9e0847911ed832e158c525b3390600090a1565b6000546001600160a01b03163314610a3c5760405162461bcd60e51b81526004016106a490611605565b61098a818361115c565b610a4f81610b4c565b5050565b6000546001600160a01b03163314610a7d5760405162461bcd60e51b81526004016106a490611605565b61098d8161126a565b6000546001600160a01b03163314610ab05760405162461bcd60e51b81526004016106a490611605565b60055460ff1615610ad457604051631785c68160e01b815260040160405180910390fd5b6005805460ff191660011790556040517f6985a02210a168e66602d3235cb6db0e70f92b3ba4d376a33c0f3d9434bff62590600090a1565b6000546001600160a01b03163314610b365760405162461bcd60e51b81526004016106a490611605565b61098d816112b3565b600180546103eb9061158c565b60006104f882336104fe565b6000546001600160a01b03163314610b825760405162461bcd60e51b81526004016106a490611605565b600080546040516001600160a01b03808516939216917f342827c97908e5e2f71151c08502a66d44b6f758e3ac2f1de95f02eb95f0a73591a3600080546001600160a01b0319166001600160a01b0392909216919091179055565b6000610beb60055460ff1690565b15610c095760405163ab35696f60e01b815260040160405180910390fd5b610c14338484611055565b610c505760405162461bcd60e51b815260206004820152600d60248201526c1d1c985b9cd9995c8819985a5b609a1b60448201526064016106a4565b336000818152600860205260409020547f6a245a004ad1e70bebe202e61569cda6601ee9390641d85f8aa5d181a01c59ca9060405190815260200160405180910390a26001600160a01b0383166000818152600860205260409020547f6a245a004ad1e70bebe202e61569cda6601ee9390641d85f8aa5d181a01c59ca9060405190815260200160405180910390a250600192915050565b600080546001600160a01b03163314610d135760405162461bcd60e51b81526004016106a490611605565b6104f8823361115c565b919050565b6000546001600160a01b03163314610d4c5760405162461bcd60e51b81526004016106a490611605565b8051602082012060005b600654811015610d91578160068281548110610d7457610d746115ef565b906000526020600020015403610d8957505050565b600101610d56565b50600680546001810182556000919091527ff652222313e28459528d920b65115c16c04f3efc82aaedc97be59f3f377c0d3f018190556040518181527f1062d04c0d5127c8b7b9524a0bdcf0f2e084f303f837483f27cf1222ed907be69060200160405180910390a15050565b6000546001600160a01b03163314610e285760405162461bcd60e51b81526004016106a490611605565b6001600160a01b03811660009081526009602052604090205460ff16610e6157604051630ba55e0f60e41b815260040160405180910390fd5b6001600160a01b03811660009081526008602052604081208054908290556004805491928392610e929084906115dc565b90915550506040516001600160a01b038316907ffc5960f1c5a5d2b60f031bf534af053b1bf7d9881989afaeb8b1d164db23aede90600090a2816001600160a01b03167f1b7e18241beced0d7f41fbab1ea8ed468732edbcb74ec4420151654ca71c8a6382604051610f0691815260200190565b60405180910390a26040518181526000906001600160a01b0384169060008051602061165c8339815191529060200160405180910390a35050565b6001600160a01b03811660009081526009602052604081205460ff166104f8565b600080546001600160a01b03163314610f8d5760405162461bcd60e51b81526004016106a490611605565b610f978483610a12565b836001600160a01b03167ffc8a3f55a6be9efbbc8d960f3e16ad0a0cf120b7d4dbeb8e955b947223adbb84848051906020012084604051610fe2929190918252602082015260400190565b60405180910390a25060019392505050565b6000806110096000546001600160a01b031690565b9050806001600160a01b0316836001600160a01b0316148061103c5750836001600160a01b0316836001600160a01b0316145b1561104b5760019150506104f8565b5060009392505050565b6001600160a01b0383166000908152600860205260408120548211156110b45760405162461bcd60e51b8152602060048201526014602482015273496e73756666696369656e742062616c616e636560601b60448201526064016106a4565b6001600160a01b0384166000908152600860205260409020546110d89083906115dc565b6001600160a01b038086166000908152600860205260408082209390935590851681522054611108908390611648565b6001600160a01b03808516600081815260086020526040908190209390935591519086169060008051602061165c8339815191529061114a9086815260200190565b60405180910390a35060019392505050565b6001600160a01b03811660009081526009602052604081205460ff16156111bc5760405162461bcd60e51b815260206004820152601460248201527336b4b73a2a37a0b2323932b9b990333937bd32b760611b60448201526064016106a4565b82600460008282546111ce9190611648565b90915550506001600160a01b038216600090815260086020526040812080548592906111fb908490611648565b90915550506040518381526001600160a01b038316907ff5c174d57843e57fea3c649fdde37f015ef08750759cbee88060390566a987979060200160405180910390a26040518381526001600160a01b0383169060009060008051602061165c833981519152906020016104ec565b6001600160a01b038116600081815260096020526040808220805460ff19169055517f150465b020dfc06a59269da94ed66db9b65a516cf4fdd5f583b0f12752339bbe9190a250565b6001600160a01b038116600081815260096020526040808220805460ff19166001179055517f1aa660498c83ea285bc55e4cfc00afcaa7120798db87b74f3c0d7c6e001bc3929190a250565b60006020808352835180602085015260005b8181101561132d57858101830151858201604001528201611311565b506000604082860101526040601f19601f8301168501019250505092915050565b80356001600160a01b0381168114610d1d57600080fd5b6000806040838503121561137857600080fd5b6113818361134e565b946020939093013593505050565b600080604083850312156113a257600080fd5b823591506113b26020840161134e565b90509250929050565b6000806000606084860312156113d057600080fd5b6113d98461134e565b92506113e76020850161134e565b9150604084013590509250925092565b634e487b7160e01b600052604160045260246000fd5b600082601f83011261141e57600080fd5b813567ffffffffffffffff80821115611439576114396113f7565b604051601f8301601f19908116603f01168101908282118183101715611461576114616113f7565b8160405283815286602085880101111561147a57600080fd5b836020870160208301376000602085830101528094505050505092915050565b6000806000606084860312156114af57600080fd5b6114b88461134e565b9250602084013567ffffffffffffffff8111156114d457600080fd5b6114e08682870161140d565b925050604084013590509250925092565b60006020828403121561150357600080fd5b813567ffffffffffffffff81111561151a57600080fd5b6115268482850161140d565b949350505050565b60006020828403121561154057600080fd5b5035919050565b60006020828403121561155957600080fd5b6107118261134e565b6000806040838503121561157557600080fd5b61157e8361134e565b91506113b26020840161134e565b600181811c908216806115a057607f821691505b6020821081036115c057634e487b7160e01b600052602260045260246000fd5b50919050565b634e487b7160e01b600052601160045260246000fd5b818103818111156104f8576104f86115c6565b634e487b7160e01b600052603260045260246000fd5b60208082526013908201527221b0b63632b91034b9903737ba1037bbb732b960691b604082015260600190565b634e487b7160e01b600052603160045260246000fd5b808201808211156104f8576104f86115c656feddf252ad1be2c89b69c2b068fc378daa952ba7f163c4a11628f55a4df523b3efa26469706673582212202809fb10f6f7681ec70f9fc2bf42f666b65a0ec180e53e38abd24f676b68b39064736f6c63430008190033",
  "bytecodeSha1": "eb6a0cbea50a0e167e934f99fd45923cdfd0d2c8",
  "compiler": {
    "evm_version": "istanbul",
    "optimizer": {
      "enabled": true,
      "runs": 200
    },
    "version": "0.8.25+commit.b61c2a91"
  },
  "contractName": "regulatedStableCoin",
  "language": "Solidity",
  "natspec": {
    "kind": "dev",
    "methods": {
      "changeOwner(address)": {
        "details": "Change owner",
        "params": {
          "newOwner": "address of new owner"
        }
      },
      "owner()": {
        "details": "Return owner address ",
        "returns": {
          "_0": "address of owner"
        }
      }
    },
    "version": 1
  },
  "opcodes": "PUSH1 0x80 PUSH1 0x40 MSTORE CALLVALUE DUP1 ISZERO PUSH2 0x10 JUMPI PUSH1 0x0 DUP1 REVERT JUMPDEST POP PUSH1 0x4 CALLDATASIZE LT PUSH2 0x1A9 JUMPI PUSH1 0x0 CALLDATALOAD PUSH1 0xE0 SHR DUP1 PUSH4 0x70A08231 GT PUSH2 0xF9 JUMPI DUP1 PUSH4 0xA9059CBB GT PUSH2 0x97 JUMPI DUP1 PUSH4 0xDD62ED3E GT PUSH2 0x71 JUMPI DUP1 PUSH4 0xDD62ED3E EQ PUSH2 0x36C JUMPI DUP1 PUSH4 0xE2F72F03 EQ PUSH2 0x3A5 JUMPI DUP1 PUSH4 0xE5839836 EQ PUSH2 0x3B8 JUMPI DUP1 PUSH4 0xF6CC5C3F EQ PUSH2 0x3CB JUMPI PUSH1 0x0 DUP1 REVERT JUMPDEST DUP1 PUSH4 0xA9059CBB EQ PUSH2 0x333 JUMPI DUP1 PUSH4 0xB921E163 EQ PUSH2 0x346 JUMPI DUP1 PUSH4 0xC12486F5 EQ PUSH2 0x359 JUMPI PUSH1 0x0 DUP1 REVERT JUMPDEST DUP1 PUSH4 0x8DA5CB5B GT PUSH2 0xD3 JUMPI DUP1 PUSH4 0x8DA5CB5B EQ PUSH2 0x2EA JUMPI DUP1 PUSH4 0x95D89B41 EQ PUSH2 0x305 JUMPI DUP1 PUSH4 0x98E52F9A EQ PUSH2 0x30D JUMPI DUP1 PUSH4 0xA6F9DAE1 EQ PUSH2 0x320 JUMPI PUSH1 0x0 DUP1 REVERT JUMPDEST DUP1 PUSH4 0x70A08231 EQ PUSH2 0x2A6 JUMPI DUP1 PUSH4 0x8456CB59 EQ PUSH2 0x2CF JUMPI DUP1 PUSH4 0x8D1FDF2F EQ PUSH2 0x2D7 JUMPI PUSH1 0x0 DUP1 REVERT JUMPDEST DUP1 PUSH4 0x313CE567 GT PUSH2 0x166 JUMPI DUP1 PUSH4 0x40C10F19 GT PUSH2 0x140 JUMPI DUP1 PUSH4 0x40C10F19 EQ PUSH2 0x260 JUMPI DUP1 PUSH4 0x42966C68 EQ PUSH2 0x273 JUMPI DUP1 PUSH4 0x45C8B1A6 EQ PUSH2 0x286 JUMPI DUP1 PUSH4 0x5C975ABB EQ PUSH2 0x299 JUMPI PUSH1 0x0 DUP1 REVERT JUMPDEST DUP1 PUSH4 0x313CE567 EQ PUSH2 0x23A JUMPI DUP1 PUSH4 0x3DAFE12C EQ PUSH2 0x243 JUMPI DUP1 PUSH4 0x3F4BA83A EQ PUSH2 0x258 JUMPI PUSH1 0x0 DUP1 REVERT JUMPDEST DUP1 PUSH4 0x6FDDE03 EQ PUSH2 0x1AE JUMPI DUP1 PUSH4 0x95EA7B3 EQ PUSH2 0x1CC JUMPI DUP1 PUSH4 0x18160DDD EQ PUSH2 0x1EF JUMPI DUP1 PUSH4 0x1F17C083 EQ PUSH2 0x201 JUMPI DUP1 PUSH4 0x23B872DD EQ PUSH2 0x214 JUMPI DUP1 PUSH4 0x2D3F9EB2 EQ PUSH2 0x227 JUMPI JUMPDEST PUSH1 0x0 DUP1 REVERT JUMPDEST PUSH2 0x1B6 PUSH2 0x3DE JUMP JUMPDEST PUSH1 0x40 MLOAD PUSH2 0x1C3 SWAP2 SWAP1 PUSH2 0x12FF JUMP JUMPDEST PUSH1 0x40 MLOAD DUP1 SWAP2 SUB SWAP1 RETURN JUMPDEST PUSH2 0x1DF PUSH2 0x1DA CALLDATASIZE PUSH1 0x4 PUSH2 0x1365 JUMP JUMPDEST PUSH2 0x46C JUMP JUMPDEST PUSH1 0x40 MLOAD SWAP1 ISZERO ISZERO DUP2 MSTORE PUSH1 0x20 ADD PUSH2 0x1C3 JUMP JUMPDEST PUSH1 0x4 SLOAD JUMPDEST PUSH1 0x40 MLOAD SWAP1 DUP2 MSTORE PUSH1 0x20 ADD PUSH2 0x1C3 JUMP JUMPDEST PUSH2 0x1DF PUSH2 0x20F CALLDATASIZE PUSH1 0x4 PUSH2 0x138F JUMP JUMPDEST PUSH2 0x4FE JUMP JUMPDEST PUSH2 0x1DF PUSH2 0x222 CALLDATASIZE PUSH1 0x4 PUSH2 0x13BB JUMP JUMPDEST PUSH2 0x610 JUMP JUMPDEST PUSH2 0x1DF PUSH2 0x235 CALLDATASIZE PUSH1 0x4 PUSH2 0x149A JUMP JUMPDEST PUSH2 0x718 JUMP JUMPDEST PUSH2 0x1F3 PUSH1 0x3 SLOAD DUP2 JUMP JUMPDEST PUSH2 0x256 PUSH2 0x251 CALLDATASIZE PUSH1 0x4 PUSH2 0x14F1 JUMP JUMPDEST PUSH2 0x85A JUMP JUMPDEST STOP JUMPDEST PUSH2 0x256 PUSH2 0x990 JUMP JUMPDEST PUSH2 0x256 PUSH2 0x26E CALLDATASIZE PUSH1 0x4 PUSH2 0x1365 JUMP JUMPDEST PUSH2 0xA12 JUMP JUMPDEST PUSH2 0x256 PUSH2 0x281 CALLDATASIZE PUSH1 0x4 PUSH2 0x152E JUMP JUMPDEST PUSH2 0xA46 JUMP JUMPDEST PUSH2 0x256 PUSH2 0x294 CALLDATASIZE PUSH1 0x4 PUSH2 0x1547 JUMP JUMPDEST PUSH2 0xA53 JUMP JUMPDEST PUSH1 0x5 SLOAD PUSH2 0x1DF SWAP1 PUSH1 0xFF AND DUP2 JUMP JUMPDEST PUSH2 0x1F3 PUSH2 0x2B4 CALLDATASIZE PUSH1 0x4 PUSH2 0x1547 JUMP JUMPDEST PUSH1 0x1 PUSH1 0x1 PUSH1 0xA0 SHL SUB AND PUSH1 0x0 SWAP1 DUP2 MSTORE PUSH1 0x8 PUSH1 0x20 MSTORE PUSH1 0x40 SWAP1 KECCAK256 SLOAD SWAP1 JUMP JUMPDEST PUSH2 0x256 PUSH2 0xA86 JUMP JUMPDEST PUSH2 0x256 PUSH2 0x2E5 CALLDATASIZE PUSH1 0x4 PUSH2 0x1547 JUMP JUMPDEST PUSH2 0xB0C JUMP JUMPDEST PUSH1 0x0 SLOAD PUSH1 0x40 MLOAD PUSH1 0x1 PUSH1 0x1 PUSH1 0xA0 SHL SUB SWAP1 SWAP2 AND DUP2 MSTORE PUSH1 0x20 ADD PUSH2 0x1C3 JUMP JUMPDEST PUSH2 0x1B6 PUSH2 0xB3F JUMP JUMPDEST PUSH2 0x1DF PUSH2 0x31B CALLDATASIZE PUSH1 0x4 PUSH2 0x152E JUMP JUMPDEST PUSH2 0xB4C JUMP JUMPDEST PUSH2 0x256 PUSH2 0x32E CALLDATASIZE PUSH1 0x4 PUSH2 0x1547 JUMP JUMPDEST PUSH2 0xB58 JUMP JUMPDEST PUSH2 0x1DF PUSH2 0x341 CALLDATASIZE PUSH1 0x4 PUSH2 0x1365 JUMP JUMPDEST PUSH2 0xBDD JUMP JUMPDEST PUSH2 0x1DF PUSH2 0x354 CALLDATASIZE PUSH1 0x4 PUSH2 0x152E JUMP JUMPDEST PUSH2 0xCE8 JUMP JUMPDEST PUSH2 0x256 PUSH2 0x367 CALLDATASIZE PUSH1 0x4 PUSH2 0x14F1 JUMP JUMPDEST PUSH2 0xD22 JUMP JUMPDEST PUSH2 0x1F3 PUSH2 0x37A CALLDATASIZE PUSH1 0x4 PUSH2 0x1562 JUMP JUMPDEST PUSH1 0x1 PUSH1 0x1 PUSH1 0xA0 SHL SUB SWAP2 DUP3 AND PUSH1 0x0 SWAP1 DUP2 MSTORE PUSH1 0x7 PUSH1 0x20 SWAP1 DUP2 MSTORE PUSH1 0x40 DUP1 DUP4 KECCAK256 SWAP4 SWAP1 SWAP5 AND DUP3 MSTORE SWAP2 SWAP1 SWAP2 MSTORE KECCAK256 SLOAD SWAP1 JUMP JUMPDEST PUSH2 0x256 PUSH2 0x3B3 CALLDATASIZE PUSH1 0x4 PUSH2 0x1547 JUMP JUMPDEST PUSH2 0xDFE JUMP JUMPDEST PUSH2 0x1DF PUSH2 0x3C6 CALLDATASIZE PUSH1 0x4 PUSH2 0x1547 JUMP JUMPDEST PUSH2 0xF41 JUMP JUMPDEST PUSH2 0x1DF PUSH2 0x3D9 CALLDATASIZE PUSH1 0x4 PUSH2 0x149A JUMP JUMPDEST PUSH2 0xF62 JUMP JUMPDEST PUSH1 0x2 DUP1 SLOAD PUSH2 0x3EB SWAP1 PUSH2 0x158C JUMP JUMPDEST DUP1 PUSH1 0x1F ADD PUSH1 0x20 DUP1 SWAP2 DIV MUL PUSH1 0x20 ADD PUSH1 0x40 MLOAD SWAP1 DUP2 ADD PUSH1 0x40 MSTORE DUP1 SWAP3 SWAP2 SWAP1 DUP2 DUP2 MSTORE PUSH1 0x20 ADD DUP3 DUP1 SLOAD PUSH2 0x417 SWAP1 PUSH2 0x158C JUMP JUMPDEST DUP1 ISZERO PUSH2 0x464 JUMPI DUP1 PUSH1 0x1F LT PUSH2 0x439 JUMPI PUSH2 0x100 DUP1 DUP4 SLOAD DIV MUL DUP4 MSTORE SWAP2 PUSH1 0x20 ADD SWAP2 PUSH2 0x464 JUMP JUMPDEST DUP3 ADD SWAP2 SWAP1 PUSH1 0x0 MSTORE PUSH1 0x20 PUSH1 0x0 KECCAK256 SWAP1 JUMPDEST DUP2 SLOAD DUP2 MSTORE SWAP1 PUSH1 0x1 ADD SWAP1 PUSH1 0x20 ADD DUP1 DUP4 GT PUSH2 0x447 JUMPI DUP3 SWAP1 SUB PUSH1 0x1F AND DUP3 ADD SWAP2 JUMPDEST POP POP POP POP POP DUP2 JUMP JUMPDEST PUSH1 0x0 PUSH2 0x47A PUSH1 0x5 SLOAD PUSH1 0xFF AND SWAP1 JUMP JUMPDEST ISZERO PUSH2 0x498 JUMPI PUSH1 0x40 MLOAD PUSH4 0xAB35696F PUSH1 0xE0 SHL DUP2 MSTORE PUSH1 0x4 ADD PUSH1 0x40 MLOAD DUP1 SWAP2 SUB SWAP1 REVERT JUMPDEST CALLER PUSH1 0x0 DUP2 DUP2 MSTORE PUSH1 0x7 PUSH1 0x20 SWAP1 DUP2 MSTORE PUSH1 0x40 DUP1 DUP4 KECCAK256 PUSH1 0x1 PUSH1 0x1 PUSH1 0xA0 SHL SUB DUP9 AND DUP1 DUP6 MSTORE SWAP1 DUP4 MSTORE SWAP3 DUP2 SWAP1 KECCAK256 DUP7 SWAP1 SSTORE MLOAD DUP6 DUP2 MSTORE SWAP2 SWAP3 SWAP2 PUSH32 0x8C5BE1E5EBEC7D5BD14F71427D1E84F3DD0314C0F7B2291E5B200AC8C7C3B925 SWAP2 ADD JUMPDEST PUSH1 0x40 MLOAD DUP1 SWAP2 SUB SWAP1 LOG3 POP PUSH1 0x1 JUMPDEST SWAP3 SWAP2 POP POP JUMP JUMPDEST PUSH1 0x0 PUSH2 0x50A DUP3 CALLER PUSH2 0xFF4 JUMP JUMPDEST PUSH2 0x527 JUMPI PUSH1 0x40 MLOAD PUSH4 0xCFE5F079 PUSH1 0xE0 SHL DUP2 MSTORE PUSH1 0x4 ADD PUSH1 0x40 MLOAD DUP1 SWAP2 SUB SWAP1 REVERT JUMPDEST PUSH1 0x1 PUSH1 0x1 PUSH1 0xA0 SHL SUB DUP3 AND PUSH1 0x0 SWAP1 DUP2 MSTORE PUSH1 0x8 PUSH1 0x20 MSTORE PUSH1 0x40 SWAP1 KECCAK256 SLOAD DUP4 GT ISZERO PUSH2 0x560 JUMPI PUSH1 0x40 MLOAD PUSH4 0x356680B7 PUSH1 0xE0 SHL DUP2 MSTORE PUSH1 0x4 ADD PUSH1 0x40 MLOAD DUP1 SWAP2 SUB SWAP1 REVERT JUMPDEST PUSH1 0x1 PUSH1 0x1 PUSH1 0xA0 SHL SUB DUP3 AND PUSH1 0x0 SWAP1 DUP2 MSTORE PUSH1 0x8 PUSH1 0x20 MSTORE PUSH1 0x40 DUP2 KECCAK256 DUP1 SLOAD DUP6 SWAP3 SWAP1 PUSH2 0x588 SWAP1 DUP5 SWAP1 PUSH2 0x15DC JUMP JUMPDEST SWAP3 POP POP DUP2 SWAP1 SSTORE POP DUP3 PUSH1 0x4 PUSH1 0x0 DUP3 DUP3 SLOAD PUSH2 0x5A1 SWAP2 SWAP1 PUSH2 0x15DC JUMP JUMPDEST SWAP1 SWAP2 SSTORE POP POP PUSH1 0x40 MLOAD DUP4 DUP2 MSTORE PUSH1 0x1 PUSH1 0x1 PUSH1 0xA0 SHL SUB DUP4 AND SWAP1 PUSH32 0x1B7E18241BECED0D7F41FBAB1EA8ED468732EDBCB74EC4420151654CA71C8A63 SWAP1 PUSH1 0x20 ADD PUSH1 0x40 MLOAD DUP1 SWAP2 SUB SWAP1 LOG2 PUSH1 0x40 MLOAD DUP4 DUP2 MSTORE PUSH1 0x0 SWAP1 PUSH1 0x1 PUSH1 0x1 PUSH1 0xA0 SHL SUB DUP5 AND SWAP1 PUSH1 0x0 DUP1 MLOAD PUSH1 0x20 PUSH2 0x165C DUP4 CODECOPY DUP2 MLOAD SWAP2 MSTORE SWAP1 PUSH1 0x20 ADD PUSH2 0x4EC JUMP JUMPDEST PUSH1 0x0 PUSH2 0x61E PUSH1 0x5 SLOAD PUSH1 0xFF AND SWAP1 JUMP JUMPDEST ISZERO PUSH2 0x63C JUMPI PUSH1 0x40 MLOAD PUSH4 0xAB35696F PUSH1 0xE0 SHL DUP2 MSTORE PUSH1 0x4 ADD PUSH1 0x40 MLOAD DUP1 SWAP2 SUB SWAP1 REVERT JUMPDEST PUSH1 0x1 PUSH1 0x1 PUSH1 0xA0 SHL SUB DUP5 AND PUSH1 0x0 SWAP1 DUP2 MSTORE PUSH1 0x7 PUSH1 0x20 SWAP1 DUP2 MSTORE PUSH1 0x40 DUP1 DUP4 KECCAK256 CALLER DUP5 MSTORE SWAP1 SWAP2 MSTORE SWAP1 KECCAK256 SLOAD DUP3 GT ISZERO PUSH2 0x6AD JUMPI PUSH1 0x40 MLOAD PUSH3 0x461BCD PUSH1 0xE5 SHL DUP2 MSTORE PUSH1 0x20 PUSH1 0x4 DUP3 ADD MSTORE PUSH1 0x16 PUSH1 0x24 DUP3 ADD MSTORE PUSH22 0x496E73756666696369656E7420616C6C6F77616E6365 PUSH1 0x50 SHL PUSH1 0x44 DUP3 ADD MSTORE PUSH1 0x64 ADD JUMPDEST PUSH1 0x40 MLOAD DUP1 SWAP2 SUB SWAP1 REVERT JUMPDEST PUSH1 0x1 PUSH1 0x1 PUSH1 0xA0 SHL SUB DUP5 AND PUSH1 0x0 SWAP1 DUP2 MSTORE PUSH1 0x7 PUSH1 0x20 SWAP1 DUP2 MSTORE PUSH1 0x40 DUP1 DUP4 KECCAK256 CALLER DUP5 MSTORE SWAP1 SWAP2 MSTORE SWAP1 KECCAK256 SLOAD PUSH2 0x6DC SWAP1 DUP4 SWAP1 PUSH2 0x15DC JUMP JUMPDEST PUSH1 0x1 PUSH1 0x1 PUSH1 0xA0 SHL SUB DUP6 AND PUSH1 0x0 SWAP1 DUP2 MSTORE PUSH1 0x7 PUSH1 0x20 SWAP1 DUP2 MSTORE PUSH1 0x40 DUP1 DUP4 KECCAK256 CALLER DUP5 MSTORE SWAP1 SWAP2 MSTORE SWAP1 KECCAK256 SSTORE PUSH2 0x70B DUP5 DUP5 DUP5 PUSH2 0x1055 JUMP JUMPDEST POP PUSH1 0x1 SWAP1 POP JUMPDEST SWAP4 SWAP3 POP POP POP JUMP JUMPDEST PUSH1 0x0 PUSH2 0x726 PUSH1 0x5 SLOAD PUSH1 0xFF AND SWAP1 JUMP JUMPDEST ISZERO PUSH2 0x744 JUMPI PUSH1 0x40 MLOAD PUSH4 0xAB35696F PUSH1 0xE0 SHL DUP2 MSTORE PUSH1 0x4 ADD PUSH1 0x40 MLOAD DUP1 SWAP2 SUB SWAP1 REVERT JUMPDEST DUP3 MLOAD PUSH1 0x20 DUP5 ADD KECCAK256 PUSH1 0x0 JUMPDEST PUSH1 0x6 SLOAD DUP2 LT ISZERO PUSH2 0x840 JUMPI DUP2 PUSH1 0x6 DUP3 DUP2 SLOAD DUP2 LT PUSH2 0x76C JUMPI PUSH2 0x76C PUSH2 0x15EF JUMP JUMPDEST SWAP1 PUSH1 0x0 MSTORE PUSH1 0x20 PUSH1 0x0 KECCAK256 ADD SLOAD SUB PUSH2 0x838 JUMPI PUSH2 0x786 DUP5 CALLER PUSH2 0x4FE JUMP JUMPDEST PUSH2 0x7E9 JUMPI PUSH1 0x40 MLOAD PUSH3 0x461BCD PUSH1 0xE5 SHL DUP2 MSTORE PUSH1 0x20 PUSH1 0x4 DUP3 ADD MSTORE PUSH1 0x2E PUSH1 0x24 DUP3 ADD MSTORE PUSH32 0x7472616E73666572427269646765206465637265617365537570706C7946726F PUSH1 0x44 DUP3 ADD MSTORE PUSH14 0x36A0B2323932B9B99032B93937B9 PUSH1 0x91 SHL PUSH1 0x64 DUP3 ADD MSTORE PUSH1 0x84 ADD PUSH2 0x6A4 JUMP JUMPDEST PUSH1 0x40 DUP1 MLOAD DUP4 DUP2 MSTORE PUSH1 0x20 DUP2 ADD DUP7 SWAP1 MSTORE PUSH1 0x1 PUSH1 0x1 PUSH1 0xA0 SHL SUB DUP9 AND SWAP2 PUSH32 0xC4EFB29897FA00C50ED53400EE7385DF2D32C665F1885235AAED0495E76FEA67 SWAP2 ADD PUSH1 0x40 MLOAD DUP1 SWAP2 SUB SWAP1 LOG2 PUSH1 0x1 SWAP3 POP POP POP PUSH2 0x711 JUMP JUMPDEST PUSH1 0x1 ADD PUSH2 0x74E JUMP JUMPDEST POP PUSH1 0x40 MLOAD PUSH4 0x31F0D029 PUSH1 0xE1 SHL DUP2 MSTORE PUSH1 0x4 ADD PUSH1 0x40 MLOAD DUP1 SWAP2 SUB SWAP1 REVERT JUMPDEST PUSH1 0x0 SLOAD PUSH1 0x1 PUSH1 0x1 PUSH1 0xA0 SHL SUB AND CALLER EQ PUSH2 0x884 JUMPI PUSH1 0x40 MLOAD PUSH3 0x461BCD PUSH1 0xE5 SHL DUP2 MSTORE PUSH1 0x4 ADD PUSH2 0x6A4 SWAP1 PUSH2 0x1605 JUMP JUMPDEST DUP1 MLOAD PUSH1 0x20 DUP3 ADD KECCAK256 PUSH1 0x0 JUMPDEST PUSH1 0x6 SLOAD DUP2 LT ISZERO PUSH2 0x98A JUMPI DUP2 PUSH1 0x6 DUP3 DUP2 SLOAD DUP2 LT PUSH2 0x8AC JUMPI PUSH2 0x8AC PUSH2 0x15EF JUMP JUMPDEST SWAP1 PUSH1 0x0 MSTORE PUSH1 0x20 PUSH1 0x0 KECCAK256 ADD SLOAD SUB PUSH2 0x982 JUMPI PUSH1 0x6 SLOAD PUSH2 0x8CB SWAP1 PUSH1 0x1 SWAP1 PUSH2 0x15DC JUMP JUMPDEST DUP2 LT ISZERO PUSH2 0x91D JUMPI PUSH1 0x6 DUP1 SLOAD PUSH2 0x8E2 SWAP1 PUSH1 0x1 SWAP1 PUSH2 0x15DC JUMP JUMPDEST DUP2 SLOAD DUP2 LT PUSH2 0x8F2 JUMPI PUSH2 0x8F2 PUSH2 0x15EF JUMP JUMPDEST SWAP1 PUSH1 0x0 MSTORE PUSH1 0x20 PUSH1 0x0 KECCAK256 ADD SLOAD PUSH1 0x6 DUP3 DUP2 SLOAD DUP2 LT PUSH2 0x910 JUMPI PUSH2 0x910 PUSH2 0x15EF JUMP JUMPDEST PUSH1 0x0 SWAP2 DUP3 MSTORE PUSH1 0x20 SWAP1 SWAP2 KECCAK256 ADD SSTORE JUMPDEST PUSH1 0x6 DUP1 SLOAD DUP1 PUSH2 0x92E JUMPI PUSH2 0x92E PUSH2 0x1632 JUMP JUMPDEST PUSH1 0x1 SWAP1 SUB DUP2 DUP2 SWAP1 PUSH1 0x0 MSTORE PUSH1 0x20 PUSH1 0x0 KECCAK256 ADD PUSH1 0x0 SWAP1 SSTORE SWAP1 SSTORE PUSH32 0xDBA49A0A4B562EFFCB003D01A00E5CA5805CD756D487003A2B7E46B578D2A520 DUP3 PUSH1 0x40 MLOAD PUSH2 0x975 SWAP2 DUP2 MSTORE PUSH1 0x20 ADD SWAP1 JUMP JUMPDEST PUSH1 0x40 MLOAD DUP1 SWAP2 SUB SWAP1 LOG1 POP POP POP JUMP JUMPDEST PUSH1 0x1 ADD PUSH2 0x88E JUMP JUMPDEST POP POP JUMPDEST POP JUMP JUMPDEST PUSH1 0x0 SLOAD PUSH1 0x1 PUSH1 0x1 PUSH1 0xA0 SHL SUB AND CALLER EQ PUSH2 0x9BA JUMPI PUSH1 0x40 MLOAD PUSH3 0x461BCD PUSH1 0xE5 SHL DUP2 MSTORE PUSH1 0x4 ADD PUSH2 0x6A4 SWAP1 PUSH2 0x1605 JUMP JUMPDEST PUSH1 0x5 SLOAD PUSH1 0xFF AND PUSH2 0x9DD JUMPI PUSH1 0x40 MLOAD PUSH4 0xA976E8B PUSH1 0xE0 SHL DUP2 MSTORE PUSH1 0x4 ADD PUSH1 0x40 MLOAD DUP1 SWAP2 SUB SWAP1 REVERT JUMPDEST PUSH1 0x5 DUP1 SLOAD PUSH1 0xFF NOT AND SWAP1 SSTORE PUSH1 0x40 MLOAD PUSH32 0x7805862F689E2F13DF9F062FF482AD3AD112ACA9E0847911ED832E158C525B33 SWAP1 PUSH1 0x0 SWAP1 LOG1 JUMP JUMPDEST PUSH1 0x0 SLOAD PUSH1 0x1 PUSH1 0x1 PUSH1 0xA0 SHL SUB AND CALLER EQ PUSH2 0xA3C JUMPI PUSH1 0x40 MLOAD PUSH3 0x461BCD PUSH1 0xE5 SHL DUP2 MSTORE PUSH1 0x4 ADD PUSH2 0x6A4 SWAP1 PUSH2 0x1605 JUMP JUMPDEST PUSH2 0x98A DUP2 DUP4 PUSH2 0x115C JUMP JUMPDEST PUSH2 0xA4F DUP2 PUSH2 0xB4C JUMP JUMPDEST POP POP JUMP JUMPDEST PUSH1 0x0 SLOAD PUSH1 0x1 PUSH1 0x1 PUSH1 0xA0 SHL SUB AND CALLER EQ PUSH2 0xA7D JUMPI PUSH1 0x40 MLOAD PUSH3 0x461BCD PUSH1 0xE5 SHL DUP2 MSTORE PUSH1 0x4 ADD PUSH2 0x6A4 SWAP1 PUSH2 0x1605 JUMP JUMPDEST PUSH2 0x98D DUP2 PUSH2 0x126A JUMP JUMPDEST PUSH1 0x0 SLOAD PUSH1 0x1 PUSH1 0x1 PUSH1 0xA0 SHL SUB AND CALLER EQ PUSH2 0xAB0 JUMPI PUSH1 0x40 MLOAD PUSH3 0x461BCD PUSH1 0xE5 SHL DUP2 MSTORE PUSH1 0x4 ADD PUSH2 0x6A4 SWAP1 PUSH2 0x1605 JUMP JUMPDEST PUSH1 0x5 SLOAD PUSH1 0xFF AND ISZERO PUSH2 0xAD4 JUMPI PUSH1 0x40 MLOAD PUSH4 0x1785C681 PUSH1 0xE0 SHL DUP2 MSTORE PUSH1 0x4 ADD PUSH1 0x40 MLOAD DUP1 SWAP2 SUB SWAP1 REVERT JUMPDEST PUSH1 0x5 DUP1 SLOAD PUSH1 0xFF NOT AND PUSH1 0x1 OR SWAP1 SSTORE PUSH1 0x40 MLOAD PUSH32 0x6985A02210A168E66602D3235CB6DB0E70F92B3BA4D376A33C0F3D9434BFF625 SWAP1 PUSH1 0x0 SWAP1 LOG1 JUMP JUMPDEST PUSH1 0x0 SLOAD PUSH1 0x1 PUSH1 0x1 PUSH1 0xA0 SHL SUB AND CALLER EQ PUSH2 0xB36 JUMPI PUSH1 0x40 MLOAD PUSH3 0x461BCD PUSH1 0xE5 SHL DUP2 MSTORE PUSH1 0x4 ADD PUSH2 0x6A4 SWAP1 PUSH2 0x1605 JUMP JUMPDEST PUSH2 0x98D DUP2 PUSH2 0x12B3 JUMP JUMPDEST PUSH1 0x1 DUP1 SLOAD PUSH2 0x3EB SWAP1 PUSH2 0x158C JUMP JUMPDEST PUSH1 0x0 PUSH2 0x4F8 DUP3 CALLER PUSH2 0x4FE JUMP JUMPDEST PUSH1 0x0 SLOAD PUSH1 0x1 PUSH1 0x1 PUSH1 0xA0 SHL SUB AND CALLER EQ PUSH2 0xB82 JUMPI PUSH1 0x40 MLOAD PUSH3 0x461BCD PUSH1 0xE5 SHL DUP2 MSTORE PUSH1 0x4 ADD PUSH2 0x6A4 SWAP1 PUSH2 0x1605 JUMP JUMPDEST PUSH1 0x0 DUP1 SLOAD PUSH1 0x40 MLOAD PUSH1 0x1 PUSH1 0x1 PUSH1 0xA0 SHL SUB DUP1 DUP6 AND SWAP4 SWAP3 AND SWAP2 PUSH32 0x342827C97908E5E2F71151C08502A66D44B6F758E3AC2F1DE95F02EB95F0A735 SWAP2 LOG3 PUSH1 0x0 DUP1 SLOAD PUSH1 0x1 PUSH1 0x1 PUSH1 0xA0 SHL SUB NOT AND PUSH1 0x1 PUSH1 0x1 PUSH1 0xA0 SHL SUB SWAP3 SWAP1 SWAP3 AND SWAP2 SWAP1 SWAP2 OR SWAP1 SSTORE JUMP JUMPDEST PUSH1 0x0 PUSH2 0xBEB PUSH1 0x5 SLOAD PUSH1 0xFF AND SWAP1 JUMP JUMPDEST ISZERO PUSH2 0xC09 JUMPI PUSH1 0x40 MLOAD PUSH4 0xAB35696F PUSH1 0xE0 SHL DUP2 MSTORE PUSH1 0x4 ADD PUSH1 0x40 MLOAD DUP1 SWAP2 SUB SWAP1 REVERT JUMPDEST PUSH2 0xC14 CALLER DUP5 DUP5 PUSH2 0x1055 JUMP JUMPDEST PUSH2 0xC50 JUMPI PUSH1 0x40 MLOAD PUSH3 0x461BCD PUSH1 0xE5 SHL DUP2 MSTORE PUSH1 0x20 PUSH1 0x4 DUP3 ADD MSTORE PUSH1 0xD PUSH1 0x24 DUP3 ADD MSTORE PUSH13 0x1D1C985B9CD9995C8819985A5B PUSH1 0x9A SHL PUSH1 0x44 DUP3 ADD MSTORE PUSH1 0x64 ADD PUSH2 0x6A4 JUMP JUMPDEST CALLER PUSH1 0x0 DUP2 DUP2 MSTORE PUSH1 0x8 PUSH1 0x20 MSTORE PUSH1 0x40 SWAP1 KECCAK256 SLOAD PUSH32 0x6A245A004AD1E70BEBE202E61569CDA6601EE9390641D85F8AA5D181A01C59CA SWAP1 PUSH1 0x40 MLOAD SWAP1 DUP2 MSTORE PUSH1 0x20 ADD PUSH1 0x40 MLOAD DUP1 SWAP2 SUB SWAP1 LOG2 PUSH1 0x1 PUSH1 0x1 PUSH1 0xA0 SHL SUB DUP4 AND PUSH1 0x0 DUP2 DUP2 MSTORE PUSH1 0x8 PUSH1 0x20 MSTORE PUSH1 0x40 SWAP1 KECCAK256 SLOAD PUSH32 0x6A245A004AD1E70BEBE202E61569CDA6601EE9390641D85F8AA5D181A01C59CA SWAP1 PUSH1 0x40 MLOAD SWAP1 DUP2 MSTORE PUSH1 0x20 ADD PUSH1 0x40 MLOAD DUP1 SWAP2 SUB SWAP1 LOG2 POP PUSH1 0x1 SWAP3 SWAP2 POP POP JUMP JUMPDEST PUSH1 0x0 DUP1 SLOAD PUSH1 0x1 PUSH1 0x1 PUSH1 0xA0 SHL SUB AND CALLER EQ PUSH2 0xD13 JUMPI PUSH1 0x40 MLOAD PUSH3 0x461BCD PUSH1 0xE5 SHL DUP2 MSTORE PUSH1 0x4 ADD PUSH2 0x6A4 SWAP1 PUSH2 0x1605 JUMP JUMPDEST PUSH2 0x4F8 DUP3 CALLER PUSH2 0x115C JUMP JUMPDEST SWAP2 SWAP1 POP JUMP JUMPDEST PUSH1 0x0 SLOAD PUSH1 0x1 PUSH1 0x1 PUSH1 0xA0 SHL SUB AND CALLER EQ PUSH2 0xD4C JUMPI PUSH1 0x40 MLOAD PUSH3 0x461BCD PUSH1 0xE5 SHL DUP2 MSTORE PUSH1 0x4 ADD PUSH2 0x6A4 SWAP1 PUSH2 0x1605 JUMP JUMPDEST DUP1 MLOAD PUSH1 0x20 DUP3 ADD KECCAK256 PUSH1 0x0 JUMPDEST PUSH1 0x6 SLOAD DUP2 LT ISZERO PUSH2 0xD91 JUMPI DUP2 PUSH1 0x6 DUP3 DUP2 SLOAD DUP2 LT PUSH2 0xD74 JUMPI PUSH2 0xD74 PUSH2 0x15EF JUMP JUMPDEST SWAP1 PUSH1 0x0 MSTORE PUSH1 0x20 PUSH1 0x0 KECCAK256 ADD SLOAD SUB PUSH2 0xD89 JUMPI POP POP POP JUMP JUMPDEST PUSH1 0x1 ADD PUSH2 0xD56 JUMP JUMPDEST POP PUSH1 0x6 DUP1 SLOAD PUSH1 0x1 DUP2 ADD DUP3 SSTORE PUSH1 0x0 SWAP2 SWAP1 SWAP2 MSTORE PUSH32 0xF652222313E28459528D920B65115C16C04F3EFC82AAEDC97BE59F3F377C0D3F ADD DUP2 SWAP1 SSTORE PUSH1 0x40 MLOAD DUP2 DUP2 MSTORE PUSH32 0x1062D04C0D5127C8B7B9524A0BDCF0F2E084F303F837483F27CF1222ED907BE6 SWAP1 PUSH1 0x20 ADD PUSH1 0x40 MLOAD DUP1 SWAP2 SUB SWAP1 LOG1 POP POP JUMP JUMPDEST PUSH1 0x0 SLOAD PUSH1 0x1 PUSH1 0x1 PUSH1 0xA0 SHL SUB AND CALLER EQ PUSH2 0xE28 JUMPI PUSH1 0x40 MLOAD PUSH3 0x461BCD PUSH1 0xE5 SHL DUP2 MSTORE PUSH1 0x4 ADD PUSH2 0x6A4 SWAP1 PUSH2 0x1605 JUMP JUMPDEST PUSH1 0x1 PUSH1 0x1 PUSH1 0xA0 SHL SUB DUP2 AND PUSH1 0x0 SWAP1 DUP2 MSTORE PUSH1 0x9 PUSH1 0x20 MSTORE PUSH1 0x40 SWAP1 KECCAK256 SLOAD PUSH1 0xFF AND PUSH2 0xE61 JUMPI PUSH1 0x40 MLOAD PUSH4 0xBA55E0F PUSH1 0xE4 SHL DUP2 MSTORE PUSH1 0x4 ADD PUSH1 0x40 MLOAD DUP1 SWAP2 SUB SWAP1 REVERT JUMPDEST PUSH1 0x1 PUSH1 0x1 PUSH1 0xA0 SHL SUB DUP2 AND PUSH1 0x0 SWAP1 DUP2 MSTORE PUSH1 0x8 PUSH1 0x20 MSTORE PUSH1 0x40 DUP2 KECCAK256 DUP1 SLOAD SWAP1 DUP3 SWAP1 SSTORE PUSH1 0x4 DUP1 SLOAD SWAP2 SWAP3 DUP4 SWAP3 PUSH2 0xE92 SWAP1 DUP5 SWAP1 PUSH2 0x15DC JUMP JUMPDEST SWAP1 SWAP2 SSTORE POP POP PUSH1 0x40 MLOAD PUSH1 0x1 PUSH1 0x1 PUSH1 0xA0 SHL SUB DUP4 AND SWAP1 PUSH32 0xFC5960F1C5A5D2B60F031BF534AF053B1BF7D9881989AFAEB8B1D164DB23AEDE SWAP1 PUSH1 0x0 SWAP1 LOG2 DUP2 PUSH1 0x1 PUSH1 0x1 PUSH1 0xA0 SHL SUB AND PUSH32 0x1B7E18241BECED0D7F41FBAB1EA8ED468732EDBCB74EC4420151654CA71C8A63 DUP3 PUSH1 0x40 MLOAD PUSH2 0xF06 SWAP2 DUP2 MSTORE PUSH1 0x20 ADD SWAP1 JUMP JUMPDEST PUSH1 0x40 MLOAD DUP1 SWAP2 SUB SWAP1 LOG2 PUSH1 0x40 MLOAD DUP2 DUP2 MSTORE PUSH1 0x0 SWAP1 PUSH1 0x1 PUSH1 0x1 PUSH1 0xA0 SHL SUB DUP5 AND SWAP1 PUSH1 0x0 DUP1 MLOAD PUSH1 0x20 PUSH2 0x165C DUP4 CODECOPY DUP2 MLOAD SWAP2 MSTORE SWAP1 PUSH1 0x20 ADD PUSH1 0x40 MLOAD DUP1 SWAP2 SUB SWAP1 LOG3 POP POP JUMP JUMPDEST PUSH1 0x1 PUSH1 0x1 PUSH1 0xA0 SHL SUB DUP2 AND PUSH1 0x0 SWAP1 DUP2 MSTORE PUSH1 0x9 PUSH1 0x20 MSTORE PUSH1 0x40 DUP2 KECCAK256 SLOAD PUSH1 0xFF AND PUSH2 0x4F8 JUMP JUMPDEST PUSH1 0x0 DUP1 SLOAD PUSH1 0x1 PUSH1 0x1 PUSH1 0xA0 SHL SUB AND CALLER EQ PUSH2 0xF8D JUMPI PUSH1 0x40 MLOAD PUSH3 0x461BCD PUSH1 0xE5 SHL DUP2 MSTORE PUSH1 0x4 ADD PUSH2 0x6A4 SWAP1 PUSH2 0x1605 JUMP JUMPDEST PUSH2 0xF97 DUP5 DUP4 PUSH2 0xA12 JUMP JUMPDEST DUP4 PUSH1 0x1 PUSH1 0x1 PUSH1 0xA0 SHL SUB AND PUSH32 0xFC8A3F55A6BE9EFBBC8D960F3E16AD0A0CF120B7D4DBEB8E955B947223ADBB84 DUP5 DUP1 MLOAD SWAP1 PUSH1 0x20 ADD KECCAK256 DUP5 PUSH1 0x40 MLOAD PUSH2 0xFE2 SWAP3 SWAP2 SWAP1 SWAP2 DUP3 MSTORE PUSH1 0x20 DUP3 ADD MSTORE PUSH1 0x40 ADD SWAP1 JUMP JUMPDEST PUSH1 0x40 MLOAD DUP1 SWAP2 SUB SWAP1 LOG2 POP PUSH1 0x1 SWAP4 SWAP3 POP POP POP JUMP JUMPDEST PUSH1 0x0 DUP1 PUSH2 0x1009 PUSH1 0x0 SLOAD PUSH1 0x1 PUSH1 0x1 PUSH1 0xA0 SHL SUB AND SWAP1 JUMP JUMPDEST SWAP1 POP DUP1 PUSH1 0x1 PUSH1 0x1 PUSH1 0xA0 SHL SUB AND DUP4 PUSH1 0x1 PUSH1 0x1 PUSH1 0xA0 SHL SUB AND EQ DUP1 PUSH2 0x103C JUMPI POP DUP4 PUSH1 0x1 PUSH1 0x1 PUSH1 0xA0 SHL SUB AND DUP4 PUSH1 0x1 PUSH1 0x1 PUSH1 0xA0 SHL SUB AND EQ JUMPDEST ISZERO PUSH2 0x104B JUMPI PUSH1 0x1 SWAP2 POP POP PUSH2 0x4F8 JUMP JUMPDEST POP PUSH1 0x0 SWAP4 SWAP3 POP POP POP JUMP JUMPDEST PUSH1 0x1 PUSH1 0x1 PUSH1 0xA0 SHL SUB DUP4 AND PUSH1 0x0 SWAP1 DUP2 MSTORE PUSH1 0x8 PUSH1 0x20 MSTORE PUSH1 0x40 DUP2 KECCAK256 SLOAD DUP3 GT ISZERO PUSH2 0x10B4 JUMPI PUSH1 0x40 MLOAD PUSH3 0x461BCD PUSH1 0xE5 SHL DUP2 MSTORE PUSH1 0x20 PUSH1 0x4 DUP3 ADD MSTORE PUSH1 0x14 PUSH1 0x24 DUP3 ADD MSTORE PUSH20 0x496E73756666696369656E742062616C616E6365 PUSH1 0x60 SHL PUSH1 0x44 DUP3 ADD MSTORE PUSH1 0x64 ADD PUSH2 0x6A4 JUMP JUMPDEST PUSH1 0x1 PUSH1 0x1 PUSH1 0xA0 SHL SUB DUP5 AND PUSH1 0x0 SWAP1 DUP2 MSTORE PUSH1 0x8 PUSH1 0x20 MSTORE PUSH1 0x40 SWAP1 KECCAK256 SLOAD PUSH2 0x10D8 SWAP1 DUP4 SWAP1 PUSH2 0x15DC JUMP JUMPDEST PUSH1 0x1 PUSH1 0x1 PUSH1 0xA0 SHL SUB DUP1 DUP7 AND PUSH1 0x0 SWAP1 DUP2 MSTORE PUSH1 0x8 PUSH1 0x20 MSTORE PUSH1 0x40 DUP1 DUP3 KECCAK256 SWAP4 SWAP1 SWAP4 SSTORE SWAP1 DUP6 AND DUP2 MSTORE KECCAK256 SLOAD PUSH2 0x1108 SWAP1 DUP4 SWAP1 PUSH2 0x1648 JUMP JUMPDEST PUSH1 0x1 PUSH1 0x1 PUSH1 0xA0 SHL SUB DUP1 DUP6 AND PUSH1 0x0 DUP2 DUP2 MSTORE PUSH1 0x8 PUSH1 0x20 MSTORE PUSH1 0x40 SWAP1 DUP2 SWAP1 KECCAK256 SWAP4 SWAP1 SWAP4 SSTORE SWAP2 MLOAD SWAP1 DUP7 AND SWAP1 PUSH1 0x0 DUP1 MLOAD PUSH1 0x20 PUSH2 0x165C DUP4 CODECOPY DUP2 MLOAD SWAP2 MSTORE SWAP1 PUSH2 0x114A SWAP1 DUP7 DUP2 MSTORE PUSH1 0x20 ADD SWAP1 JUMP JUMPDEST PUSH1 0x40 MLOAD DUP1 SWAP2 SUB SWAP1 LOG3 POP PUSH1 0x1 SWAP4 SWAP3 POP POP POP JUMP JUMPDEST PUSH1 0x1 PUSH1 0x1 PUSH1 0xA0 SHL SUB DUP2 AND PUSH1 0x0 SWAP1 DUP2 MSTORE PUSH1 0x9 PUSH1 0x20 MSTORE PUSH1 0x40 DUP2 KECCAK256 SLOAD PUSH1 0xFF AND ISZERO PUSH2 0x11BC JUMPI PUSH1 0x40 MLOAD PUSH3 0x461BCD PUSH1 0xE5 SHL DUP2 MSTORE PUSH1 0x20 PUSH1 0x4 DUP3 ADD MSTORE PUSH1 0x14 PUSH1 0x24 DUP3 ADD MSTORE PUSH20 0x36B4B73A2A37A0B2323932B9B990333937BD32B7 PUSH1 0x61 SHL PUSH1 0x44 DUP3 ADD MSTORE PUSH1 0x64 ADD PUSH2 0x6A4 JUMP JUMPDEST DUP3 PUSH1 0x4 PUSH1 0x0 DUP3 DUP3 SLOAD PUSH2 0x11CE SWAP2 SWAP1 PUSH2 0x1648 JUMP JUMPDEST SWAP1 SWAP2 SSTORE POP POP PUSH1 0x1 PUSH1 0x1 PUSH1 0xA0 SHL SUB DUP3 AND PUSH1 0x0 SWAP1 DUP2 MSTORE PUSH1 0x8 PUSH1 0x20 MSTORE PUSH1 0x40 DUP2 KECCAK256 DUP1 SLOAD DUP6 SWAP3 SWAP1 PUSH2 0x11FB SWAP1 DUP5 SWAP1 PUSH2 0x1648 JUMP JUMPDEST SWAP1 SWAP2 SSTORE POP POP PUSH1 0x40 MLOAD DUP4 DUP2 MSTORE PUSH1 0x1 PUSH1 0x1 PUSH1 0xA0 SHL SUB DUP4 AND SWAP1 PUSH32 0xF5C174D57843E57FEA3C649FDDE37F015EF08750759CBEE88060390566A98797 SWAP1 PUSH1 0x20 ADD PUSH1 0x40 MLOAD DUP1 SWAP2 SUB SWAP1 LOG2 PUSH1 0x40 MLOAD DUP4 DUP2 MSTORE PUSH1 0x1 PUSH1 0x1 PUSH1 0xA0 SHL SUB DUP4 AND SWAP1 PUSH1 0x0 SWAP1 PUSH1 0x0 DUP1 MLOAD PUSH1 0x20 PUSH2 0x165C DUP4 CODECOPY DUP2 MLOAD SWAP2 MSTORE SWAP1 PUSH1 0x20 ADD PUSH2 0x4EC JUMP JUMPDEST PUSH1 0x1 PUSH1 0x1 PUSH1 0xA0 SHL SUB DUP2 AND PUSH1 0x0 DUP2 DUP2 MSTORE PUSH1 0x9 PUSH1 0x20 MSTORE PUSH1 0x40 DUP1 DUP3 KECCAK256 DUP1 SLOAD PUSH1 0xFF NOT AND SWAP1 SSTORE MLOAD PUSH32 0x150465B020DFC06A59269DA94ED66DB9B65A516CF4FDD5F583B0F12752339BBE SWAP2 SWAP1 LOG2 POP JUMP JUMPDEST PUSH1 0x1 PUSH1 0x1 PUSH1 0xA0 SHL SUB DUP2 AND PUSH1 0x0 DUP2 DUP2 MSTORE PUSH1 0x9 PUSH1 0x20 MSTORE PUSH1 0x40 DUP1 DUP3 KECCAK256 DUP1 SLOAD PUSH1 0xFF NOT AND PUSH1 0x1 OR SWAP1 SSTORE MLOAD PUSH32 0x1AA660498C83EA285BC55E4CFC00AFCAA7120798DB87B74F3C0D7C6E001BC392 SWAP2 SWAP1 LOG2 POP JUMP JUMPDEST PUSH1 0x0 PUSH1 0x20 DUP1 DUP4 MSTORE DUP4 MLOAD DUP1 PUSH1 0x20 DUP6 ADD MSTORE PUSH1 0x0 JUMPDEST DUP2 DUP2 LT ISZERO PUSH2 0x132D JUMPI DUP6 DUP2 ADD DUP4 ADD MLOAD DUP6 DUP3 ADD PUSH1 0x40 ADD MSTORE DUP3 ADD PUSH2 0x1311 JUMP JUMPDEST POP PUSH1 0x0 PUSH1 0x40 DUP3 DUP7 ADD ADD MSTORE PUSH1 0x40 PUSH1 0x1F NOT PUSH1 0x1F DUP4 ADD AND DUP6 ADD ADD SWAP3 POP POP POP SWAP3 SWAP2 POP POP JUMP JUMPDEST DUP1 CALLDATALOAD PUSH1 0x1 PUSH1 0x1 PUSH1 0xA0 SHL SUB DUP2 AND DUP2 EQ PUSH2 0xD1D JUMPI PUSH1 0x0 DUP1 REVERT JUMPDEST PUSH1 0x0 DUP1 PUSH1 0x40 DUP4 DUP6 SUB SLT ISZERO PUSH2 0x1378 JUMPI PUSH1 0x0 DUP1 REVERT JUMPDEST PUSH2 0x1381 DUP4 PUSH2 0x134E JUMP JUMPDEST SWAP5 PUSH1 0x20 SWAP4 SWAP1 SWAP4 ADD CALLDATALOAD SWAP4 POP POP POP JUMP JUMPDEST PUSH1 0x0 DUP1 PUSH1 0x40 DUP4 DUP6 SUB SLT ISZERO PUSH2 0x13A2 JUMPI PUSH1 0x0 DUP1 REVERT JUMPDEST DUP3 CALLDATALOAD SWAP2 POP PUSH2 0x13B2 PUSH1 0x20 DUP5 ADD PUSH2 0x134E JUMP JUMPDEST SWAP1 POP SWAP3 POP SWAP3 SWAP1 POP JUMP JUMPDEST PUSH1 0x0 DUP1 PUSH1 0x0 PUSH1 0x60 DUP5 DUP7 SUB SLT ISZERO PUSH2 0x13D0 JUMPI PUSH1 0x0 DUP1 REVERT JUMPDEST PUSH2 0x13D9 DUP5 PUSH2 0x134E JUMP JUMPDEST SWAP3 POP PUSH2 0x13E7 PUSH1 0x20 DUP6 ADD PUSH2 0x134E JUMP JUMPDEST SWAP2 POP PUSH1 0x40 DUP5 ADD CALLDATALOAD SWAP1 POP SWAP3 POP SWAP3 POP SWAP3 JUMP JUMPDEST PUSH4 0x4E487B71 PUSH1 0xE0 SHL PUSH1 0x0 MSTORE PUSH1 0x41 PUSH1 0x4 MSTORE PUSH1 0x24 PUSH1 0x0 REVERT JUMPDEST PUSH1 0x0 DUP3 PUSH1 0x1F DUP4 ADD SLT PUSH2 0x141E JUMPI PUSH1 0x0 DUP1 REVERT JUMPDEST DUP2 CALLDATALOAD PUSH8 0xFFFFFFFFFFFFFFFF DUP1 DUP3 GT ISZERO PUSH2 0x1439 JUMPI PUSH2 0x1439 PUSH2 0x13F7 JUMP JUMPDEST PUSH1 0x40 MLOAD PUSH1 0x1F DUP4 ADD PUSH1 0x1F NOT SWAP1 DUP2 AND PUSH1 0x3F ADD AND DUP2 ADD SWAP1 DUP3 DUP3 GT DUP2 DUP4 LT OR ISZERO PUSH2 0x1461 JUMPI PUSH2 0x1461 PUSH2 0x13F7 JUMP JUMPDEST DUP2 PUSH1 0x40 MSTORE DUP4 DUP2 MSTORE DUP7 PUSH1 0x20 DUP6 DUP9 ADD ADD GT ISZERO PUSH2 0x147A JUMPI PUSH1 0x0 DUP1 REVERT JUMPDEST DUP4 PUSH1 0x20 DUP8 ADD PUSH1 0x20 DUP4 ADD CALLDATACOPY PUSH1 0x0 PUSH1 0x20 DUP6 DUP4 ADD ADD MSTORE DUP1 SWAP5 POP POP POP POP POP SWAP3 SWAP2 POP POP JUMP JUMPDEST PUSH1 0x0 DUP1 PUSH1 0x0 PUSH1 0x60 DUP5 DUP7 SUB SLT ISZERO PUSH2 0x14AF JUMPI PUSH1 0x0 DUP1 REVERT JUMPDEST PUSH2 0x14B8 DUP5 PUSH2 0x134E JUMP JUMPDEST SWAP3 POP PUSH1 0x20 DUP5 ADD CALLDATALOAD PUSH8 0xFFFFFFFFFFFFFFFF DUP2 GT ISZERO PUSH2 0x14D4 JUMPI PUSH1 0x0 DUP1 REVERT JUMPDEST PUSH2 0x14E0 DUP7 DUP3 DUP8 ADD PUSH2 0x140D JUMP JUMPDEST SWAP3 POP POP PUSH1 0x40 DUP5 ADD CALLDATALOAD SWAP1 POP SWAP3 POP SWAP3 POP SWAP3 JUMP JUMPDEST PUSH1 0x0 PUSH1 0x20 DUP3 DUP5 SUB SLT ISZERO PUSH2 0x1503 JUMPI PUSH1 0x0 DUP1 REVERT JUMPDEST DUP2 CALLDATALOAD PUSH8 0xFFFFFFFFFFFFFFFF DUP2 GT ISZERO PUSH2 0x151A JUMPI PUSH1 0x0 DUP1 REVERT JUMPDEST PUSH2 0x1526 DUP5 DUP3 DUP6 ADD PUSH2 0x140D JUMP JUMPDEST SWAP5 SWAP4 POP POP POP POP JUMP JUMPDEST PUSH1 0x0 PUSH1 0x20 DUP3 DUP5 SUB SLT ISZERO PUSH2 0x1540 JUMPI PUSH1 0x0 DUP1 REVERT JUMPDEST POP CALLDATALOAD SWAP2 SWAP1 POP JUMP JUMPDEST PUSH1 0x0 PUSH1 0x20 DUP3 DUP5 SUB SLT ISZERO PUSH2 0x1559 JUMPI PUSH1 0x0 DUP1 REVERT JUMPDEST PUSH2 0x711 DUP3 PUSH2 0x134E JUMP JUMPDEST PUSH1 0x0 DUP1 PUSH1 0x40 DUP4 DUP6 SUB SLT ISZERO PUSH2 0x1575 JUMPI PUSH1 0x0 DUP1 REVERT JUMPDEST PUSH2 0x157E DUP4 PUSH2 0x134E JUMP JUMPDEST SWAP2 POP PUSH2 0x13B2 PUSH1 0x20 DUP5 ADD PUSH2 0x134E JUMP JUMPDEST PUSH1 0x1 DUP2 DUP2 SHR SWAP1 DUP3 AND DUP1 PUSH2 0x15A0 JUMPI PUSH1 0x7F DUP3 AND SWAP2 POP JUMPDEST PUSH1 0x20 DUP3 LT DUP2 SUB PUSH2 0x15C0 JUMPI PUSH4 0x4E487B71 PUSH1 0xE0 SHL PUSH1 0x0 MSTORE PUSH1 0x22 PUSH1 0x4 MSTORE PUSH1 0x24 PUSH1 0x0 REVERT JUMPDEST POP SWAP2 SWAP1 POP JUMP JUMPDEST PUSH4 0x4E487B71 PUSH1 0xE0 SHL PUSH1 0x0 MSTORE PUSH1 0x11 PUSH1 0x4 MSTORE PUSH1 0x24 PUSH1 0x0 REVERT JUMPDEST DUP2 DUP2 SUB DUP2 DUP2 GT ISZERO PUSH2 0x4F8 JUMPI PUSH2 0x4F8 PUSH2 0x15C6 JUMP JUMPDEST PUSH4 0x4E487B71 PUSH1 0xE0 SHL PUSH1 0x0 MSTORE PUSH1 0x32 PUSH1 0x4 MSTORE PUSH1 0x24 PUSH1 0x0 REVERT JUMPDEST PUSH1 0x20 DUP1 DUP3 MSTORE PUSH1 0x13 SWAP1 DUP3 ADD MSTORE PUSH19 0x21B0B63632B91034B9903737BA1037BBB732B9 PUSH1 0x69 SHL PUSH1 0x40 DUP3 ADD MSTORE PUSH1 0x60 ADD SWAP1 JUMP JUMPDEST PUSH4 0x4E487B71 PUSH1 0xE0 SHL PUSH1 0x0 MSTORE PUSH1 0x31 PUSH1 0x4 MSTORE PUSH1 0x24 PUSH1 0x0 REVERT JUMPDEST DUP1 DUP3 ADD DUP1 DUP3 GT ISZERO PUSH2 0x4F8 JUMPI PUSH2 0x4F8 PUSH2 0x15C6 JUMP INVALID 0xDD CALLCODE MSTORE 0xAD SHL 0xE2 0xC8 SWAP12 PUSH10 0xC2B068FC378DAA952BA7 CALL PUSH4 0xC4A11628 CREATE2 GAS 0x4D CREATE2 0x23 0xB3 0xEF LOG2 PUSH5 0x6970667358 0x22 SLT KECCAK256 0x28 MULMOD 0xFB LT 0xF6 0xF7 PUSH9 0x1EC70F9FC2BF42F666 0xB6 GAS 0xE 0xC1 DUP1 0xE5 RETURNDATACOPY CODESIZE 0xAB 0xD2 0x4F PUSH8 0x6B68B39064736F6C PUSH4 0x43000819 STOP CALLER ",
  "sha1": "8c883f6e1d220528f24b222d722dd8d703e3952e",
  "source": "// SPDX-License-Identifier: MIT\n\npragma solidity 0.8.25;\n\nimport \"./Owner.sol\";\n\ncontract regulatedStableCoin is Owner{\n\n    string public symbol;\n    string public name;\n    uint256 public decimals;\n    uint256 internal totalSupply_;\n    bool public paused;\n\n    bytes32[] internal Bridges;\n\n    mapping(address => mapping(address => uint256)) allowed;\n    mapping(address => uint256) internal balances;\n    mapping(address => bool) internal frozen;\n        \n    event accountBalanceUpdate(address indexed Account, uint256 balances);\n    event Transfer(address indexed from, address indexed to, uint256 value);\n    event Approval(address indexed owner, address indexed spender, uint256 value);\n\n    event BridgeTo(bytes32 bridgeTo, address indexed receiver,  uint256 value);\n    event BridgeIn(bytes32 bridgeFrom, address indexed receiver, uint256 value);\n    event BridgeStored(bytes32 bridgeName);\n    event BridgeDeleted(bytes32 bridgeName);\n\n    // PAUSABLE EVENTS\n    event Pause();\n    event Unpause();\n\n    // ASSET PROTECTION EVENTS\n    event FrozenAddressWiped(address indexed addr);\n    event FreezeAddress(address indexed addr);\n    event UnfreezeAddress(address indexed addr);\n\n    event SupplyDecreased(address indexed from, uint256 value);\n    event SupplyIncreased(address indexed to, uint256 value);\n\n    error AddressNotFrozen();\n    error ContractPaused();\n    error AlreadyPaused();\n    error AlreadyUnPaused();\n    error InsufficientFunds();\n    error AddressCantBeBunrnedByThis();\n    error BridgeNotFound();\n\n    constructor( \n        string memory _name, \n        string memory _symbol, \n        uint256 _decimals, \n        uint256 _totalSupply\n    ) \n        public \n    {\n        name = _name;\n        symbol = _symbol;\n        decimals = _decimals;\n        totalSupply_ = _totalSupply;\n        balances[msg.sender] = _totalSupply;\n        emit accountBalanceUpdate(msg.sender, _totalSupply);\n        emit SupplyIncreased(msg.sender, _totalSupply);\n    }\n\n\n\n\n                //ERC-20\n\n    function totalSupply() public view returns (uint256) {\n        return totalSupply_;\n    }\n\n    function _isPaused() internal view returns (bool) {\n        return paused;\n    }\n\n    function balanceOf(address _owner) public view returns (uint256) {\n        return balances[_owner];\n    }\n\n    function allowance(address _owner, address _spender) public view returns (uint256){\n        return allowed[_owner][_spender];\n    }\n\n    function approve(address _spender, uint256 _value) public whenNotPaused returns (bool) {\n        allowed[msg.sender][_spender] = _value;\n        emit Approval(msg.sender, _spender, _value);\n        return true;\n    }\n\n    function _transfer(address _from, address _to, uint256 _value) internal returns (bool){\n        require(balances[_from] >= _value, \"Insufficient balance\");\n        balances[_from] = balances[_from] - _value;\n        balances[_to] = balances[_to] + _value;\n        emit Transfer(_from, _to, _value);\n        return true;\n    }\n\n    function transfer(address _to, uint256 _value) public whenNotPaused returns (bool) {\n        require(_transfer(msg.sender, _to, _value), \"transfer fail\");\n        emit accountBalanceUpdate(msg.sender, balanceOf(msg.sender));\n        emit accountBalanceUpdate( _to, balanceOf(_to));\n        return true;\n    }\n\n    function transferFrom(address _from, address _to, uint256 _value) public whenNotPaused returns (bool){\n        require(allowed[_from][msg.sender] >= _value, \"Insufficient allowance\");\n        allowed[_from][msg.sender] = allowed[_from][msg.sender] - _value;\n        _transfer(_from, _to, _value);\n        return true;\n    }\n\n\n\n\n\n            //PAXOS Based Funcs\n\n    modifier whenNotPaused() {\n        if (_isPaused()) revert ContractPaused();\n        _;\n    }\n\n    function _freeze(address addr) private {\n        frozen[addr] = true;\n        emit FreezeAddress(addr);\n    }\n\n    function freeze(address addr) public onlyOwner{\n        _freeze(addr);\n    }\n\n    function _unfreeze(address addr) private {\n        delete frozen[addr];\n        emit UnfreezeAddress(addr);\n    }\n\n    function unfreeze(address addr) public onlyOwner {\n        _unfreeze(addr);\n    }\n\n    function wipeFrozenAddress(address addr) public onlyOwner {\n            if (!_isAddrFrozen(addr)) revert AddressNotFrozen();\n            uint256 balance = balances[addr];\n            balances[addr] = 0;\n            totalSupply_ -= balance;\n            emit FrozenAddressWiped(addr);\n            emit SupplyDecreased(addr, balance);\n            emit Transfer(addr, address(0), balance);\n    }\n\n    function isFrozen(address addr) external view returns (bool) {\n        return _isAddrFrozen(addr);\n    }\n\n    function _isAddrFrozen(address addr) internal view  returns (bool) {\n        return frozen[addr];\n    }\n\n    function canBurnFromAddress(address burnFromAddress, address caller) internal virtual view  returns (bool) {\n\n        address owner = owner();\n\n        if(caller == owner || caller == burnFromAddress){\n            return true;\n        }\n\n        return false;\n\n    }\n\n    function decreaseSupplyFromAddress(uint256 value, address burnFromAddress) public virtual returns (bool success) {\n\n        if(!canBurnFromAddress(burnFromAddress, msg.sender)) revert AddressCantBeBunrnedByThis();\n        if (value > balances[burnFromAddress]) revert InsufficientFunds();\n\n        balances[burnFromAddress] -= value;\n        totalSupply_ -= value;\n        emit SupplyDecreased(burnFromAddress, value);\n        emit Transfer(burnFromAddress, address(0), value);\n        return true;\n    }\n\n    function decreaseSupply(uint256 value) public returns (bool success) {\n        return decreaseSupplyFromAddress(value, msg.sender);\n    }\n\n    function burn(uint256 amount) public {\n        decreaseSupply(amount);\n    }\n\n    function increaseSupplyToAddress(uint256 value, address mintToAddress) internal virtual returns (bool success) {\n        require(!_isAddrFrozen(mintToAddress), \"mintToAddress frozen\");\n        totalSupply_ += value;\n        balances[mintToAddress] += value;\n        emit SupplyIncreased(mintToAddress, value);\n        emit Transfer(address(0), mintToAddress, value);\n        return true;\n    }\n\n    function increaseSupply(uint256 value) public onlyOwner returns (bool success) {\n        return increaseSupplyToAddress(value, msg.sender);\n    }\n\n    function mint(address account, uint256 amount) public onlyOwner {\n        increaseSupplyToAddress(amount, account);\n    }\n\n    function pause() public onlyOwner {\n        if (paused) revert AlreadyPaused();\n        paused = true;\n        emit Pause();\n    }\n\n    function unpause() public onlyOwner {\n        if (!paused) revert AlreadyUnPaused();\n        paused = false;\n        emit Unpause();\n    }\n\n\n\n\n                //DELTA Bridge implementarion \n\n    function NewBridge(string memory _bridgeName) public onlyOwner {\n\n        bytes32 bridgeName = keccak256(bytes(_bridgeName));\n\n        for (uint i = 0; i < Bridges.length; i++) {\n            if ( Bridges[i] == bridgeName ) {\n\n                return;\n            }\n        }\n\n        Bridges.push(bridgeName);\n        emit BridgeStored(bridgeName);\n\n    }\n\n    function deleteBridge(string memory _BridgeName) public onlyOwner {\n\n        bytes32 BridgeToDel = keccak256(bytes(_BridgeName));\n        for (uint i = 0; i < Bridges.length; i++) {\n            if ( Bridges[i]  == BridgeToDel ) {\n                if (i < Bridges.length - 1) {\n                    Bridges[i] = Bridges[Bridges.length - 1];\n                }\n                Bridges.pop();\n                emit BridgeDeleted(BridgeToDel);\n                return;\n            }\n        }\n \n    }\n\n    function transferBridge(address _to, string memory _bridgeTo, uint256 _value) public whenNotPaused returns (bool){\n\n        bytes32 BridgeTo_ = keccak256(bytes(_bridgeTo));\n        for (uint i = 0; i < Bridges.length; i++) {\n            if ( Bridges[i]  == BridgeTo_ ) {\n\n                require(decreaseSupplyFromAddress( _value, msg.sender), \"transferBridge decreaseSupplyFromAddress error\");\n\n                emit BridgeTo(BridgeTo_ , _to, _value);\n\n                return true;\n            }\n        }\n\n        revert BridgeNotFound();\n\n        return false;\n\n    }\n\n    function bridgeIn(address _to, string memory _bridgeFrom, uint256 _value) public onlyOwner() returns (bool){\n\n        mint(_to,  _value);\n        emit BridgeIn( keccak256(bytes(_bridgeFrom)), _to, _value);\n\n        return true;\n\n\n    }\n\n\n}",
  "sourcePath": "contracts/regulatedStableCoin.sol",
  "type": "contract"
}