{"bytecode":"608060405234801561001057600080fd5b506040516113ec3803806113ec83398101604081905261002f916101d5565b600080546001600160a01b0319163390811782556040519091907f342827c97908e5e2f71151c08502a66d44b6f758e3ac2f1de95f02eb95f0a735908290a3600261007a85826102d7565b50600161008784826102d7565b50600382905560048190553360008181526007602052604090819020839055517f6a245a004ad1e70bebe202e61569cda6601ee9390641d85f8aa5d181a01c59ca906100d69084815260200190565b60405180910390a260405181815233907ff5c174d57843e57fea3c649fdde37f015ef08750759cbee88060390566a987979060200160405180910390a250505050610395565b634e487b7160e01b600052604160045260246000fd5b600082601f83011261014357600080fd5b81516001600160401b0381111561015c5761015c61011c565b604051601f8201601f19908116603f011681016001600160401b038111828210171561018a5761018a61011c565b6040528181528382016020018510156101a257600080fd5b60005b828110156101c1576020818601810151838301820152016101a5565b506000918101602001919091529392505050565b600080600080608085870312156101eb57600080fd5b84516001600160401b0381111561020157600080fd5b61020d87828801610132565b602087015190955090506001600160401b0381111561022b57600080fd5b61023787828801610132565b604087015160609097015195989097509350505050565b600181811c9082168061026257607f821691505b60208210810361028257634e487b7160e01b600052602260045260246000fd5b50919050565b601f8211156102d257806000526020600020601f840160051c810160208510156102af5750805b601f840160051c820191505b818110156102cf57600081556001016102bb565b50505b505050565b81516001600160401b038111156102f0576102f061011c565b610304816102fe845461024e565b84610288565b6020601f82116001811461033857600083156103205750848201515b600019600385901b1c1916600184901b1784556102cf565b600084815260208120601f198516915b828110156103685787850151825560209485019460019092019101610348565b50848210156103865786840151600019600387901b60f8161c191681555b50505050600190811b01905550565b611048806103a46000396000f3fe608060405234801561001057600080fd5b506004361061014d5760003560e01c806370a08231116100c3578063a6f9dae11161007c578063a6f9dae1146102a3578063a9059cbb146102b6578063b921e163146102c9578063dd62ed3e146102dc578063e2f72f0314610315578063e58398361461032857600080fd5b806370a08231146102295780638456cb5914610252578063893d20e81461025a5780638d1fdf2f1461027557806395d89b411461028857806398e52f9a1461029057600080fd5b8063313ce56711610115578063313ce567146101d05780633f4ba83a146101d957806340c10f19146101e357806342966c68146101f657806345c8b1a6146102095780635c975abb1461021c57600080fd5b806306fdde0314610152578063095ea7b31461017057806318160ddd146101935780631f17c083146101aa57806323b872dd146101bd575b600080fd5b61015a61033b565b6040516101679190610df2565b60405180910390f35b61018361017e366004610e57565b6103c9565b6040519015158152602001610167565b61019c60045481565b604051908152602001610167565b6101836101b8366004610e81565b61045b565b6101836101cb366004610ead565b610544565b61019c60035481565b6101e161064a565b005b6101e16101f1366004610e57565b6106cc565b6101e1610204366004610eea565b610705565b6101e1610217366004610f03565b610712565b6005546101839060ff1681565b61019c610237366004610f03565b6001600160a01b031660009081526007602052604090205490565b6101e1610748565b6000546040516001600160a01b039091168152602001610167565b6101e1610283366004610f03565b6107ce565b61015a610801565b61018361029e366004610eea565b61080e565b6101e16102b1366004610f03565b61081a565b6101836102c4366004610e57565b61089f565b6101836102d7366004610eea565b6109aa565b61019c6102ea366004610f25565b6001600160a01b03918216600090815260066020908152604080832093909416825291909152205490565b6101e1610323366004610f03565b6109e4565b610183610336366004610f03565b610b27565b6002805461034890610f4f565b80601f016020809104026020016040519081016040528092919081815260200182805461037490610f4f565b80156103c15780601f10610396576101008083540402835291602001916103c1565b820191906000526020600020905b8154815290600101906020018083116103a457829003601f168201915b505050505081565b60006103d760055460ff1690565b156103f55760405163ab35696f60e01b815260040160405180910390fd5b3360008181526006602090815260408083206001600160a01b03881680855290835292819020869055518581529192917f8c5be1e5ebec7d5bd14f71427d1e84f3dd0314c0f7b2291e5b200ac8c7c3b92591015b60405180910390a35060015b92915050565b6001600160a01b0381166000908152600760205260408120548311156104945760405163356680b760e01b815260040160405180910390fd5b6001600160a01b038216600090815260076020526040812080548592906104bc908490610f9f565b9250508190555082600460008282546104d59190610f9f565b90915550506040518381526001600160a01b038316907f1b7e18241beced0d7f41fbab1ea8ed468732edbcb74ec4420151654ca71c8a639060200160405180910390a26040518381526000906001600160a01b03841690600080516020610ff383398151915290602001610449565b600061055260055460ff1690565b156105705760405163ab35696f60e01b815260040160405180910390fd5b6001600160a01b03841660009081526006602090815260408083203384529091529020548211156105e15760405162461bcd60e51b8152602060048201526016602482015275496e73756666696369656e7420616c6c6f77616e636560501b60448201526064015b60405180910390fd5b6001600160a01b0384166000908152600660209081526040808320338452909152902054610610908390610f9f565b6001600160a01b038516600090815260066020908152604080832033845290915290205561063f848484610b48565b506001949350505050565b6000546001600160a01b031633146106745760405162461bcd60e51b81526004016105d890610fb2565b60055460ff1661069757604051630a976e8b60e01b815260040160405180910390fd5b6005805460ff191690556040517f7805862f689e2f13df9f062ff482ad3ad112aca9e0847911ed832e158c525b3390600090a1565b6000546001600160a01b031633146106f65760405162461bcd60e51b81526004016105d890610fb2565b6107008183610c4f565b505050565b61070e8161080e565b5050565b6000546001600160a01b0316331461073c5760405162461bcd60e51b81526004016105d890610fb2565b61074581610d5d565b50565b6000546001600160a01b031633146107725760405162461bcd60e51b81526004016105d890610fb2565b60055460ff161561079657604051631785c68160e01b815260040160405180910390fd5b6005805460ff191660011790556040517f6985a02210a168e66602d3235cb6db0e70f92b3ba4d376a33c0f3d9434bff62590600090a1565b6000546001600160a01b031633146107f85760405162461bcd60e51b81526004016105d890610fb2565b61074581610da6565b6001805461034890610f4f565b6000610455823361045b565b6000546001600160a01b031633146108445760405162461bcd60e51b81526004016105d890610fb2565b600080546040516001600160a01b03808516939216917f342827c97908e5e2f71151c08502a66d44b6f758e3ac2f1de95f02eb95f0a73591a3600080546001600160a01b0319166001600160a01b0392909216919091179055565b60006108ad60055460ff1690565b156108cb5760405163ab35696f60e01b815260040160405180910390fd5b6108d6338484610b48565b6109125760405162461bcd60e51b815260206004820152600d60248201526c1d1c985b9cd9995c8819985a5b609a1b60448201526064016105d8565b336000818152600760205260409020547f6a245a004ad1e70bebe202e61569cda6601ee9390641d85f8aa5d181a01c59ca9060405190815260200160405180910390a26001600160a01b0383166000818152600760205260409020547f6a245a004ad1e70bebe202e61569cda6601ee9390641d85f8aa5d181a01c59ca9060405190815260200160405180910390a250600192915050565b600080546001600160a01b031633146109d55760405162461bcd60e51b81526004016105d890610fb2565b6104558233610c4f565b919050565b6000546001600160a01b03163314610a0e5760405162461bcd60e51b81526004016105d890610fb2565b6001600160a01b03811660009081526008602052604090205460ff16610a4757604051630ba55e0f60e41b815260040160405180910390fd5b6001600160a01b03811660009081526007602052604081208054908290556004805491928392610a78908490610f9f565b90915550506040516001600160a01b038316907ffc5960f1c5a5d2b60f031bf534af053b1bf7d9881989afaeb8b1d164db23aede90600090a2816001600160a01b03167f1b7e18241beced0d7f41fbab1ea8ed468732edbcb74ec4420151654ca71c8a6382604051610aec91815260200190565b60405180910390a26040518181526000906001600160a01b03841690600080516020610ff38339815191529060200160405180910390a35050565b6001600160a01b03811660009081526008602052604081205460ff16610455565b6001600160a01b038316600090815260076020526040812054821115610ba75760405162461bcd60e51b8152602060048201526014602482015273496e73756666696369656e742062616c616e636560601b60448201526064016105d8565b6001600160a01b038416600090815260076020526040902054610bcb908390610f9f565b6001600160a01b038086166000908152600760205260408082209390935590851681522054610bfb908390610fdf565b6001600160a01b038085166000818152600760205260409081902093909355915190861690600080516020610ff383398151915290610c3d9086815260200190565b60405180910390a35060019392505050565b6001600160a01b03811660009081526008602052604081205460ff1615610caf5760405162461bcd60e51b815260206004820152601460248201527336b4b73a2a37a0b2323932b9b990333937bd32b760611b60448201526064016105d8565b8260046000828254610cc19190610fdf565b90915550506001600160a01b03821660009081526007602052604081208054859290610cee908490610fdf565b90915550506040518381526001600160a01b038316907ff5c174d57843e57fea3c649fdde37f015ef08750759cbee88060390566a987979060200160405180910390a26040518381526001600160a01b03831690600090600080516020610ff383398151915290602001610449565b6001600160a01b038116600081815260086020526040808220805460ff19169055517f150465b020dfc06a59269da94ed66db9b65a516cf4fdd5f583b0f12752339bbe9190a250565b6001600160a01b038116600081815260086020526040808220805460ff19166001179055517f1aa660498c83ea285bc55e4cfc00afcaa7120798db87b74f3c0d7c6e001bc3929190a250565b602081526000825180602084015260005b81811015610e205760208186018101516040868401015201610e03565b506000604082850101526040601f19601f83011684010191505092915050565b80356001600160a01b03811681146109df57600080fd5b60008060408385031215610e6a57600080fd5b610e7383610e40565b946020939093013593505050565b60008060408385031215610e9457600080fd5b82359150610ea460208401610e40565b90509250929050565b600080600060608486031215610ec257600080fd5b610ecb84610e40565b9250610ed960208501610e40565b929592945050506040919091013590565b600060208284031215610efc57600080fd5b5035919050565b600060208284031215610f1557600080fd5b610f1e82610e40565b9392505050565b60008060408385031215610f3857600080fd5b610f4183610e40565b9150610ea460208401610e40565b600181811c90821680610f6357607f821691505b602082108103610f8357634e487b7160e01b600052602260045260246000fd5b50919050565b634e487b7160e01b600052601160045260246000fd5b8181038181111561045557610455610f89565b60208082526013908201527221b0b63632b91034b9903737ba1037bbb732b960691b604082015260600190565b8082018082111561045557610455610f8956feddf252ad1be2c89b69c2b068fc378daa952ba7f163c4a11628f55a4df523b3efa26469706673582212205355d6ad4ada98e27b9f09ea94047e8e53dc86e7811e62ff2ff75d75e3e7591964736f6c634300081a0033","bytecodeSha1":"23207242bac13dd3dbdbb49d8ba2066aac4033c2","type":"contract","abi":[{"inputs":[{"internalType":"string","name":"_name","type":"string"},{"internalType":"string","name":"_symbol","type":"string"},{"internalType":"uint256","name":"_decimals","type":"uint256"},{"internalType":"uint256","name":"_totalSupply","type":"uint256"}],"stateMutability":"nonpayable","type":"constructor","name":"constructor"},{"inputs":[],"name":"AddressNotFrozen","type":"error"},{"inputs":[],"name":"AlreadyPaused","type":"error"},{"inputs":[],"name":"AlreadyUnPaused","type":"error"},{"inputs":[],"name":"ContractPaused","type":"error"},{"inputs":[],"name":"InsufficientFunds","type":"error"},{"anonymous":false,"inputs":[{"indexed":true,"internalType":"address","name":"owner","type":"address"},{"indexed":true,"internalType":"address","name":"spender","type":"address"},{"indexed":false,"internalType":"uint256","name":"value","type":"uint256"}],"name":"Approval","type":"event"},{"anonymous":false,"inputs":[{"indexed":true,"internalType":"address","name":"addr","type":"address"}],"name":"FreezeAddress","type":"event"},{"anonymous":false,"inputs":[{"indexed":true,"internalType":"address","name":"addr","type":"address"}],"name":"FrozenAddressWiped","type":"event"},{"anonymous":false,"inputs":[{"indexed":true,"internalType":"address","name":"oldOwner","type":"address"},{"indexed":true,"internalType":"address","name":"newOwner","type":"address"}],"name":"OwnerSet","type":"event"},{"anonymous":false,"inputs":[],"name":"Pause","type":"event"},{"anonymous":false,"inputs":[{"indexed":true,"internalType":"address","name":"from","type":"address"},{"indexed":false,"internalType":"uint256","name":"value","type":"uint256"}],"name":"SupplyDecreased","type":"event"},{"anonymous":false,"inputs":[{"indexed":true,"internalType":"address","name":"to","type":"address"},{"indexed":false,"internalType":"uint256","name":"value","type":"uint256"}],"name":"SupplyIncreased","type":"event"},{"anonymous":false,"inputs":[{"indexed":true,"internalType":"address","name":"from","type":"address"},{"indexed":true,"internalType":"address","name":"to","type":"address"},{"indexed":false,"internalType":"uint256","name":"value","type":"uint256"}],"name":"Transfer","type":"event"},{"anonymous":false,"inputs":[{"indexed":true,"internalType":"address","name":"addr","type":"address"}],"name":"UnfreezeAddress","type":"event"},{"anonymous":false,"inputs":[],"name":"Unpause","type":"event"},{"anonymous":false,"inputs":[{"indexed":true,"internalType":"address","name":"Account","type":"address"},{"indexed":false,"internalType":"uint256","name":"balances","type":"uint256"}],"name":"accountBalanceUpdate","type":"event"},{"inputs":[{"internalType":"address","name":"_owner","type":"address"},{"internalType":"address","name":"_spender","type":"address"}],"name":"allowance","outputs":[{"internalType":"uint256","name":"","type":"uint256"}],"stateMutability":"view","type":"function"},{"inputs":[{"internalType":"address","name":"_spender","type":"address"},{"internalType":"uint256","name":"_value","type":"uint256"}],"name":"approve","outputs":[{"internalType":"bool","name":"","type":"bool"}],"stateMutability":"nonpayable","type":"function"},{"inputs":[{"internalType":"address","name":"_owner","type":"address"}],"name":"balanceOf","outputs":[{"internalType":"uint256","name":"","type":"uint256"}],"stateMutability":"view","type":"function"},{"inputs":[{"internalType":"uint256","name":"amount","type":"uint256"}],"name":"burn","outputs":[],"stateMutability":"nonpayable","type":"function"},{"inputs":[{"internalType":"address","name":"newOwner","type":"address"}],"name":"changeOwner","outputs":[],"stateMutability":"nonpayable","type":"function"},{"inputs":[],"name":"decimals","outputs":[{"internalType":"uint256","name":"","type":"uint256"}],"stateMutability":"view","type":"function"},{"inputs":[{"internalType":"uint256","name":"value","type":"uint256"}],"name":"decreaseSupply","outputs":[{"internalType":"bool","name":"success","type":"bool"}],"stateMutability":"nonpayable","type":"function"},{"inputs":[{"internalType":"uint256","name":"value","type":"uint256"},{"internalType":"address","name":"burnFromAddress","type":"address"}],"name":"decreaseSupplyFromAddress","outputs":[{"internalType":"bool","name":"success","type":"bool"}],"stateMutability":"nonpayable","type":"function"},{"inputs":[{"internalType":"address","name":"addr","type":"address"}],"name":"freeze","outputs":[],"stateMutability":"nonpayable","type":"function"},{"inputs":[],"name":"getOwner","outputs":[{"internalType":"address","name":"","type":"address"}],"stateMutability":"view","type":"function"},{"inputs":[{"internalType":"uint256","name":"value","type":"uint256"}],"name":"increaseSupply","outputs":[{"internalType":"bool","name":"success","type":"bool"}],"stateMutability":"nonpayable","type":"function"},{"inputs":[{"internalType":"address","name":"addr","type":"address"}],"name":"isFrozen","outputs":[{"internalType":"bool","name":"","type":"bool"}],"stateMutability":"view","type":"function"},{"inputs":[{"internalType":"address","name":"account","type":"address"},{"internalType":"uint256","name":"amount","type":"uint256"}],"name":"mint","outputs":[],"stateMutability":"nonpayable","type":"function"},{"inputs":[],"name":"name","outputs":[{"internalType":"string","name":"","type":"string"}],"stateMutability":"view","type":"function"},{"inputs":[],"name":"pause","outputs":[],"stateMutability":"nonpayable","type":"function"},{"inputs":[],"name":"paused","outputs":[{"internalType":"bool","name":"","type":"bool"}],"stateMutability":"view","type":"function"},{"inputs":[],"name":"symbol","outputs":[{"internalType":"string","name":"","type":"string"}],"stateMutability":"view","type":"function"},{"inputs":[],"name":"totalSupply","outputs":[{"internalType":"uint256","name":"","type":"uint256"}],"stateMutability":"view","type":"function"},{"inputs":[{"internalType":"address","name":"_to","type":"address"},{"internalType":"uint256","name":"_value","type":"uint256"}],"name":"transfer","outputs":[{"internalType":"bool","name":"","type":"bool"}],"stateMutability":"nonpayable","type":"function"},{"inputs":[{"internalType":"address","name":"_from","type":"address"},{"internalType":"address","name":"_to","type":"address"},{"internalType":"uint256","name":"_value","type":"uint256"}],"name":"transferFrom","outputs":[{"internalType":"bool","name":"","type":"bool"}],"stateMutability":"nonpayable","type":"function"},{"inputs":[{"internalType":"address","name":"addr","type":"address"}],"name":"unfreeze","outputs":[],"stateMutability":"nonpayable","type":"function"},{"inputs":[],"name":"unpause","outputs":[],"stateMutability":"nonpayable","type":"function"},{"inputs":[{"internalType":"address","name":"addr","type":"address"}],"name":"wipeFrozenAddress","outputs":[],"stateMutability":"nonpayable","type":"function"}],"compiler":{"version":"0.8.26+commit.8a97fa7a","evm_version":"istanbul","optimizer":{"enabled":true,"runs":200}},"contractName":"regulatedStableCoin","language":"Solidity","natspec":{"methods":{"changeOwner(address)":{"details":"Change owner","params":{"newOwner":"address of new owner"}},"getOwner()":{"details":"Return owner address ","returns":{"_0":"address of owner"}}},"kind":"dev","version":1},"opcodes":"PUSH1 0x80 PUSH1 0x40 MSTORE CALLVALUE DUP1 ISZERO PUSH2 0x10 JUMPI PUSH1 0x0 DUP1 REVERT JUMPDEST POP PUSH1 0x4 CALLDATASIZE LT PUSH2 0x14D JUMPI PUSH1 0x0 CALLDATALOAD PUSH1 0xE0 SHR DUP1 PUSH4 0x70A08231 GT PUSH2 0xC3 JUMPI DUP1 PUSH4 0xA6F9DAE1 GT PUSH2 0x7C JUMPI DUP1 PUSH4 0xA6F9DAE1 EQ PUSH2 0x2A3 JUMPI DUP1 PUSH4 0xA9059CBB EQ PUSH2 0x2B6 JUMPI DUP1 PUSH4 0xB921E163 EQ PUSH2 0x2C9 JUMPI DUP1 PUSH4 0xDD62ED3E EQ PUSH2 0x2DC JUMPI DUP1 PUSH4 0xE2F72F03 EQ PUSH2 0x315 JUMPI DUP1 PUSH4 0xE5839836 EQ PUSH2 0x328 JUMPI PUSH1 0x0 DUP1 REVERT JUMPDEST DUP1 PUSH4 0x70A08231 EQ PUSH2 0x229 JUMPI DUP1 PUSH4 0x8456CB59 EQ PUSH2 0x252 JUMPI DUP1 PUSH4 0x893D20E8 EQ PUSH2 0x25A JUMPI DUP1 PUSH4 0x8D1FDF2F EQ PUSH2 0x275 JUMPI DUP1 PUSH4 0x95D89B41 EQ PUSH2 0x288 JUMPI DUP1 PUSH4 0x98E52F9A EQ PUSH2 0x290 JUMPI PUSH1 0x0 DUP1 REVERT JUMPDEST DUP1 PUSH4 0x313CE567 GT PUSH2 0x115 JUMPI DUP1 PUSH4 0x313CE567 EQ PUSH2 0x1D0 JUMPI DUP1 PUSH4 0x3F4BA83A EQ PUSH2 0x1D9 JUMPI DUP1 PUSH4 0x40C10F19 EQ PUSH2 0x1E3 JUMPI DUP1 PUSH4 0x42966C68 EQ PUSH2 0x1F6 JUMPI DUP1 PUSH4 0x45C8B1A6 EQ PUSH2 0x209 JUMPI DUP1 PUSH4 0x5C975ABB EQ PUSH2 0x21C JUMPI PUSH1 0x0 DUP1 REVERT JUMPDEST DUP1 PUSH4 0x6FDDE03 EQ PUSH2 0x152 JUMPI DUP1 PUSH4 0x95EA7B3 EQ PUSH2 0x170 JUMPI DUP1 PUSH4 0x18160DDD EQ PUSH2 0x193 JUMPI DUP1 PUSH4 0x1F17C083 EQ PUSH2 0x1AA JUMPI DUP1 PUSH4 0x23B872DD EQ PUSH2 0x1BD JUMPI JUMPDEST PUSH1 0x0 DUP1 REVERT JUMPDEST PUSH2 0x15A PUSH2 0x33B JUMP JUMPDEST PUSH1 0x40 MLOAD PUSH2 0x167 SWAP2 SWAP1 PUSH2 0xDF2 JUMP JUMPDEST PUSH1 0x40 MLOAD DUP1 SWAP2 SUB SWAP1 RETURN JUMPDEST PUSH2 0x183 PUSH2 0x17E CALLDATASIZE PUSH1 0x4 PUSH2 0xE57 JUMP JUMPDEST PUSH2 0x3C9 JUMP JUMPDEST PUSH1 0x40 MLOAD SWAP1 ISZERO ISZERO DUP2 MSTORE PUSH1 0x20 ADD PUSH2 0x167 JUMP JUMPDEST PUSH2 0x19C PUSH1 0x4 SLOAD DUP2 JUMP JUMPDEST PUSH1 0x40 MLOAD SWAP1 DUP2 MSTORE PUSH1 0x20 ADD PUSH2 0x167 JUMP JUMPDEST PUSH2 0x183 PUSH2 0x1B8 CALLDATASIZE PUSH1 0x4 PUSH2 0xE81 JUMP JUMPDEST PUSH2 0x45B JUMP JUMPDEST PUSH2 0x183 PUSH2 0x1CB CALLDATASIZE PUSH1 0x4 PUSH2 0xEAD JUMP JUMPDEST PUSH2 0x544 JUMP JUMPDEST PUSH2 0x19C PUSH1 0x3 SLOAD DUP2 JUMP JUMPDEST PUSH2 0x1E1 PUSH2 0x64A JUMP JUMPDEST STOP JUMPDEST PUSH2 0x1E1 PUSH2 0x1F1 CALLDATASIZE PUSH1 0x4 PUSH2 0xE57 JUMP JUMPDEST PUSH2 0x6CC JUMP JUMPDEST PUSH2 0x1E1 PUSH2 0x204 CALLDATASIZE PUSH1 0x4 PUSH2 0xEEA JUMP JUMPDEST PUSH2 0x705 JUMP JUMPDEST PUSH2 0x1E1 PUSH2 0x217 CALLDATASIZE PUSH1 0x4 PUSH2 0xF03 JUMP JUMPDEST PUSH2 0x712 JUMP JUMPDEST PUSH1 0x5 SLOAD PUSH2 0x183 SWAP1 PUSH1 0xFF AND DUP2 JUMP JUMPDEST PUSH2 0x19C PUSH2 0x237 CALLDATASIZE PUSH1 0x4 PUSH2 0xF03 JUMP JUMPDEST PUSH1 0x1 PUSH1 0x1 PUSH1 0xA0 SHL SUB AND PUSH1 0x0 SWAP1 DUP2 MSTORE PUSH1 0x7 PUSH1 0x20 MSTORE PUSH1 0x40 SWAP1 KECCAK256 SLOAD SWAP1 JUMP JUMPDEST PUSH2 0x1E1 PUSH2 0x748 JUMP JUMPDEST PUSH1 0x0 SLOAD PUSH1 0x40 MLOAD PUSH1 0x1 PUSH1 0x1 PUSH1 0xA0 SHL SUB SWAP1 SWAP2 AND DUP2 MSTORE PUSH1 0x20 ADD PUSH2 0x167 JUMP JUMPDEST PUSH2 0x1E1 PUSH2 0x283 CALLDATASIZE PUSH1 0x4 PUSH2 0xF03 JUMP JUMPDEST PUSH2 0x7CE JUMP JUMPDEST PUSH2 0x15A PUSH2 0x801 JUMP JUMPDEST PUSH2 0x183 PUSH2 0x29E CALLDATASIZE PUSH1 0x4 PUSH2 0xEEA JUMP JUMPDEST PUSH2 0x80E JUMP JUMPDEST PUSH2 0x1E1 PUSH2 0x2B1 CALLDATASIZE PUSH1 0x4 PUSH2 0xF03 JUMP JUMPDEST PUSH2 0x81A JUMP JUMPDEST PUSH2 0x183 PUSH2 0x2C4 CALLDATASIZE PUSH1 0x4 PUSH2 0xE57 JUMP JUMPDEST PUSH2 0x89F JUMP JUMPDEST PUSH2 0x183 PUSH2 0x2D7 CALLDATASIZE PUSH1 0x4 PUSH2 0xEEA JUMP JUMPDEST PUSH2 0x9AA JUMP JUMPDEST PUSH2 0x19C PUSH2 0x2EA CALLDATASIZE PUSH1 0x4 PUSH2 0xF25 JUMP JUMPDEST PUSH1 0x1 PUSH1 0x1 PUSH1 0xA0 SHL SUB SWAP2 DUP3 AND PUSH1 0x0 SWAP1 DUP2 MSTORE PUSH1 0x6 PUSH1 0x20 SWAP1 DUP2 MSTORE PUSH1 0x40 DUP1 DUP4 KECCAK256 SWAP4 SWAP1 SWAP5 AND DUP3 MSTORE SWAP2 SWAP1 SWAP2 MSTORE KECCAK256 SLOAD SWAP1 JUMP JUMPDEST PUSH2 0x1E1 PUSH2 0x323 CALLDATASIZE PUSH1 0x4 PUSH2 0xF03 JUMP JUMPDEST PUSH2 0x9E4 JUMP JUMPDEST PUSH2 0x183 PUSH2 0x336 CALLDATASIZE PUSH1 0x4 PUSH2 0xF03 JUMP JUMPDEST PUSH2 0xB27 JUMP JUMPDEST PUSH1 0x2 DUP1 SLOAD PUSH2 0x348 SWAP1 PUSH2 0xF4F JUMP JUMPDEST DUP1 PUSH1 0x1F ADD PUSH1 0x20 DUP1 SWAP2 DIV MUL PUSH1 0x20 ADD PUSH1 0x40 MLOAD SWAP1 DUP2 ADD PUSH1 0x40 MSTORE DUP1 SWAP3 SWAP2 SWAP1 DUP2 DUP2 MSTORE PUSH1 0x20 ADD DUP3 DUP1 SLOAD PUSH2 0x374 SWAP1 PUSH2 0xF4F JUMP JUMPDEST DUP1 ISZERO PUSH2 0x3C1 JUMPI DUP1 PUSH1 0x1F LT PUSH2 0x396 JUMPI PUSH2 0x100 DUP1 DUP4 SLOAD DIV MUL DUP4 MSTORE SWAP2 PUSH1 0x20 ADD SWAP2 PUSH2 0x3C1 JUMP JUMPDEST DUP3 ADD SWAP2 SWAP1 PUSH1 0x0 MSTORE PUSH1 0x20 PUSH1 0x0 KECCAK256 SWAP1 JUMPDEST DUP2 SLOAD DUP2 MSTORE SWAP1 PUSH1 0x1 ADD SWAP1 PUSH1 0x20 ADD DUP1 DUP4 GT PUSH2 0x3A4 JUMPI DUP3 SWAP1 SUB PUSH1 0x1F AND DUP3 ADD SWAP2 JUMPDEST POP POP POP POP POP DUP2 JUMP JUMPDEST PUSH1 0x0 PUSH2 0x3D7 PUSH1 0x5 SLOAD PUSH1 0xFF AND SWAP1 JUMP JUMPDEST ISZERO PUSH2 0x3F5 JUMPI PUSH1 0x40 MLOAD PUSH4 0xAB35696F PUSH1 0xE0 SHL DUP2 MSTORE PUSH1 0x4 ADD PUSH1 0x40 MLOAD DUP1 SWAP2 SUB SWAP1 REVERT JUMPDEST CALLER PUSH1 0x0 DUP2 DUP2 MSTORE PUSH1 0x6 PUSH1 0x20 SWAP1 DUP2 MSTORE PUSH1 0x40 DUP1 DUP4 KECCAK256 PUSH1 0x1 PUSH1 0x1 PUSH1 0xA0 SHL SUB DUP9 AND DUP1 DUP6 MSTORE SWAP1 DUP4 MSTORE SWAP3 DUP2 SWAP1 KECCAK256 DUP7 SWAP1 SSTORE MLOAD DUP6 DUP2 MSTORE SWAP2 SWAP3 SWAP2 PUSH32 0x8C5BE1E5EBEC7D5BD14F71427D1E84F3DD0314C0F7B2291E5B200AC8C7C3B925 SWAP2 ADD JUMPDEST PUSH1 0x40 MLOAD DUP1 SWAP2 SUB SWAP1 LOG3 POP PUSH1 0x1 JUMPDEST SWAP3 SWAP2 POP POP JUMP JUMPDEST PUSH1 0x1 PUSH1 0x1 PUSH1 0xA0 SHL SUB DUP2 AND PUSH1 0x0 SWAP1 DUP2 MSTORE PUSH1 0x7 PUSH1 0x20 MSTORE PUSH1 0x40 DUP2 KECCAK256 SLOAD DUP4 GT ISZERO PUSH2 0x494 JUMPI PUSH1 0x40 MLOAD PUSH4 0x356680B7 PUSH1 0xE0 SHL DUP2 MSTORE PUSH1 0x4 ADD PUSH1 0x40 MLOAD DUP1 SWAP2 SUB SWAP1 REVERT JUMPDEST PUSH1 0x1 PUSH1 0x1 PUSH1 0xA0 SHL SUB DUP3 AND PUSH1 0x0 SWAP1 DUP2 MSTORE PUSH1 0x7 PUSH1 0x20 MSTORE PUSH1 0x40 DUP2 KECCAK256 DUP1 SLOAD DUP6 SWAP3 SWAP1 PUSH2 0x4BC SWAP1 DUP5 SWAP1 PUSH2 0xF9F JUMP JUMPDEST SWAP3 POP POP DUP2 SWAP1 SSTORE POP DUP3 PUSH1 0x4 PUSH1 0x0 DUP3 DUP3 SLOAD PUSH2 0x4D5 SWAP2 SWAP1 PUSH2 0xF9F JUMP JUMPDEST SWAP1 SWAP2 SSTORE POP POP PUSH1 0x40 MLOAD DUP4 DUP2 MSTORE PUSH1 0x1 PUSH1 0x1 PUSH1 0xA0 SHL SUB DUP4 AND SWAP1 PUSH32 0x1B7E18241BECED0D7F41FBAB1EA8ED468732EDBCB74EC4420151654CA71C8A63 SWAP1 PUSH1 0x20 ADD PUSH1 0x40 MLOAD DUP1 SWAP2 SUB SWAP1 LOG2 PUSH1 0x40 MLOAD DUP4 DUP2 MSTORE PUSH1 0x0 SWAP1 PUSH1 0x1 PUSH1 0x1 PUSH1 0xA0 SHL SUB DUP5 AND SWAP1 PUSH1 0x0 DUP1 MLOAD PUSH1 0x20 PUSH2 0xFF3 DUP4 CODECOPY DUP2 MLOAD SWAP2 MSTORE SWAP1 PUSH1 0x20 ADD PUSH2 0x449 JUMP JUMPDEST PUSH1 0x0 PUSH2 0x552 PUSH1 0x5 SLOAD PUSH1 0xFF AND SWAP1 JUMP JUMPDEST ISZERO PUSH2 0x570 JUMPI PUSH1 0x40 MLOAD PUSH4 0xAB35696F PUSH1 0xE0 SHL DUP2 MSTORE PUSH1 0x4 ADD PUSH1 0x40 MLOAD DUP1 SWAP2 SUB SWAP1 REVERT JUMPDEST PUSH1 0x1 PUSH1 0x1 PUSH1 0xA0 SHL SUB DUP5 AND PUSH1 0x0 SWAP1 DUP2 MSTORE PUSH1 0x6 PUSH1 0x20 SWAP1 DUP2 MSTORE PUSH1 0x40 DUP1 DUP4 KECCAK256 CALLER DUP5 MSTORE SWAP1 SWAP2 MSTORE SWAP1 KECCAK256 SLOAD DUP3 GT ISZERO PUSH2 0x5E1 JUMPI PUSH1 0x40 MLOAD PUSH3 0x461BCD PUSH1 0xE5 SHL DUP2 MSTORE PUSH1 0x20 PUSH1 0x4 DUP3 ADD MSTORE PUSH1 0x16 PUSH1 0x24 DUP3 ADD MSTORE PUSH22 0x496E73756666696369656E7420616C6C6F77616E6365 PUSH1 0x50 SHL PUSH1 0x44 DUP3 ADD MSTORE PUSH1 0x64 ADD JUMPDEST PUSH1 0x40 MLOAD DUP1 SWAP2 SUB SWAP1 REVERT JUMPDEST PUSH1 0x1 PUSH1 0x1 PUSH1 0xA0 SHL SUB DUP5 AND PUSH1 0x0 SWAP1 DUP2 MSTORE PUSH1 0x6 PUSH1 0x20 SWAP1 DUP2 MSTORE PUSH1 0x40 DUP1 DUP4 KECCAK256 CALLER DUP5 MSTORE SWAP1 SWAP2 MSTORE SWAP1 KECCAK256 SLOAD PUSH2 0x610 SWAP1 DUP4 SWAP1 PUSH2 0xF9F JUMP JUMPDEST PUSH1 0x1 PUSH1 0x1 PUSH1 0xA0 SHL SUB DUP6 AND PUSH1 0x0 SWAP1 DUP2 MSTORE PUSH1 0x6 PUSH1 0x20 SWAP1 DUP2 MSTORE PUSH1 0x40 DUP1 DUP4 KECCAK256 CALLER DUP5 MSTORE SWAP1 SWAP2 MSTORE SWAP1 KECCAK256 SSTORE PUSH2 0x63F DUP5 DUP5 DUP5 PUSH2 0xB48 JUMP JUMPDEST POP PUSH1 0x1 SWAP5 SWAP4 POP POP POP POP JUMP JUMPDEST PUSH1 0x0 SLOAD PUSH1 0x1 PUSH1 0x1 PUSH1 0xA0 SHL SUB AND CALLER EQ PUSH2 0x674 JUMPI PUSH1 0x40 MLOAD PUSH3 0x461BCD PUSH1 0xE5 SHL DUP2 MSTORE PUSH1 0x4 ADD PUSH2 0x5D8 SWAP1 PUSH2 0xFB2 JUMP JUMPDEST PUSH1 0x5 SLOAD PUSH1 0xFF AND PUSH2 0x697 JUMPI PUSH1 0x40 MLOAD PUSH4 0xA976E8B PUSH1 0xE0 SHL DUP2 MSTORE PUSH1 0x4 ADD PUSH1 0x40 MLOAD DUP1 SWAP2 SUB SWAP1 REVERT JUMPDEST PUSH1 0x5 DUP1 SLOAD PUSH1 0xFF NOT AND SWAP1 SSTORE PUSH1 0x40 MLOAD PUSH32 0x7805862F689E2F13DF9F062FF482AD3AD112ACA9E0847911ED832E158C525B33 SWAP1 PUSH1 0x0 SWAP1 LOG1 JUMP JUMPDEST PUSH1 0x0 SLOAD PUSH1 0x1 PUSH1 0x1 PUSH1 0xA0 SHL SUB AND CALLER EQ PUSH2 0x6F6 JUMPI PUSH1 0x40 MLOAD PUSH3 0x461BCD PUSH1 0xE5 SHL DUP2 MSTORE PUSH1 0x4 ADD PUSH2 0x5D8 SWAP1 PUSH2 0xFB2 JUMP JUMPDEST PUSH2 0x700 DUP2 DUP4 PUSH2 0xC4F JUMP JUMPDEST POP POP POP JUMP JUMPDEST PUSH2 0x70E DUP2 PUSH2 0x80E JUMP JUMPDEST POP POP JUMP JUMPDEST PUSH1 0x0 SLOAD PUSH1 0x1 PUSH1 0x1 PUSH1 0xA0 SHL SUB AND CALLER EQ PUSH2 0x73C JUMPI PUSH1 0x40 MLOAD PUSH3 0x461BCD PUSH1 0xE5 SHL DUP2 MSTORE PUSH1 0x4 ADD PUSH2 0x5D8 SWAP1 PUSH2 0xFB2 JUMP JUMPDEST PUSH2 0x745 DUP2 PUSH2 0xD5D JUMP JUMPDEST POP JUMP JUMPDEST PUSH1 0x0 SLOAD PUSH1 0x1 PUSH1 0x1 PUSH1 0xA0 SHL SUB AND CALLER EQ PUSH2 0x772 JUMPI PUSH1 0x40 MLOAD PUSH3 0x461BCD PUSH1 0xE5 SHL DUP2 MSTORE PUSH1 0x4 ADD PUSH2 0x5D8 SWAP1 PUSH2 0xFB2 JUMP JUMPDEST PUSH1 0x5 SLOAD PUSH1 0xFF AND ISZERO PUSH2 0x796 JUMPI PUSH1 0x40 MLOAD PUSH4 0x1785C681 PUSH1 0xE0 SHL DUP2 MSTORE PUSH1 0x4 ADD PUSH1 0x40 MLOAD DUP1 SWAP2 SUB SWAP1 REVERT JUMPDEST PUSH1 0x5 DUP1 SLOAD PUSH1 0xFF NOT AND PUSH1 0x1 OR SWAP1 SSTORE PUSH1 0x40 MLOAD PUSH32 0x6985A02210A168E66602D3235CB6DB0E70F92B3BA4D376A33C0F3D9434BFF625 SWAP1 PUSH1 0x0 SWAP1 LOG1 JUMP JUMPDEST PUSH1 0x0 SLOAD PUSH1 0x1 PUSH1 0x1 PUSH1 0xA0 SHL SUB AND CALLER EQ PUSH2 0x7F8 JUMPI PUSH1 0x40 MLOAD PUSH3 0x461BCD PUSH1 0xE5 SHL DUP2 MSTORE PUSH1 0x4 ADD PUSH2 0x5D8 SWAP1 PUSH2 0xFB2 JUMP JUMPDEST PUSH2 0x745 DUP2 PUSH2 0xDA6 JUMP JUMPDEST PUSH1 0x1 DUP1 SLOAD PUSH2 0x348 SWAP1 PUSH2 0xF4F JUMP JUMPDEST PUSH1 0x0 PUSH2 0x455 DUP3 CALLER PUSH2 0x45B JUMP JUMPDEST PUSH1 0x0 SLOAD PUSH1 0x1 PUSH1 0x1 PUSH1 0xA0 SHL SUB AND CALLER EQ PUSH2 0x844 JUMPI PUSH1 0x40 MLOAD PUSH3 0x461BCD PUSH1 0xE5 SHL DUP2 MSTORE PUSH1 0x4 ADD PUSH2 0x5D8 SWAP1 PUSH2 0xFB2 JUMP JUMPDEST PUSH1 0x0 DUP1 SLOAD PUSH1 0x40 MLOAD PUSH1 0x1 PUSH1 0x1 PUSH1 0xA0 SHL SUB DUP1 DUP6 AND SWAP4 SWAP3 AND SWAP2 PUSH32 0x342827C97908E5E2F71151C08502A66D44B6F758E3AC2F1DE95F02EB95F0A735 SWAP2 LOG3 PUSH1 0x0 DUP1 SLOAD PUSH1 0x1 PUSH1 0x1 PUSH1 0xA0 SHL SUB NOT AND PUSH1 0x1 PUSH1 0x1 PUSH1 0xA0 SHL SUB SWAP3 SWAP1 SWAP3 AND SWAP2 SWAP1 SWAP2 OR SWAP1 SSTORE JUMP JUMPDEST PUSH1 0x0 PUSH2 0x8AD PUSH1 0x5 SLOAD PUSH1 0xFF AND SWAP1 JUMP JUMPDEST ISZERO PUSH2 0x8CB JUMPI PUSH1 0x40 MLOAD PUSH4 0xAB35696F PUSH1 0xE0 SHL DUP2 MSTORE PUSH1 0x4 ADD PUSH1 0x40 MLOAD DUP1 SWAP2 SUB SWAP1 REVERT JUMPDEST PUSH2 0x8D6 CALLER DUP5 DUP5 PUSH2 0xB48 JUMP JUMPDEST PUSH2 0x912 JUMPI PUSH1 0x40 MLOAD PUSH3 0x461BCD PUSH1 0xE5 SHL DUP2 MSTORE PUSH1 0x20 PUSH1 0x4 DUP3 ADD MSTORE PUSH1 0xD PUSH1 0x24 DUP3 ADD MSTORE PUSH13 0x1D1C985B9CD9995C8819985A5B PUSH1 0x9A SHL PUSH1 0x44 DUP3 ADD MSTORE PUSH1 0x64 ADD PUSH2 0x5D8 JUMP JUMPDEST CALLER PUSH1 0x0 DUP2 DUP2 MSTORE PUSH1 0x7 PUSH1 0x20 MSTORE PUSH1 0x40 SWAP1 KECCAK256 SLOAD PUSH32 0x6A245A004AD1E70BEBE202E61569CDA6601EE9390641D85F8AA5D181A01C59CA SWAP1 PUSH1 0x40 MLOAD SWAP1 DUP2 MSTORE PUSH1 0x20 ADD PUSH1 0x40 MLOAD DUP1 SWAP2 SUB SWAP1 LOG2 PUSH1 0x1 PUSH1 0x1 PUSH1 0xA0 SHL SUB DUP4 AND PUSH1 0x0 DUP2 DUP2 MSTORE PUSH1 0x7 PUSH1 0x20 MSTORE PUSH1 0x40 SWAP1 KECCAK256 SLOAD PUSH32 0x6A245A004AD1E70BEBE202E61569CDA6601EE9390641D85F8AA5D181A01C59CA SWAP1 PUSH1 0x40 MLOAD SWAP1 DUP2 MSTORE PUSH1 0x20 ADD PUSH1 0x40 MLOAD DUP1 SWAP2 SUB SWAP1 LOG2 POP PUSH1 0x1 SWAP3 SWAP2 POP POP JUMP JUMPDEST PUSH1 0x0 DUP1 SLOAD PUSH1 0x1 PUSH1 0x1 PUSH1 0xA0 SHL SUB AND CALLER EQ PUSH2 0x9D5 JUMPI PUSH1 0x40 MLOAD PUSH3 0x461BCD PUSH1 0xE5 SHL DUP2 MSTORE PUSH1 0x4 ADD PUSH2 0x5D8 SWAP1 PUSH2 0xFB2 JUMP JUMPDEST PUSH2 0x455 DUP3 CALLER PUSH2 0xC4F JUMP JUMPDEST SWAP2 SWAP1 POP JUMP JUMPDEST PUSH1 0x0 SLOAD PUSH1 0x1 PUSH1 0x1 PUSH1 0xA0 SHL SUB AND CALLER EQ PUSH2 0xA0E JUMPI PUSH1 0x40 MLOAD PUSH3 0x461BCD PUSH1 0xE5 SHL DUP2 MSTORE PUSH1 0x4 ADD PUSH2 0x5D8 SWAP1 PUSH2 0xFB2 JUMP JUMPDEST PUSH1 0x1 PUSH1 0x1 PUSH1 0xA0 SHL SUB DUP2 AND PUSH1 0x0 SWAP1 DUP2 MSTORE PUSH1 0x8 PUSH1 0x20 MSTORE PUSH1 0x40 SWAP1 KECCAK256 SLOAD PUSH1 0xFF AND PUSH2 0xA47 JUMPI PUSH1 0x40 MLOAD PUSH4 0xBA55E0F PUSH1 0xE4 SHL DUP2 MSTORE PUSH1 0x4 ADD PUSH1 0x40 MLOAD DUP1 SWAP2 SUB SWAP1 REVERT JUMPDEST PUSH1 0x1 PUSH1 0x1 PUSH1 0xA0 SHL SUB DUP2 AND PUSH1 0x0 SWAP1 DUP2 MSTORE PUSH1 0x7 PUSH1 0x20 MSTORE PUSH1 0x40 DUP2 KECCAK256 DUP1 SLOAD SWAP1 DUP3 SWAP1 SSTORE PUSH1 0x4 DUP1 SLOAD SWAP2 SWAP3 DUP4 SWAP3 PUSH2 0xA78 SWAP1 DUP5 SWAP1 PUSH2 0xF9F JUMP JUMPDEST SWAP1 SWAP2 SSTORE POP POP PUSH1 0x40 MLOAD PUSH1 0x1 PUSH1 0x1 PUSH1 0xA0 SHL SUB DUP4 AND SWAP1 PUSH32 0xFC5960F1C5A5D2B60F031BF534AF053B1BF7D9881989AFAEB8B1D164DB23AEDE SWAP1 PUSH1 0x0 SWAP1 LOG2 DUP2 PUSH1 0x1 PUSH1 0x1 PUSH1 0xA0 SHL SUB AND PUSH32 0x1B7E18241BECED0D7F41FBAB1EA8ED468732EDBCB74EC4420151654CA71C8A63 DUP3 PUSH1 0x40 MLOAD PUSH2 0xAEC SWAP2 DUP2 MSTORE PUSH1 0x20 ADD SWAP1 JUMP JUMPDEST PUSH1 0x40 MLOAD DUP1 SWAP2 SUB SWAP1 LOG2 PUSH1 0x40 MLOAD DUP2 DUP2 MSTORE PUSH1 0x0 SWAP1 PUSH1 0x1 PUSH1 0x1 PUSH1 0xA0 SHL SUB DUP5 AND SWAP1 PUSH1 0x0 DUP1 MLOAD PUSH1 0x20 PUSH2 0xFF3 DUP4 CODECOPY DUP2 MLOAD SWAP2 MSTORE SWAP1 PUSH1 0x20 ADD PUSH1 0x40 MLOAD DUP1 SWAP2 SUB SWAP1 LOG3 POP POP JUMP JUMPDEST PUSH1 0x1 PUSH1 0x1 PUSH1 0xA0 SHL SUB DUP2 AND PUSH1 0x0 SWAP1 DUP2 MSTORE PUSH1 0x8 PUSH1 0x20 MSTORE PUSH1 0x40 DUP2 KECCAK256 SLOAD PUSH1 0xFF AND PUSH2 0x455 JUMP JUMPDEST PUSH1 0x1 PUSH1 0x1 PUSH1 0xA0 SHL SUB DUP4 AND PUSH1 0x0 SWAP1 DUP2 MSTORE PUSH1 0x7 PUSH1 0x20 MSTORE PUSH1 0x40 DUP2 KECCAK256 SLOAD DUP3 GT ISZERO PUSH2 0xBA7 JUMPI PUSH1 0x40 MLOAD PUSH3 0x461BCD PUSH1 0xE5 SHL DUP2 MSTORE PUSH1 0x20 PUSH1 0x4 DUP3 ADD MSTORE PUSH1 0x14 PUSH1 0x24 DUP3 ADD MSTORE PUSH20 0x496E73756666696369656E742062616C616E6365 PUSH1 0x60 SHL PUSH1 0x44 DUP3 ADD MSTORE PUSH1 0x64 ADD PUSH2 0x5D8 JUMP JUMPDEST PUSH1 0x1 PUSH1 0x1 PUSH1 0xA0 SHL SUB DUP5 AND PUSH1 0x0 SWAP1 DUP2 MSTORE PUSH1 0x7 PUSH1 0x20 MSTORE PUSH1 0x40 SWAP1 KECCAK256 SLOAD PUSH2 0xBCB SWAP1 DUP4 SWAP1 PUSH2 0xF9F JUMP JUMPDEST PUSH1 0x1 PUSH1 0x1 PUSH1 0xA0 SHL SUB DUP1 DUP7 AND PUSH1 0x0 SWAP1 DUP2 MSTORE PUSH1 0x7 PUSH1 0x20 MSTORE PUSH1 0x40 DUP1 DUP3 KECCAK256 SWAP4 SWAP1 SWAP4 SSTORE SWAP1 DUP6 AND DUP2 MSTORE KECCAK256 SLOAD PUSH2 0xBFB SWAP1 DUP4 SWAP1 PUSH2 0xFDF JUMP JUMPDEST PUSH1 0x1 PUSH1 0x1 PUSH1 0xA0 SHL SUB DUP1 DUP6 AND PUSH1 0x0 DUP2 DUP2 MSTORE PUSH1 0x7 PUSH1 0x20 MSTORE PUSH1 0x40 SWAP1 DUP2 SWAP1 KECCAK256 SWAP4 SWAP1 SWAP4 SSTORE SWAP2 MLOAD SWAP1 DUP7 AND SWAP1 PUSH1 0x0 DUP1 MLOAD PUSH1 0x20 PUSH2 0xFF3 DUP4 CODECOPY DUP2 MLOAD SWAP2 MSTORE SWAP1 PUSH2 0xC3D SWAP1 DUP7 DUP2 MSTORE PUSH1 0x20 ADD SWAP1 JUMP JUMPDEST PUSH1 0x40 MLOAD DUP1 SWAP2 SUB SWAP1 LOG3 POP PUSH1 0x1 SWAP4 SWAP3 POP POP POP JUMP JUMPDEST PUSH1 0x1 PUSH1 0x1 PUSH1 0xA0 SHL SUB DUP2 AND PUSH1 0x0 SWAP1 DUP2 MSTORE PUSH1 0x8 PUSH1 0x20 MSTORE PUSH1 0x40 DUP2 KECCAK256 SLOAD PUSH1 0xFF AND ISZERO PUSH2 0xCAF JUMPI PUSH1 0x40 MLOAD PUSH3 0x461BCD PUSH1 0xE5 SHL DUP2 MSTORE PUSH1 0x20 PUSH1 0x4 DUP3 ADD MSTORE PUSH1 0x14 PUSH1 0x24 DUP3 ADD MSTORE PUSH20 0x36B4B73A2A37A0B2323932B9B990333937BD32B7 PUSH1 0x61 SHL PUSH1 0x44 DUP3 ADD MSTORE PUSH1 0x64 ADD PUSH2 0x5D8 JUMP JUMPDEST DUP3 PUSH1 0x4 PUSH1 0x0 DUP3 DUP3 SLOAD PUSH2 0xCC1 SWAP2 SWAP1 PUSH2 0xFDF JUMP JUMPDEST SWAP1 SWAP2 SSTORE POP POP PUSH1 0x1 PUSH1 0x1 PUSH1 0xA0 SHL SUB DUP3 AND PUSH1 0x0 SWAP1 DUP2 MSTORE PUSH1 0x7 PUSH1 0x20 MSTORE PUSH1 0x40 DUP2 KECCAK256 DUP1 SLOAD DUP6 SWAP3 SWAP1 PUSH2 0xCEE SWAP1 DUP5 SWAP1 PUSH2 0xFDF JUMP JUMPDEST SWAP1 SWAP2 SSTORE POP POP PUSH1 0x40 MLOAD DUP4 DUP2 MSTORE PUSH1 0x1 PUSH1 0x1 PUSH1 0xA0 SHL SUB DUP4 AND SWAP1 PUSH32 0xF5C174D57843E57FEA3C649FDDE37F015EF08750759CBEE88060390566A98797 SWAP1 PUSH1 0x20 ADD PUSH1 0x40 MLOAD DUP1 SWAP2 SUB SWAP1 LOG2 PUSH1 0x40 MLOAD DUP4 DUP2 MSTORE PUSH1 0x1 PUSH1 0x1 PUSH1 0xA0 SHL SUB DUP4 AND SWAP1 PUSH1 0x0 SWAP1 PUSH1 0x0 DUP1 MLOAD PUSH1 0x20 PUSH2 0xFF3 DUP4 CODECOPY DUP2 MLOAD SWAP2 MSTORE SWAP1 PUSH1 0x20 ADD PUSH2 0x449 JUMP JUMPDEST PUSH1 0x1 PUSH1 0x1 PUSH1 0xA0 SHL SUB DUP2 AND PUSH1 0x0 DUP2 DUP2 MSTORE PUSH1 0x8 PUSH1 0x20 MSTORE PUSH1 0x40 DUP1 DUP3 KECCAK256 DUP1 SLOAD PUSH1 0xFF NOT AND SWAP1 SSTORE MLOAD PUSH32 0x150465B020DFC06A59269DA94ED66DB9B65A516CF4FDD5F583B0F12752339BBE SWAP2 SWAP1 LOG2 POP JUMP JUMPDEST PUSH1 0x1 PUSH1 0x1 PUSH1 0xA0 SHL SUB DUP2 AND PUSH1 0x0 DUP2 DUP2 MSTORE PUSH1 0x8 PUSH1 0x20 MSTORE PUSH1 0x40 DUP1 DUP3 KECCAK256 DUP1 SLOAD PUSH1 0xFF NOT AND PUSH1 0x1 OR SWAP1 SSTORE MLOAD PUSH32 0x1AA660498C83EA285BC55E4CFC00AFCAA7120798DB87B74F3C0D7C6E001BC392 SWAP2 SWAP1 LOG2 POP JUMP JUMPDEST PUSH1 0x20 DUP2 MSTORE PUSH1 0x0 DUP3 MLOAD DUP1 PUSH1 0x20 DUP5 ADD MSTORE PUSH1 0x0 JUMPDEST DUP2 DUP2 LT ISZERO PUSH2 0xE20 JUMPI PUSH1 0x20 DUP2 DUP7 ADD DUP2 ADD MLOAD PUSH1 0x40 DUP7 DUP5 ADD ADD MSTORE ADD PUSH2 0xE03 JUMP JUMPDEST POP PUSH1 0x0 PUSH1 0x40 DUP3 DUP6 ADD ADD MSTORE PUSH1 0x40 PUSH1 0x1F NOT PUSH1 0x1F DUP4 ADD AND DUP5 ADD ADD SWAP2 POP POP SWAP3 SWAP2 POP POP JUMP JUMPDEST DUP1 CALLDATALOAD PUSH1 0x1 PUSH1 0x1 PUSH1 0xA0 SHL SUB DUP2 AND DUP2 EQ PUSH2 0x9DF JUMPI PUSH1 0x0 DUP1 REVERT JUMPDEST PUSH1 0x0 DUP1 PUSH1 0x40 DUP4 DUP6 SUB SLT ISZERO PUSH2 0xE6A JUMPI PUSH1 0x0 DUP1 REVERT JUMPDEST PUSH2 0xE73 DUP4 PUSH2 0xE40 JUMP JUMPDEST SWAP5 PUSH1 0x20 SWAP4 SWAP1 SWAP4 ADD CALLDATALOAD SWAP4 POP POP POP JUMP JUMPDEST PUSH1 0x0 DUP1 PUSH1 0x40 DUP4 DUP6 SUB SLT ISZERO PUSH2 0xE94 JUMPI PUSH1 0x0 DUP1 REVERT JUMPDEST DUP3 CALLDATALOAD SWAP2 POP PUSH2 0xEA4 PUSH1 0x20 DUP5 ADD PUSH2 0xE40 JUMP JUMPDEST SWAP1 POP SWAP3 POP SWAP3 SWAP1 POP JUMP JUMPDEST PUSH1 0x0 DUP1 PUSH1 0x0 PUSH1 0x60 DUP5 DUP7 SUB SLT ISZERO PUSH2 0xEC2 JUMPI PUSH1 0x0 DUP1 REVERT JUMPDEST PUSH2 0xECB DUP5 PUSH2 0xE40 JUMP JUMPDEST SWAP3 POP PUSH2 0xED9 PUSH1 0x20 DUP6 ADD PUSH2 0xE40 JUMP JUMPDEST SWAP3 SWAP6 SWAP3 SWAP5 POP POP POP PUSH1 0x40 SWAP2 SWAP1 SWAP2 ADD CALLDATALOAD SWAP1 JUMP JUMPDEST PUSH1 0x0 PUSH1 0x20 DUP3 DUP5 SUB SLT ISZERO PUSH2 0xEFC JUMPI PUSH1 0x0 DUP1 REVERT JUMPDEST POP CALLDATALOAD SWAP2 SWAP1 POP JUMP JUMPDEST PUSH1 0x0 PUSH1 0x20 DUP3 DUP5 SUB SLT ISZERO PUSH2 0xF15 JUMPI PUSH1 0x0 DUP1 REVERT JUMPDEST PUSH2 0xF1E DUP3 PUSH2 0xE40 JUMP JUMPDEST SWAP4 SWAP3 POP POP POP JUMP JUMPDEST PUSH1 0x0 DUP1 PUSH1 0x40 DUP4 DUP6 SUB SLT ISZERO PUSH2 0xF38 JUMPI PUSH1 0x0 DUP1 REVERT JUMPDEST PUSH2 0xF41 DUP4 PUSH2 0xE40 JUMP JUMPDEST SWAP2 POP PUSH2 0xEA4 PUSH1 0x20 DUP5 ADD PUSH2 0xE40 JUMP JUMPDEST PUSH1 0x1 DUP2 DUP2 SHR SWAP1 DUP3 AND DUP1 PUSH2 0xF63 JUMPI PUSH1 0x7F DUP3 AND SWAP2 POP JUMPDEST PUSH1 0x20 DUP3 LT DUP2 SUB PUSH2 0xF83 JUMPI PUSH4 0x4E487B71 PUSH1 0xE0 SHL PUSH1 0x0 MSTORE PUSH1 0x22 PUSH1 0x4 MSTORE PUSH1 0x24 PUSH1 0x0 REVERT JUMPDEST POP SWAP2 SWAP1 POP JUMP JUMPDEST PUSH4 0x4E487B71 PUSH1 0xE0 SHL PUSH1 0x0 MSTORE PUSH1 0x11 PUSH1 0x4 MSTORE PUSH1 0x24 PUSH1 0x0 REVERT JUMPDEST DUP2 DUP2 SUB DUP2 DUP2 GT ISZERO PUSH2 0x455 JUMPI PUSH2 0x455 PUSH2 0xF89 JUMP JUMPDEST PUSH1 0x20 DUP1 DUP3 MSTORE PUSH1 0x13 SWAP1 DUP3 ADD MSTORE PUSH19 0x21B0B63632B91034B9903737BA1037BBB732B9 PUSH1 0x69 SHL PUSH1 0x40 DUP3 ADD MSTORE PUSH1 0x60 ADD SWAP1 JUMP JUMPDEST DUP1 DUP3 ADD DUP1 DUP3 GT ISZERO PUSH2 0x455 JUMPI PUSH2 0x455 PUSH2 0xF89 JUMP INVALID 0xDD CALLCODE MSTORE 0xAD SHL 0xE2 0xC8 SWAP12 PUSH10 0xC2B068FC378DAA952BA7 CALL PUSH4 0xC4A11628 CREATE2 GAS 0x4D CREATE2 0x23 0xB3 0xEF LOG2 PUSH5 0x6970667358 0x22 SLT KECCAK256 MSTORE8 SSTORE 0xD6 0xAD BLOBBASEFEE 0xDA SWAP9 0xE2 PUSH28 0x9F09EA94047E8E53DC86E7811E62FF2FF75D75E3E7591964736F6C63 NUMBER STOP ADDMOD BYTE STOP CALLER ","sha1":"5da36b32abda4b6f71d0e087840fdff71ea9f061","source":"// SPDX-License-Identifier: MIT\n\npragma solidity ^0.8.25;\n\nimport \"./Owner.sol\";\n\ncontract regulatedStableCoin is Owner{\n\n    string public symbol;\n    string public name;\n    uint256 public decimals;\n    uint256 public totalSupply;\n    bool public paused;\n\n    mapping(address => mapping(address => uint256)) allowed;\n    mapping(address => uint256) internal balances;\n    mapping(address => bool) internal frozen;\n        \n    event accountBalanceUpdate(address indexed Account, uint256 balances);\n    event Transfer(address indexed from, address indexed to, uint256 value);\n    event Approval(address indexed owner, address indexed spender, uint256 value);\n\n    // PAUSABLE EVENTS\n    event Pause();\n    event Unpause();\n\n    // ASSET PROTECTION EVENTS\n    event FrozenAddressWiped(address indexed addr);\n    event FreezeAddress(address indexed addr);\n    event UnfreezeAddress(address indexed addr);\n\n    event SupplyDecreased(address indexed from, uint256 value);\n    event SupplyIncreased(address indexed to, uint256 value);\n\n    error AddressNotFrozen();\n    error ContractPaused();\n    error AlreadyPaused();\n    error AlreadyUnPaused();\n    error InsufficientFunds();\n\n    constructor( \n        string memory _name, \n        string memory _symbol, \n        uint256 _decimals, \n        uint256 _totalSupply\n    ) \n        public \n    {\n        name = _name;\n        symbol = _symbol;\n        decimals = _decimals;\n        totalSupply = _totalSupply;\n        balances[msg.sender] = _totalSupply;\n        emit accountBalanceUpdate(msg.sender, _totalSupply);\n        emit SupplyIncreased(msg.sender, _totalSupply);\n    }\n\n    modifier whenNotPaused() {\n        if (_isPaused()) revert ContractPaused();\n        _;\n    }\n\n    function _isPaused() internal view returns (bool) {\n        return paused;\n    }\n\n    function balanceOf(address _owner) public view returns (uint256) {\n        return balances[_owner];\n    }\n\n    function allowance(address _owner, address _spender) public view returns (uint256){\n        return allowed[_owner][_spender];\n    }\n\n    function approve(address _spender, uint256 _value) public whenNotPaused returns (bool) {\n        allowed[msg.sender][_spender] = _value;\n        emit Approval(msg.sender, _spender, _value);\n        return true;\n    }\n\n    function _transfer(address _from, address _to, uint256 _value) internal returns (bool){\n        require(balances[_from] >= _value, \"Insufficient balance\");\n        balances[_from] = balances[_from] - _value;\n        balances[_to] = balances[_to] + _value;\n        emit Transfer(_from, _to, _value);\n        return true;\n    }\n\n    function transfer(address _to, uint256 _value) public whenNotPaused returns (bool) {\n        require(_transfer(msg.sender, _to, _value), \"transfer fail\");\n        emit accountBalanceUpdate(msg.sender, balanceOf(msg.sender));\n        emit accountBalanceUpdate( _to, balanceOf(_to));\n        return true;\n    }\n\n    function transferFrom(address _from, address _to, uint256 _value) public whenNotPaused returns (bool){\n        require(allowed[_from][msg.sender] >= _value, \"Insufficient allowance\");\n        allowed[_from][msg.sender] = allowed[_from][msg.sender] - _value;\n        _transfer(_from, _to, _value);\n        return true;\n    }\n\n    function _freeze(address addr) private {\n        frozen[addr] = true;\n        emit FreezeAddress(addr);\n    }\n\n    function freeze(address addr) public onlyOwner{\n        _freeze(addr);\n    }\n\n    function _unfreeze(address addr) private {\n        delete frozen[addr];\n        emit UnfreezeAddress(addr);\n    }\n\n    function unfreeze(address addr) public onlyOwner {\n        _unfreeze(addr);\n    }\n\n    function wipeFrozenAddress(address addr) public onlyOwner {\n            if (!_isAddrFrozen(addr)) revert AddressNotFrozen();\n            uint256 balance = balances[addr];\n            balances[addr] = 0;\n            totalSupply -= balance;\n            emit FrozenAddressWiped(addr);\n            emit SupplyDecreased(addr, balance);\n            emit Transfer(addr, address(0), balance);\n    }\n\n    function isFrozen(address addr) external view returns (bool) {\n        return _isAddrFrozen(addr);\n    }\n\n    function _isAddrFrozen(address addr) internal view  returns (bool) {\n        return frozen[addr];\n    }\n\n    function decreaseSupplyFromAddress(uint256 value, address burnFromAddress) public virtual returns (bool success) {\n\n        if (value > balances[burnFromAddress]) revert InsufficientFunds();\n\n        balances[burnFromAddress] -= value;\n        totalSupply -= value;\n        emit SupplyDecreased(burnFromAddress, value);\n        emit Transfer(burnFromAddress, address(0), value);\n        return true;\n    }\n\n\n    function decreaseSupply(uint256 value) public returns (bool success) {\n        return decreaseSupplyFromAddress(value, msg.sender);\n    }\n\n\n    function burn(uint256 amount) public {\n        decreaseSupply(amount);\n    }\n\n\n    function increaseSupplyToAddress(uint256 value, address mintToAddress) internal virtual returns (bool success) {\n        require(!_isAddrFrozen(mintToAddress), \"mintToAddress frozen\");\n        totalSupply += value;\n        balances[mintToAddress] += value;\n        emit SupplyIncreased(mintToAddress, value);\n        emit Transfer(address(0), mintToAddress, value);\n        return true;\n\n    }\n\n    function increaseSupply(uint256 value) public onlyOwner returns (bool success) {\n        return increaseSupplyToAddress(value, msg.sender);\n    }\n\n    function mint(address account, uint256 amount) public onlyOwner {\n        increaseSupplyToAddress(amount, account);\n    }\n\n    function pause() public onlyOwner {\n        if (paused) revert AlreadyPaused();\n        paused = true;\n        emit Pause();\n    }\n\n    function unpause() public onlyOwner {\n        if (!paused) revert AlreadyUnPaused();\n        paused = false;\n        emit Unpause();\n    }\n\n}","sourcePath":"contracts/regulatedStableCoin.sol","deployment":{"address":"0x95ed705E2587dd22949588C437284A79ffC4aFf5","chainid":"5777","blockHeight":385}}