{"abi":[{"inputs":[{"internalType":"string","name":"_name","type":"string"},{"internalType":"string","name":"_symbol","type":"string"},{"internalType":"uint256","name":"_decimals","type":"uint256"},{"internalType":"uint256","name":"_totalSupply","type":"uint256"}],"stateMutability":"nonpayable","type":"constructor","name":"constructor"},{"inputs":[],"name":"AddressNotFrozen","type":"error"},{"anonymous":false,"inputs":[{"indexed":true,"internalType":"address","name":"owner","type":"address"},{"indexed":true,"internalType":"address","name":"spender","type":"address"},{"indexed":false,"internalType":"uint256","name":"value","type":"uint256"}],"name":"Approval","type":"event"},{"anonymous":false,"inputs":[{"indexed":true,"internalType":"address","name":"addr","type":"address"}],"name":"FreezeAddress","type":"event"},{"anonymous":false,"inputs":[{"indexed":true,"internalType":"address","name":"addr","type":"address"}],"name":"FrozenAddressWiped","type":"event"},{"anonymous":false,"inputs":[{"indexed":true,"internalType":"address","name":"oldOwner","type":"address"},{"indexed":true,"internalType":"address","name":"newOwner","type":"address"}],"name":"OwnerSet","type":"event"},{"anonymous":false,"inputs":[{"indexed":true,"internalType":"address","name":"from","type":"address"},{"indexed":false,"internalType":"uint256","name":"value","type":"uint256"}],"name":"SupplyDecreased","type":"event"},{"anonymous":false,"inputs":[{"indexed":true,"internalType":"address","name":"to","type":"address"},{"indexed":false,"internalType":"uint256","name":"value","type":"uint256"}],"name":"SupplyIncreased","type":"event"},{"anonymous":false,"inputs":[{"indexed":true,"internalType":"address","name":"from","type":"address"},{"indexed":true,"internalType":"address","name":"to","type":"address"},{"indexed":false,"internalType":"uint256","name":"value","type":"uint256"}],"name":"Transfer","type":"event"},{"anonymous":false,"inputs":[{"indexed":false,"internalType":"address","name":"senderAccount","type":"address"},{"indexed":false,"internalType":"uint256","name":"SernderBalances","type":"uint256"},{"indexed":false,"internalType":"address","name":"ReceiverAccount","type":"address"},{"indexed":false,"internalType":"uint256","name":"ReceiverBalances","type":"uint256"}],"name":"accountBalanceUpdate","type":"event"},{"inputs":[{"internalType":"address","name":"_owner","type":"address"},{"internalType":"address","name":"_spender","type":"address"}],"name":"allowance","outputs":[{"internalType":"uint256","name":"","type":"uint256"}],"stateMutability":"view","type":"function"},{"inputs":[{"internalType":"address","name":"_spender","type":"address"},{"internalType":"uint256","name":"_value","type":"uint256"}],"name":"approve","outputs":[{"internalType":"bool","name":"","type":"bool"}],"stateMutability":"nonpayable","type":"function"},{"inputs":[{"internalType":"address","name":"_owner","type":"address"}],"name":"balanceOf","outputs":[{"internalType":"uint256","name":"","type":"uint256"}],"stateMutability":"view","type":"function"},{"inputs":[{"internalType":"address","name":"newOwner","type":"address"}],"name":"changeOwner","outputs":[],"stateMutability":"nonpayable","type":"function"},{"inputs":[],"name":"decimals","outputs":[{"internalType":"uint256","name":"","type":"uint256"}],"stateMutability":"view","type":"function"},{"inputs":[{"internalType":"address","name":"addr","type":"address"}],"name":"freeze","outputs":[],"stateMutability":"nonpayable","type":"function"},{"inputs":[],"name":"getOwner","outputs":[{"internalType":"address","name":"","type":"address"}],"stateMutability":"view","type":"function"},{"inputs":[{"internalType":"uint256","name":"value","type":"uint256"}],"name":"increaseSupply","outputs":[{"internalType":"bool","name":"success","type":"bool"}],"stateMutability":"nonpayable","type":"function"},{"inputs":[{"internalType":"address","name":"account","type":"address"},{"internalType":"uint256","name":"amount","type":"uint256"}],"name":"mint","outputs":[],"stateMutability":"nonpayable","type":"function"},{"inputs":[],"name":"name","outputs":[{"internalType":"string","name":"","type":"string"}],"stateMutability":"view","type":"function"},{"inputs":[],"name":"symbol","outputs":[{"internalType":"string","name":"","type":"string"}],"stateMutability":"view","type":"function"},{"inputs":[{"internalType":"address","name":"_to","type":"address"},{"internalType":"uint256","name":"_value","type":"uint256"}],"name":"transfer","outputs":[{"internalType":"bool","name":"","type":"bool"}],"stateMutability":"nonpayable","type":"function"},{"inputs":[{"internalType":"address","name":"_from","type":"address"},{"internalType":"address","name":"_to","type":"address"},{"internalType":"uint256","name":"_value","type":"uint256"}],"name":"transferFrom","outputs":[{"internalType":"bool","name":"","type":"bool"}],"stateMutability":"nonpayable","type":"function"},{"inputs":[{"internalType":"address","name":"addr","type":"address"}],"name":"wipeFrozenAddress","outputs":[],"stateMutability":"nonpayable","type":"function"}],"bytecode":"608060405234801561001057600080fd5b50604051610fb1380380610fb183398101604081905261002f916101e3565b600080546001600160a01b0319163390811782556040519091907f342827c97908e5e2f71151c08502a66d44b6f758e3ac2f1de95f02eb95f0a735908290a3600261007a85826102e5565b50600161008784826102e5565b50600382905560048190553360008181526006602090815260408083208590558051928352908201849052810191909152606081018290527fb0768c332449e19ac5d2f322b43cb1a0320c4fd4753f389e56981d1bb5f4014d9060800160405180910390a160405181815233907ff5c174d57843e57fea3c649fdde37f015ef08750759cbee88060390566a987979060200160405180910390a2505050506103a3565b634e487b7160e01b600052604160045260246000fd5b600082601f83011261015157600080fd5b81516001600160401b0381111561016a5761016a61012a565b604051601f8201601f19908116603f011681016001600160401b03811182821017156101985761019861012a565b6040528181528382016020018510156101b057600080fd5b60005b828110156101cf576020818601810151838301820152016101b3565b506000918101602001919091529392505050565b600080600080608085870312156101f957600080fd5b84516001600160401b0381111561020f57600080fd5b61021b87828801610140565b602087015190955090506001600160401b0381111561023957600080fd5b61024587828801610140565b604087015160609097015195989097509350505050565b600181811c9082168061027057607f821691505b60208210810361029057634e487b7160e01b600052602260045260246000fd5b50919050565b601f8211156102e057806000526020600020601f840160051c810160208510156102bd5750805b601f840160051c820191505b818110156102dd57600081556001016102c9565b50505b505050565b81516001600160401b038111156102fe576102fe61012a565b6103128161030c845461025c565b84610296565b6020601f821160018114610346576000831561032e5750848201515b600019600385901b1c1916600184901b1784556102dd565b600084815260208120601f198516915b828110156103765787850151825560209485019460019092019101610356565b50848210156103945786840151600019600387901b60f8161c191681555b50505050600190811b01905550565b610bff806103b26000396000f3fe608060405234801561001057600080fd5b50600436106100ea5760003560e01c80638d1fdf2f1161008c578063a9059cbb11610066578063a9059cbb146101e1578063b921e163146101f4578063dd62ed3e14610207578063e2f72f031461024057600080fd5b80638d1fdf2f146101b357806395d89b41146101c6578063a6f9dae1146101ce57600080fd5b8063313ce567116100c8578063313ce5671461014357806340c10f191461015a57806370a082311461016f578063893d20e81461019857600080fd5b806306fdde03146100ef578063095ea7b31461010d57806323b872dd14610130575b600080fd5b6100f7610253565b60405161010491906109ec565b60405180910390f35b61012061011b366004610a51565b6102e1565b6040519015158152602001610104565b61012061013e366004610a7b565b61034e565b61014c60035481565b604051908152602001610104565b61016d610168366004610a51565b610428565b005b61014c61017d366004610ab8565b6001600160a01b031660009081526006602052604090205490565b6000546040516001600160a01b039091168152602001610104565b61016d6101c1366004610ab8565b610461565b6100f76104d7565b61016d6101dc366004610ab8565b6104e4565b6101206101ef366004610a51565b610569565b610120610202366004610ada565b610621565b61014c610215366004610af3565b6001600160a01b03918216600090815260056020908152604080832093909416825291909152205490565b61016d61024e366004610ab8565b61065e565b6002805461026090610b26565b80601f016020809104026020016040519081016040528092919081815260200182805461028c90610b26565b80156102d95780601f106102ae576101008083540402835291602001916102d9565b820191906000526020600020905b8154815290600101906020018083116102bc57829003601f168201915b505050505081565b3360008181526005602090815260408083206001600160a01b038716808552925280832085905551919290917f8c5be1e5ebec7d5bd14f71427d1e84f3dd0314c0f7b2291e5b200ac8c7c3b9259061033c9086815260200190565b60405180910390a35060015b92915050565b6001600160a01b03831660009081526005602090815260408083203384529091528120548211156103bf5760405162461bcd60e51b8152602060048201526016602482015275496e73756666696369656e7420616c6c6f77616e636560501b60448201526064015b60405180910390fd5b6001600160a01b03841660009081526005602090815260408083203384529091529020546103ee908390610b76565b6001600160a01b038516600090815260056020908152604080832033845290915290205561041d8484846107b3565b506001949350505050565b6000546001600160a01b031633146104525760405162461bcd60e51b81526004016103b690610b89565b61045c81836108cc565b505050565b6000546001600160a01b0316331461048b5760405162461bcd60e51b81526004016103b690610b89565b6001600160a01b038116600081815260076020526040808220805460ff19166001179055517f1aa660498c83ea285bc55e4cfc00afcaa7120798db87b74f3c0d7c6e001bc3929190a250565b6001805461026090610b26565b6000546001600160a01b0316331461050e5760405162461bcd60e51b81526004016103b690610b89565b600080546040516001600160a01b03808516939216917f342827c97908e5e2f71151c08502a66d44b6f758e3ac2f1de95f02eb95f0a73591a3600080546001600160a01b0319166001600160a01b0392909216919091179055565b60006105763384846107b3565b6105b25760405162461bcd60e51b815260206004820152600d60248201526c1d1c985b9cd9995c8819985a5b609a1b60448201526064016103b6565b336000818152600660209081526040808320546001600160a01b038816808552938290205482519586529285015283019190915260608201527fb0768c332449e19ac5d2f322b43cb1a0320c4fd4753f389e56981d1bb5f4014d9060800160405180910390a150600192915050565b600080546001600160a01b0316331461064c5760405162461bcd60e51b81526004016103b690610b89565b61065682336108cc565b90505b919050565b6000546001600160a01b031633146106885760405162461bcd60e51b81526004016103b690610b89565b6001600160a01b03811660009081526007602052604090205460ff166106c157604051630ba55e0f60e41b815260040160405180910390fd5b6001600160a01b038116600090815260066020526040812080549082905560048054919283926106f2908490610b76565b90915550506040516001600160a01b038316907ffc5960f1c5a5d2b60f031bf534af053b1bf7d9881989afaeb8b1d164db23aede90600090a2816001600160a01b03167f1b7e18241beced0d7f41fbab1ea8ed468732edbcb74ec4420151654ca71c8a638260405161076691815260200190565b60405180910390a26040518181526000906001600160a01b038416907fddf252ad1be2c89b69c2b068fc378daa952ba7f163c4a11628f55a4df523b3ef9060200160405180910390a35050565b6001600160a01b0383166000908152600660205260408120548211156108125760405162461bcd60e51b8152602060048201526014602482015273496e73756666696369656e742062616c616e636560601b60448201526064016103b6565b6001600160a01b038416600090815260066020526040902054610836908390610b76565b6001600160a01b038086166000908152600660205260408082209390935590851681522054610866908390610bb6565b6001600160a01b0380851660008181526006602052604090819020939093559151908616907fddf252ad1be2c89b69c2b068fc378daa952ba7f163c4a11628f55a4df523b3ef906108ba9086815260200190565b60405180910390a35060019392505050565b6001600160a01b03811660009081526007602052604081205460ff161561092c5760405162461bcd60e51b815260206004820152601460248201527336b4b73a2a37a0b2323932b9b990333937bd32b760611b60448201526064016103b6565b826004600082825461093e9190610bb6565b90915550506001600160a01b0382166000908152600660205260408120805485929061096b908490610bb6565b90915550506040518381526001600160a01b038316907ff5c174d57843e57fea3c649fdde37f015ef08750759cbee88060390566a987979060200160405180910390a26040518381526001600160a01b038316906000907fddf252ad1be2c89b69c2b068fc378daa952ba7f163c4a11628f55a4df523b3ef9060200161033c565b602081526000825180602084015260005b81811015610a1a57602081860181015160408684010152016109fd565b506000604082850101526040601f19601f83011684010191505092915050565b80356001600160a01b038116811461065957600080fd5b60008060408385031215610a6457600080fd5b610a6d83610a3a565b946020939093013593505050565b600080600060608486031215610a9057600080fd5b610a9984610a3a565b9250610aa760208501610a3a565b929592945050506040919091013590565b600060208284031215610aca57600080fd5b610ad382610a3a565b9392505050565b600060208284031215610aec57600080fd5b5035919050565b60008060408385031215610b0657600080fd5b610b0f83610a3a565b9150610b1d60208401610a3a565b90509250929050565b600181811c90821680610b3a57607f821691505b602082108103610b5a57634e487b7160e01b600052602260045260246000fd5b50919050565b634e487b7160e01b600052601160045260246000fd5b8181038181111561034857610348610b60565b60208082526013908201527221b0b63632b91034b9903737ba1037bbb732b960691b604082015260600190565b8082018082111561034857610348610b6056fea26469706673582212200fc18b158e7fd9a3b7bad243dafb9d94b96700b8ae1546e98357c373f7a6fe4f64736f6c634300081a0033","bytecodeSha1":"46431df3ea981a4c9e79fbf866883c019e3441de","compiler":{"evm_version":"istanbul","optimizer":{"enabled":true,"runs":200},"version":"0.8.26+commit.8a97fa7a"},"contractName":"regulatedStableCoin","language":"Solidity","natspec":{"kind":"dev","methods":{"changeOwner(address)":{"details":"Change owner","params":{"newOwner":"address of new owner"}},"getOwner()":{"details":"Return owner address ","returns":{"_0":"address of owner"}},"increaseSupply(uint256)":{"details":"Wrapper around 'increaseSupplyToAddress' to extend the API","params":{"value":"The number of tokens to add. "},"returns":{"success":"A boolean that indicates if the operation was successful"}},"mint(address,uint256)":{"details":"Wrapper around `increaseSupplyToAddress` to extend the API","params":{"account":"Address to mint tokens to","amount":"The number of tokens to add"}}},"version":1},"opcodes":"PUSH1 0x80 PUSH1 0x40 MSTORE CALLVALUE DUP1 ISZERO PUSH2 0x10 JUMPI PUSH1 0x0 DUP1 REVERT JUMPDEST POP PUSH1 0x4 CALLDATASIZE LT PUSH2 0xEA JUMPI PUSH1 0x0 CALLDATALOAD PUSH1 0xE0 SHR DUP1 PUSH4 0x8D1FDF2F GT PUSH2 0x8C JUMPI DUP1 PUSH4 0xA9059CBB GT PUSH2 0x66 JUMPI DUP1 PUSH4 0xA9059CBB EQ PUSH2 0x1E1 JUMPI DUP1 PUSH4 0xB921E163 EQ PUSH2 0x1F4 JUMPI DUP1 PUSH4 0xDD62ED3E EQ PUSH2 0x207 JUMPI DUP1 PUSH4 0xE2F72F03 EQ PUSH2 0x240 JUMPI PUSH1 0x0 DUP1 REVERT JUMPDEST DUP1 PUSH4 0x8D1FDF2F EQ PUSH2 0x1B3 JUMPI DUP1 PUSH4 0x95D89B41 EQ PUSH2 0x1C6 JUMPI DUP1 PUSH4 0xA6F9DAE1 EQ PUSH2 0x1CE JUMPI PUSH1 0x0 DUP1 REVERT JUMPDEST DUP1 PUSH4 0x313CE567 GT PUSH2 0xC8 JUMPI DUP1 PUSH4 0x313CE567 EQ PUSH2 0x143 JUMPI DUP1 PUSH4 0x40C10F19 EQ PUSH2 0x15A JUMPI DUP1 PUSH4 0x70A08231 EQ PUSH2 0x16F JUMPI DUP1 PUSH4 0x893D20E8 EQ PUSH2 0x198 JUMPI PUSH1 0x0 DUP1 REVERT JUMPDEST DUP1 PUSH4 0x6FDDE03 EQ PUSH2 0xEF JUMPI DUP1 PUSH4 0x95EA7B3 EQ PUSH2 0x10D JUMPI DUP1 PUSH4 0x23B872DD EQ PUSH2 0x130 JUMPI JUMPDEST PUSH1 0x0 DUP1 REVERT JUMPDEST PUSH2 0xF7 PUSH2 0x253 JUMP JUMPDEST PUSH1 0x40 MLOAD PUSH2 0x104 SWAP2 SWAP1 PUSH2 0x9EC JUMP JUMPDEST PUSH1 0x40 MLOAD DUP1 SWAP2 SUB SWAP1 RETURN JUMPDEST PUSH2 0x120 PUSH2 0x11B CALLDATASIZE PUSH1 0x4 PUSH2 0xA51 JUMP JUMPDEST PUSH2 0x2E1 JUMP JUMPDEST PUSH1 0x40 MLOAD SWAP1 ISZERO ISZERO DUP2 MSTORE PUSH1 0x20 ADD PUSH2 0x104 JUMP JUMPDEST PUSH2 0x120 PUSH2 0x13E CALLDATASIZE PUSH1 0x4 PUSH2 0xA7B JUMP JUMPDEST PUSH2 0x34E JUMP JUMPDEST PUSH2 0x14C PUSH1 0x3 SLOAD DUP2 JUMP JUMPDEST PUSH1 0x40 MLOAD SWAP1 DUP2 MSTORE PUSH1 0x20 ADD PUSH2 0x104 JUMP JUMPDEST PUSH2 0x16D PUSH2 0x168 CALLDATASIZE PUSH1 0x4 PUSH2 0xA51 JUMP JUMPDEST PUSH2 0x428 JUMP JUMPDEST STOP JUMPDEST PUSH2 0x14C PUSH2 0x17D CALLDATASIZE PUSH1 0x4 PUSH2 0xAB8 JUMP JUMPDEST PUSH1 0x1 PUSH1 0x1 PUSH1 0xA0 SHL SUB AND PUSH1 0x0 SWAP1 DUP2 MSTORE PUSH1 0x6 PUSH1 0x20 MSTORE PUSH1 0x40 SWAP1 KECCAK256 SLOAD SWAP1 JUMP JUMPDEST PUSH1 0x0 SLOAD PUSH1 0x40 MLOAD PUSH1 0x1 PUSH1 0x1 PUSH1 0xA0 SHL SUB SWAP1 SWAP2 AND DUP2 MSTORE PUSH1 0x20 ADD PUSH2 0x104 JUMP JUMPDEST PUSH2 0x16D PUSH2 0x1C1 CALLDATASIZE PUSH1 0x4 PUSH2 0xAB8 JUMP JUMPDEST PUSH2 0x461 JUMP JUMPDEST PUSH2 0xF7 PUSH2 0x4D7 JUMP JUMPDEST PUSH2 0x16D PUSH2 0x1DC CALLDATASIZE PUSH1 0x4 PUSH2 0xAB8 JUMP JUMPDEST PUSH2 0x4E4 JUMP JUMPDEST PUSH2 0x120 PUSH2 0x1EF CALLDATASIZE PUSH1 0x4 PUSH2 0xA51 JUMP JUMPDEST PUSH2 0x569 JUMP JUMPDEST PUSH2 0x120 PUSH2 0x202 CALLDATASIZE PUSH1 0x4 PUSH2 0xADA JUMP JUMPDEST PUSH2 0x621 JUMP JUMPDEST PUSH2 0x14C PUSH2 0x215 CALLDATASIZE PUSH1 0x4 PUSH2 0xAF3 JUMP JUMPDEST PUSH1 0x1 PUSH1 0x1 PUSH1 0xA0 SHL SUB SWAP2 DUP3 AND PUSH1 0x0 SWAP1 DUP2 MSTORE PUSH1 0x5 PUSH1 0x20 SWAP1 DUP2 MSTORE PUSH1 0x40 DUP1 DUP4 KECCAK256 SWAP4 SWAP1 SWAP5 AND DUP3 MSTORE SWAP2 SWAP1 SWAP2 MSTORE KECCAK256 SLOAD SWAP1 JUMP JUMPDEST PUSH2 0x16D PUSH2 0x24E CALLDATASIZE PUSH1 0x4 PUSH2 0xAB8 JUMP JUMPDEST PUSH2 0x65E JUMP JUMPDEST PUSH1 0x2 DUP1 SLOAD PUSH2 0x260 SWAP1 PUSH2 0xB26 JUMP JUMPDEST DUP1 PUSH1 0x1F ADD PUSH1 0x20 DUP1 SWAP2 DIV MUL PUSH1 0x20 ADD PUSH1 0x40 MLOAD SWAP1 DUP2 ADD PUSH1 0x40 MSTORE DUP1 SWAP3 SWAP2 SWAP1 DUP2 DUP2 MSTORE PUSH1 0x20 ADD DUP3 DUP1 SLOAD PUSH2 0x28C SWAP1 PUSH2 0xB26 JUMP JUMPDEST DUP1 ISZERO PUSH2 0x2D9 JUMPI DUP1 PUSH1 0x1F LT PUSH2 0x2AE JUMPI PUSH2 0x100 DUP1 DUP4 SLOAD DIV MUL DUP4 MSTORE SWAP2 PUSH1 0x20 ADD SWAP2 PUSH2 0x2D9 JUMP JUMPDEST DUP3 ADD SWAP2 SWAP1 PUSH1 0x0 MSTORE PUSH1 0x20 PUSH1 0x0 KECCAK256 SWAP1 JUMPDEST DUP2 SLOAD DUP2 MSTORE SWAP1 PUSH1 0x1 ADD SWAP1 PUSH1 0x20 ADD DUP1 DUP4 GT PUSH2 0x2BC JUMPI DUP3 SWAP1 SUB PUSH1 0x1F AND DUP3 ADD SWAP2 JUMPDEST POP POP POP POP POP DUP2 JUMP JUMPDEST CALLER PUSH1 0x0 DUP2 DUP2 MSTORE PUSH1 0x5 PUSH1 0x20 SWAP1 DUP2 MSTORE PUSH1 0x40 DUP1 DUP4 KECCAK256 PUSH1 0x1 PUSH1 0x1 PUSH1 0xA0 SHL SUB DUP8 AND DUP1 DUP6 MSTORE SWAP3 MSTORE DUP1 DUP4 KECCAK256 DUP6 SWAP1 SSTORE MLOAD SWAP2 SWAP3 SWAP1 SWAP2 PUSH32 0x8C5BE1E5EBEC7D5BD14F71427D1E84F3DD0314C0F7B2291E5B200AC8C7C3B925 SWAP1 PUSH2 0x33C SWAP1 DUP7 DUP2 MSTORE PUSH1 0x20 ADD SWAP1 JUMP JUMPDEST PUSH1 0x40 MLOAD DUP1 SWAP2 SUB SWAP1 LOG3 POP PUSH1 0x1 JUMPDEST SWAP3 SWAP2 POP POP JUMP JUMPDEST PUSH1 0x1 PUSH1 0x1 PUSH1 0xA0 SHL SUB DUP4 AND PUSH1 0x0 SWAP1 DUP2 MSTORE PUSH1 0x5 PUSH1 0x20 SWAP1 DUP2 MSTORE PUSH1 0x40 DUP1 DUP4 KECCAK256 CALLER DUP5 MSTORE SWAP1 SWAP2 MSTORE DUP2 KECCAK256 SLOAD DUP3 GT ISZERO PUSH2 0x3BF JUMPI PUSH1 0x40 MLOAD PUSH3 0x461BCD PUSH1 0xE5 SHL DUP2 MSTORE PUSH1 0x20 PUSH1 0x4 DUP3 ADD MSTORE PUSH1 0x16 PUSH1 0x24 DUP3 ADD MSTORE PUSH22 0x496E73756666696369656E7420616C6C6F77616E6365 PUSH1 0x50 SHL PUSH1 0x44 DUP3 ADD MSTORE PUSH1 0x64 ADD JUMPDEST PUSH1 0x40 MLOAD DUP1 SWAP2 SUB SWAP1 REVERT JUMPDEST PUSH1 0x1 PUSH1 0x1 PUSH1 0xA0 SHL SUB DUP5 AND PUSH1 0x0 SWAP1 DUP2 MSTORE PUSH1 0x5 PUSH1 0x20 SWAP1 DUP2 MSTORE PUSH1 0x40 DUP1 DUP4 KECCAK256 CALLER DUP5 MSTORE SWAP1 SWAP2 MSTORE SWAP1 KECCAK256 SLOAD PUSH2 0x3EE SWAP1 DUP4 SWAP1 PUSH2 0xB76 JUMP JUMPDEST PUSH1 0x1 PUSH1 0x1 PUSH1 0xA0 SHL SUB DUP6 AND PUSH1 0x0 SWAP1 DUP2 MSTORE PUSH1 0x5 PUSH1 0x20 SWAP1 DUP2 MSTORE PUSH1 0x40 DUP1 DUP4 KECCAK256 CALLER DUP5 MSTORE SWAP1 SWAP2 MSTORE SWAP1 KECCAK256 SSTORE PUSH2 0x41D DUP5 DUP5 DUP5 PUSH2 0x7B3 JUMP JUMPDEST POP PUSH1 0x1 SWAP5 SWAP4 POP POP POP POP JUMP JUMPDEST PUSH1 0x0 SLOAD PUSH1 0x1 PUSH1 0x1 PUSH1 0xA0 SHL SUB AND CALLER EQ PUSH2 0x452 JUMPI PUSH1 0x40 MLOAD PUSH3 0x461BCD PUSH1 0xE5 SHL DUP2 MSTORE PUSH1 0x4 ADD PUSH2 0x3B6 SWAP1 PUSH2 0xB89 JUMP JUMPDEST PUSH2 0x45C DUP2 DUP4 PUSH2 0x8CC JUMP JUMPDEST POP POP POP JUMP JUMPDEST PUSH1 0x0 SLOAD PUSH1 0x1 PUSH1 0x1 PUSH1 0xA0 SHL SUB AND CALLER EQ PUSH2 0x48B JUMPI PUSH1 0x40 MLOAD PUSH3 0x461BCD PUSH1 0xE5 SHL DUP2 MSTORE PUSH1 0x4 ADD PUSH2 0x3B6 SWAP1 PUSH2 0xB89 JUMP JUMPDEST PUSH1 0x1 PUSH1 0x1 PUSH1 0xA0 SHL SUB DUP2 AND PUSH1 0x0 DUP2 DUP2 MSTORE PUSH1 0x7 PUSH1 0x20 MSTORE PUSH1 0x40 DUP1 DUP3 KECCAK256 DUP1 SLOAD PUSH1 0xFF NOT AND PUSH1 0x1 OR SWAP1 SSTORE MLOAD PUSH32 0x1AA660498C83EA285BC55E4CFC00AFCAA7120798DB87B74F3C0D7C6E001BC392 SWAP2 SWAP1 LOG2 POP JUMP JUMPDEST PUSH1 0x1 DUP1 SLOAD PUSH2 0x260 SWAP1 PUSH2 0xB26 JUMP JUMPDEST PUSH1 0x0 SLOAD PUSH1 0x1 PUSH1 0x1 PUSH1 0xA0 SHL SUB AND CALLER EQ PUSH2 0x50E JUMPI PUSH1 0x40 MLOAD PUSH3 0x461BCD PUSH1 0xE5 SHL DUP2 MSTORE PUSH1 0x4 ADD PUSH2 0x3B6 SWAP1 PUSH2 0xB89 JUMP JUMPDEST PUSH1 0x0 DUP1 SLOAD PUSH1 0x40 MLOAD PUSH1 0x1 PUSH1 0x1 PUSH1 0xA0 SHL SUB DUP1 DUP6 AND SWAP4 SWAP3 AND SWAP2 PUSH32 0x342827C97908E5E2F71151C08502A66D44B6F758E3AC2F1DE95F02EB95F0A735 SWAP2 LOG3 PUSH1 0x0 DUP1 SLOAD PUSH1 0x1 PUSH1 0x1 PUSH1 0xA0 SHL SUB NOT AND PUSH1 0x1 PUSH1 0x1 PUSH1 0xA0 SHL SUB SWAP3 SWAP1 SWAP3 AND SWAP2 SWAP1 SWAP2 OR SWAP1 SSTORE JUMP JUMPDEST PUSH1 0x0 PUSH2 0x576 CALLER DUP5 DUP5 PUSH2 0x7B3 JUMP JUMPDEST PUSH2 0x5B2 JUMPI PUSH1 0x40 MLOAD PUSH3 0x461BCD PUSH1 0xE5 SHL DUP2 MSTORE PUSH1 0x20 PUSH1 0x4 DUP3 ADD MSTORE PUSH1 0xD PUSH1 0x24 DUP3 ADD MSTORE PUSH13 0x1D1C985B9CD9995C8819985A5B PUSH1 0x9A SHL PUSH1 0x44 DUP3 ADD MSTORE PUSH1 0x64 ADD PUSH2 0x3B6 JUMP JUMPDEST CALLER PUSH1 0x0 DUP2 DUP2 MSTORE PUSH1 0x6 PUSH1 0x20 SWAP1 DUP2 MSTORE PUSH1 0x40 DUP1 DUP4 KECCAK256 SLOAD PUSH1 0x1 PUSH1 0x1 PUSH1 0xA0 SHL SUB DUP9 AND DUP1 DUP6 MSTORE SWAP4 DUP3 SWAP1 KECCAK256 SLOAD DUP3 MLOAD SWAP6 DUP7 MSTORE SWAP3 DUP6 ADD MSTORE DUP4 ADD SWAP2 SWAP1 SWAP2 MSTORE PUSH1 0x60 DUP3 ADD MSTORE PUSH32 0xB0768C332449E19AC5D2F322B43CB1A0320C4FD4753F389E56981D1BB5F4014D SWAP1 PUSH1 0x80 ADD PUSH1 0x40 MLOAD DUP1 SWAP2 SUB SWAP1 LOG1 POP PUSH1 0x1 SWAP3 SWAP2 POP POP JUMP JUMPDEST PUSH1 0x0 DUP1 SLOAD PUSH1 0x1 PUSH1 0x1 PUSH1 0xA0 SHL SUB AND CALLER EQ PUSH2 0x64C JUMPI PUSH1 0x40 MLOAD PUSH3 0x461BCD PUSH1 0xE5 SHL DUP2 MSTORE PUSH1 0x4 ADD PUSH2 0x3B6 SWAP1 PUSH2 0xB89 JUMP JUMPDEST PUSH2 0x656 DUP3 CALLER PUSH2 0x8CC JUMP JUMPDEST SWAP1 POP JUMPDEST SWAP2 SWAP1 POP JUMP JUMPDEST PUSH1 0x0 SLOAD PUSH1 0x1 PUSH1 0x1 PUSH1 0xA0 SHL SUB AND CALLER EQ PUSH2 0x688 JUMPI PUSH1 0x40 MLOAD PUSH3 0x461BCD PUSH1 0xE5 SHL DUP2 MSTORE PUSH1 0x4 ADD PUSH2 0x3B6 SWAP1 PUSH2 0xB89 JUMP JUMPDEST PUSH1 0x1 PUSH1 0x1 PUSH1 0xA0 SHL SUB DUP2 AND PUSH1 0x0 SWAP1 DUP2 MSTORE PUSH1 0x7 PUSH1 0x20 MSTORE PUSH1 0x40 SWAP1 KECCAK256 SLOAD PUSH1 0xFF AND PUSH2 0x6C1 JUMPI PUSH1 0x40 MLOAD PUSH4 0xBA55E0F PUSH1 0xE4 SHL DUP2 MSTORE PUSH1 0x4 ADD PUSH1 0x40 MLOAD DUP1 SWAP2 SUB SWAP1 REVERT JUMPDEST PUSH1 0x1 PUSH1 0x1 PUSH1 0xA0 SHL SUB DUP2 AND PUSH1 0x0 SWAP1 DUP2 MSTORE PUSH1 0x6 PUSH1 0x20 MSTORE PUSH1 0x40 DUP2 KECCAK256 DUP1 SLOAD SWAP1 DUP3 SWAP1 SSTORE PUSH1 0x4 DUP1 SLOAD SWAP2 SWAP3 DUP4 SWAP3 PUSH2 0x6F2 SWAP1 DUP5 SWAP1 PUSH2 0xB76 JUMP JUMPDEST SWAP1 SWAP2 SSTORE POP POP PUSH1 0x40 MLOAD PUSH1 0x1 PUSH1 0x1 PUSH1 0xA0 SHL SUB DUP4 AND SWAP1 PUSH32 0xFC5960F1C5A5D2B60F031BF534AF053B1BF7D9881989AFAEB8B1D164DB23AEDE SWAP1 PUSH1 0x0 SWAP1 LOG2 DUP2 PUSH1 0x1 PUSH1 0x1 PUSH1 0xA0 SHL SUB AND PUSH32 0x1B7E18241BECED0D7F41FBAB1EA8ED468732EDBCB74EC4420151654CA71C8A63 DUP3 PUSH1 0x40 MLOAD PUSH2 0x766 SWAP2 DUP2 MSTORE PUSH1 0x20 ADD SWAP1 JUMP JUMPDEST PUSH1 0x40 MLOAD DUP1 SWAP2 SUB SWAP1 LOG2 PUSH1 0x40 MLOAD DUP2 DUP2 MSTORE PUSH1 0x0 SWAP1 PUSH1 0x1 PUSH1 0x1 PUSH1 0xA0 SHL SUB DUP5 AND SWAP1 PUSH32 0xDDF252AD1BE2C89B69C2B068FC378DAA952BA7F163C4A11628F55A4DF523B3EF SWAP1 PUSH1 0x20 ADD PUSH1 0x40 MLOAD DUP1 SWAP2 SUB SWAP1 LOG3 POP POP JUMP JUMPDEST PUSH1 0x1 PUSH1 0x1 PUSH1 0xA0 SHL SUB DUP4 AND PUSH1 0x0 SWAP1 DUP2 MSTORE PUSH1 0x6 PUSH1 0x20 MSTORE PUSH1 0x40 DUP2 KECCAK256 SLOAD DUP3 GT ISZERO PUSH2 0x812 JUMPI PUSH1 0x40 MLOAD PUSH3 0x461BCD PUSH1 0xE5 SHL DUP2 MSTORE PUSH1 0x20 PUSH1 0x4 DUP3 ADD MSTORE PUSH1 0x14 PUSH1 0x24 DUP3 ADD MSTORE PUSH20 0x496E73756666696369656E742062616C616E6365 PUSH1 0x60 SHL PUSH1 0x44 DUP3 ADD MSTORE PUSH1 0x64 ADD PUSH2 0x3B6 JUMP JUMPDEST PUSH1 0x1 PUSH1 0x1 PUSH1 0xA0 SHL SUB DUP5 AND PUSH1 0x0 SWAP1 DUP2 MSTORE PUSH1 0x6 PUSH1 0x20 MSTORE PUSH1 0x40 SWAP1 KECCAK256 SLOAD PUSH2 0x836 SWAP1 DUP4 SWAP1 PUSH2 0xB76 JUMP JUMPDEST PUSH1 0x1 PUSH1 0x1 PUSH1 0xA0 SHL SUB DUP1 DUP7 AND PUSH1 0x0 SWAP1 DUP2 MSTORE PUSH1 0x6 PUSH1 0x20 MSTORE PUSH1 0x40 DUP1 DUP3 KECCAK256 SWAP4 SWAP1 SWAP4 SSTORE SWAP1 DUP6 AND DUP2 MSTORE KECCAK256 SLOAD PUSH2 0x866 SWAP1 DUP4 SWAP1 PUSH2 0xBB6 JUMP JUMPDEST PUSH1 0x1 PUSH1 0x1 PUSH1 0xA0 SHL SUB DUP1 DUP6 AND PUSH1 0x0 DUP2 DUP2 MSTORE PUSH1 0x6 PUSH1 0x20 MSTORE PUSH1 0x40 SWAP1 DUP2 SWAP1 KECCAK256 SWAP4 SWAP1 SWAP4 SSTORE SWAP2 MLOAD SWAP1 DUP7 AND SWAP1 PUSH32 0xDDF252AD1BE2C89B69C2B068FC378DAA952BA7F163C4A11628F55A4DF523B3EF SWAP1 PUSH2 0x8BA SWAP1 DUP7 DUP2 MSTORE PUSH1 0x20 ADD SWAP1 JUMP JUMPDEST PUSH1 0x40 MLOAD DUP1 SWAP2 SUB SWAP1 LOG3 POP PUSH1 0x1 SWAP4 SWAP3 POP POP POP JUMP JUMPDEST PUSH1 0x1 PUSH1 0x1 PUSH1 0xA0 SHL SUB DUP2 AND PUSH1 0x0 SWAP1 DUP2 MSTORE PUSH1 0x7 PUSH1 0x20 MSTORE PUSH1 0x40 DUP2 KECCAK256 SLOAD PUSH1 0xFF AND ISZERO PUSH2 0x92C JUMPI PUSH1 0x40 MLOAD PUSH3 0x461BCD PUSH1 0xE5 SHL DUP2 MSTORE PUSH1 0x20 PUSH1 0x4 DUP3 ADD MSTORE PUSH1 0x14 PUSH1 0x24 DUP3 ADD MSTORE PUSH20 0x36B4B73A2A37A0B2323932B9B990333937BD32B7 PUSH1 0x61 SHL PUSH1 0x44 DUP3 ADD MSTORE PUSH1 0x64 ADD PUSH2 0x3B6 JUMP JUMPDEST DUP3 PUSH1 0x4 PUSH1 0x0 DUP3 DUP3 SLOAD PUSH2 0x93E SWAP2 SWAP1 PUSH2 0xBB6 JUMP JUMPDEST SWAP1 SWAP2 SSTORE POP POP PUSH1 0x1 PUSH1 0x1 PUSH1 0xA0 SHL SUB DUP3 AND PUSH1 0x0 SWAP1 DUP2 MSTORE PUSH1 0x6 PUSH1 0x20 MSTORE PUSH1 0x40 DUP2 KECCAK256 DUP1 SLOAD DUP6 SWAP3 SWAP1 PUSH2 0x96B SWAP1 DUP5 SWAP1 PUSH2 0xBB6 JUMP JUMPDEST SWAP1 SWAP2 SSTORE POP POP PUSH1 0x40 MLOAD DUP4 DUP2 MSTORE PUSH1 0x1 PUSH1 0x1 PUSH1 0xA0 SHL SUB DUP4 AND SWAP1 PUSH32 0xF5C174D57843E57FEA3C649FDDE37F015EF08750759CBEE88060390566A98797 SWAP1 PUSH1 0x20 ADD PUSH1 0x40 MLOAD DUP1 SWAP2 SUB SWAP1 LOG2 PUSH1 0x40 MLOAD DUP4 DUP2 MSTORE PUSH1 0x1 PUSH1 0x1 PUSH1 0xA0 SHL SUB DUP4 AND SWAP1 PUSH1 0x0 SWAP1 PUSH32 0xDDF252AD1BE2C89B69C2B068FC378DAA952BA7F163C4A11628F55A4DF523B3EF SWAP1 PUSH1 0x20 ADD PUSH2 0x33C JUMP JUMPDEST PUSH1 0x20 DUP2 MSTORE PUSH1 0x0 DUP3 MLOAD DUP1 PUSH1 0x20 DUP5 ADD MSTORE PUSH1 0x0 JUMPDEST DUP2 DUP2 LT ISZERO PUSH2 0xA1A JUMPI PUSH1 0x20 DUP2 DUP7 ADD DUP2 ADD MLOAD PUSH1 0x40 DUP7 DUP5 ADD ADD MSTORE ADD PUSH2 0x9FD JUMP JUMPDEST POP PUSH1 0x0 PUSH1 0x40 DUP3 DUP6 ADD ADD MSTORE PUSH1 0x40 PUSH1 0x1F NOT PUSH1 0x1F DUP4 ADD AND DUP5 ADD ADD SWAP2 POP POP SWAP3 SWAP2 POP POP JUMP JUMPDEST DUP1 CALLDATALOAD PUSH1 0x1 PUSH1 0x1 PUSH1 0xA0 SHL SUB DUP2 AND DUP2 EQ PUSH2 0x659 JUMPI PUSH1 0x0 DUP1 REVERT JUMPDEST PUSH1 0x0 DUP1 PUSH1 0x40 DUP4 DUP6 SUB SLT ISZERO PUSH2 0xA64 JUMPI PUSH1 0x0 DUP1 REVERT JUMPDEST PUSH2 0xA6D DUP4 PUSH2 0xA3A JUMP JUMPDEST SWAP5 PUSH1 0x20 SWAP4 SWAP1 SWAP4 ADD CALLDATALOAD SWAP4 POP POP POP JUMP JUMPDEST PUSH1 0x0 DUP1 PUSH1 0x0 PUSH1 0x60 DUP5 DUP7 SUB SLT ISZERO PUSH2 0xA90 JUMPI PUSH1 0x0 DUP1 REVERT JUMPDEST PUSH2 0xA99 DUP5 PUSH2 0xA3A JUMP JUMPDEST SWAP3 POP PUSH2 0xAA7 PUSH1 0x20 DUP6 ADD PUSH2 0xA3A JUMP JUMPDEST SWAP3 SWAP6 SWAP3 SWAP5 POP POP POP PUSH1 0x40 SWAP2 SWAP1 SWAP2 ADD CALLDATALOAD SWAP1 JUMP JUMPDEST PUSH1 0x0 PUSH1 0x20 DUP3 DUP5 SUB SLT ISZERO PUSH2 0xACA JUMPI PUSH1 0x0 DUP1 REVERT JUMPDEST PUSH2 0xAD3 DUP3 PUSH2 0xA3A JUMP JUMPDEST SWAP4 SWAP3 POP POP POP JUMP JUMPDEST PUSH1 0x0 PUSH1 0x20 DUP3 DUP5 SUB SLT ISZERO PUSH2 0xAEC JUMPI PUSH1 0x0 DUP1 REVERT JUMPDEST POP CALLDATALOAD SWAP2 SWAP1 POP JUMP JUMPDEST PUSH1 0x0 DUP1 PUSH1 0x40 DUP4 DUP6 SUB SLT ISZERO PUSH2 0xB06 JUMPI PUSH1 0x0 DUP1 REVERT JUMPDEST PUSH2 0xB0F DUP4 PUSH2 0xA3A JUMP JUMPDEST SWAP2 POP PUSH2 0xB1D PUSH1 0x20 DUP5 ADD PUSH2 0xA3A JUMP JUMPDEST SWAP1 POP SWAP3 POP SWAP3 SWAP1 POP JUMP JUMPDEST PUSH1 0x1 DUP2 DUP2 SHR SWAP1 DUP3 AND DUP1 PUSH2 0xB3A JUMPI PUSH1 0x7F DUP3 AND SWAP2 POP JUMPDEST PUSH1 0x20 DUP3 LT DUP2 SUB PUSH2 0xB5A JUMPI PUSH4 0x4E487B71 PUSH1 0xE0 SHL PUSH1 0x0 MSTORE PUSH1 0x22 PUSH1 0x4 MSTORE PUSH1 0x24 PUSH1 0x0 REVERT JUMPDEST POP SWAP2 SWAP1 POP JUMP JUMPDEST PUSH4 0x4E487B71 PUSH1 0xE0 SHL PUSH1 0x0 MSTORE PUSH1 0x11 PUSH1 0x4 MSTORE PUSH1 0x24 PUSH1 0x0 REVERT JUMPDEST DUP2 DUP2 SUB DUP2 DUP2 GT ISZERO PUSH2 0x348 JUMPI PUSH2 0x348 PUSH2 0xB60 JUMP JUMPDEST PUSH1 0x20 DUP1 DUP3 MSTORE PUSH1 0x13 SWAP1 DUP3 ADD MSTORE PUSH19 0x21B0B63632B91034B9903737BA1037BBB732B9 PUSH1 0x69 SHL PUSH1 0x40 DUP3 ADD MSTORE PUSH1 0x60 ADD SWAP1 JUMP JUMPDEST DUP1 DUP3 ADD DUP1 DUP3 GT ISZERO PUSH2 0x348 JUMPI PUSH2 0x348 PUSH2 0xB60 JUMP INVALID LOG2 PUSH5 0x6970667358 0x22 SLT KECCAK256 0xF 0xC1 DUP12 ISZERO DUP15 PUSH32 0xD9A3B7BAD243DAFB9D94B96700B8AE1546E98357C373F7A6FE4F64736F6C6343 STOP ADDMOD BYTE STOP CALLER ","sha1":"37d35df4406d141bd3d66b68106c412fcef4da22","source":"pragma solidity ^0.8.25;\n\nimport \"./Owner.sol\";\n\ncontract regulatedStableCoin is Owner{\n\n    string public symbol;\n    string public name;\n    uint256 public decimals;\n    uint256 internal totalSupply;\n\n    mapping(address => mapping(address => uint256)) allowed;\n    mapping(address => uint256) internal balances;\n    mapping(address => bool) internal frozen;\n        \n    event accountBalanceUpdate(address senderAccount, uint256 SernderBalances, address ReceiverAccount, uint256 ReceiverBalances);\n    event Transfer(address indexed from, address indexed to, uint256 value);\n    event Approval(address indexed owner, address indexed spender, uint256 value);\n    event FreezeAddress(address indexed addr);\n    event FrozenAddressWiped(address indexed addr);\n    event SupplyDecreased(address indexed from, uint256 value);\n    event SupplyIncreased(address indexed to, uint256 value);\n\n    error AddressNotFrozen();\n\n    constructor( \n        string memory _name, \n        string memory _symbol, \n        uint256 _decimals, \n        uint256 _totalSupply\n    ) \n        public \n    {\n        name = _name;\n        symbol = _symbol;\n        decimals = _decimals;\n        totalSupply = _totalSupply;\n        balances[msg.sender] = _totalSupply;\n        emit accountBalanceUpdate(address(0), _totalSupply, msg.sender, _totalSupply);\n        emit SupplyIncreased(msg.sender, _totalSupply);\n    }\n\n    function balanceOf(address _owner) public view returns (uint256) {\n        return balances[_owner];\n    }\n\n    function allowance(address _owner, address _spender) public view returns (uint256){\n        return allowed[_owner][_spender];\n    }\n\n    function approve(address _spender, uint256 _value) public returns (bool) {\n        allowed[msg.sender][_spender] = _value;\n        emit Approval(msg.sender, _spender, _value);\n        return true;\n    }\n\n    function _transfer(address _from, address _to, uint256 _value) internal returns (bool){\n        require(balances[_from] >= _value, \"Insufficient balance\");\n        balances[_from] = balances[_from] - _value;\n        balances[_to] = balances[_to] + _value;\n        emit Transfer(_from, _to, _value);\n        return true;\n    }\n\n    function transfer(address _to, uint256 _value) public returns (bool) {\n        require(_transfer(msg.sender, _to, _value), \"transfer fail\");\n        emit accountBalanceUpdate(msg.sender, balanceOf(msg.sender), _to, balanceOf(_to));\n        return true;\n    }\n\n    function transferFrom(address _from, address _to, uint256 _value) public returns (bool){\n        require(allowed[_from][msg.sender] >= _value, \"Insufficient allowance\");\n        allowed[_from][msg.sender] = allowed[_from][msg.sender] - _value;\n        _transfer(_from, _to, _value);\n        return true;\n    }\n\n    function freeze(address addr) public onlyOwner{\n        frozen[addr] = true;\n        emit FreezeAddress(addr);\n    }\n\n    function wipeFrozenAddress(address addr) public onlyOwner {\n            if (!_isAddrFrozen(addr)) revert AddressNotFrozen();\n            uint256 balance = balances[addr];\n            balances[addr] = 0;\n            totalSupply -= balance;\n            emit FrozenAddressWiped(addr);\n            emit SupplyDecreased(addr, balance);\n            emit Transfer(addr, address(0), balance);\n    }\n\n    function _isAddrFrozen(address addr) internal view  returns (bool) {\n        return frozen[addr];\n    }\n\n    /**\n     * @notice Increases the total supply by minting the specified number of tokens to the supply controller account.\n     * Function is marked virtual to aid in testing, but is never overridden on the actual token.\n     * @param value The number of tokens to add\n     * @param mintToAddress Address to mint tokens to.\n     * @return success A boolean that indicates if the operation was successful\n     */\n    function increaseSupplyToAddress(uint256 value, address mintToAddress) internal virtual returns (bool success) {\n        require(!_isAddrFrozen(mintToAddress), \"mintToAddress frozen\");\n\n        //supplyControl.canMintToAddress(mintToAddress, value, msg.sender);\n\n        totalSupply += value;\n        balances[mintToAddress] += value;\n        emit SupplyIncreased(mintToAddress, value);\n        emit Transfer(address(0), mintToAddress, value);\n        return true;\n    }\n\n    /**\n     * @dev Wrapper around 'increaseSupplyToAddress' to extend the API\n     * @param value The number of tokens to add. \n     * @return success A boolean that indicates if the operation was successful\n     */\n    function increaseSupply(uint256 value) public onlyOwner returns (bool success) {\n        return increaseSupplyToAddress(value, msg.sender);\n    }\n\n    /**\n     * @dev Wrapper around `increaseSupplyToAddress` to extend the API\n     * @param account Address to mint tokens to\n     * @param amount The number of tokens to add\n     */\n    function mint(address account, uint256 amount) public onlyOwner {\n        increaseSupplyToAddress(amount, account);\n    }\n\n}","sourcePath":"contracts/regulatedStableCoin.sol","type":"contract","deployment":{"address":"0x99aB1bBD16d9107f3aD0247B766FaB9299940B6f","chainid":"5777","blockHeight":349}}